:100000000C94B0000C94F9160C9426170C94D8009C
:100010000C94D8000C94D8000C94D8000C94901D2B
:100020000C94D8000C94D8000C94D8000C94D800F0
:100030000C94D8000C9435020C94D8000C94D80081
:100040000C9453170C94D8000C9492190C94D51955
:100050000C94D8000C94D8000C94D8000C94D800C0
:100060000C94D8000C94D8002C003B323D002C009E
:10007000313D002020202000537462790043414C20
:10008000002D2D2D001F1F000000000000000000AB
:100090000000001F1F1F1F000000001F1F1F1F1F49
:1000A0001F1F1F1F1F00000000000E0E0E00000388
:1000B00003030300000000181818180000000E13B6
:1000C00017171F0E000000000700020100000304C4
:1000D000060000000000000000010204081020409B
:1000E0008001020408102001020408102004040406
:1000F00004040404040202020202020303030303D1
:100100000300000000230026002900000000002555
:100110000028002B0000000000240027002A000215
:100120004E414E494E495459494E46CDCCCC3D0ADC
:10013000D7233C17B7D13877CC2B329595E6241FBF
:10014000B14F0A000020410000C84200401C462078
:10015000BCBE4CCA1B0E5AAEC59D7400931A231B1D
:1001600011241FBECFEFD8E0DEBFCDBF12E0A0E06C
:10017000B1E0E4ECFCE402C005900D92AC30B107B4
:10018000D9F712E0ACE0B2E001C01D92A83EB10781
:10019000E1F711E0C0E6D1E004C02297FE010E9421
:1001A0002A1ECC35D107C9F70E94321B0C94602659
:1001B0000C940000EF920F931F93CF93DF93EC0109
:1001C000862F688349832A83EB821D821C821F82CB
:1001D0001E8208871A8619861C861B8691E09D87D9
:1001E0009E87E11002C012E001C010E0612F0E9462
:1001F0006218612F89810E946218612F8A810E9492
:10020000621888810E94D1182B8130E082179307F1
:1002100021F483E090E09F838E8389810E94D1182E
:100220002B8130E08217930731F48E819F8121E08A
:1002300082279F838E83DF91CF911F910F91EF9043
:100240000895CF92DF92EF92FF921F93CF93DF93A7
:10025000EC010E949D176B017C018E85882359F06B
:1002600089859A8502979A87898789859A8597FFD4
:1002700002C01A86198688810E94D1182B8130E02D
:100280008217930711F010E001C013E089810E94EA
:10029000D1182B8130E08217930711F481E01827E1
:1002A0002E813F81211B20FF14C0812F992787FDBC
:1002B00090959F838E838C819D812270332727FDAB
:1002C000309521503109820F931F9D838C8381E0EB
:1002D00001C080E09E85992361F0882351F08985D3
:1002E0009A85883E9B4028F489859A8549969A8705
:1002F000898780910F0290911002A0911102B09114
:100300001202B701A601481B590B6A0B7B0B4A303E
:1003100051056105710508F45DC0C0920F02D092CD
:100320001002E0921102F09212028A810E94D1180A
:100330002B8130E08217930781F480910D02909118
:100340000E02019690930E0280930D02893791055B
:1003500020F083E090E09C878B878A810E94D118EF
:100360002B8131E0232730E08217930731F580910C
:100370000D0290910E02892BE1F08B859C850397ED
:1003800019F484E090E008C080910C02823048F0BB
:100390008C3378F486E090E09C878B8710920C0277
:1003A00008C08D85882311F08CE301C081E0809323
:1003B0000C0210920E0210920D0280910C02882302
:1003C00049F0825080930C02811104C085E090E0D6
:1003D0009C878B87DF91CF911F91FF90EF90DF90EB
:1003E000CF900895FC01F894248135818085823076
:1003F00021F4C9018170992705C0843031F4C90105
:10040000837099279583848302C01582148278941F
:100410008085843029F4359527953595279504C036
:10042000823011F4359527958685882329F08185BA
:100430009285892F992702C080E090E037FF03C0A2
:10044000809590950895232B11F00196089580E0F2
:1004500090E00895FC0183859485238534852330BD
:10046000310511F01486138608951F920F920FB66E
:100470000F9211242F933F934F935F936F937F932A
:100480008F939F93AF93BF93EF93FF93E0911402E9
:10049000F09115020995FF91EF91BF91AF919F9156
:1004A0008F917F916F915F914F913F912F910F901D
:1004B0000FBE0F901F901895CB010C94C723CB0152
:1004C000642F0C94CF23CF93DF93EC0160E08E81F7
:1004D0000E949B1881E090E00E94F31761E08E81FA
:1004E0000E949B1881E090E00E94F31760E08E81EB
:1004F0000E949B1884E690E0DF91CF910C94F31753
:10050000CF92DF92EF92FF920F931F93CF93DF93DF
:100510007C01C0E0D0E0C62ED12C87010C0F1D1F3E
:1005200061E0F80187810E946218B6010C2E02C0BA
:10053000759567950A94E2F76170F80187810E94CA
:100540009B182196C430D10541F7C701DF91CF91A7
:100550001F910F91FF90EF90DF90CF900C9463026A
:10056000CF92DF92EF92FF920F931F93CF93DF937F
:100570007C01C0E0D0E0C62ED12C87010C0F1D1FDE
:1005800061E0F80187810E946218B6010C2E02C05A
:10059000759567950A94E2F76170F80187810E946A
:1005A0009B182196C830D10541F7C701DF91CF9143
:1005B0001F910F91FF90EF90DF90CF900C9463020A
:1005C0001F93CF93DF93EC01162F642F8C810E9431
:1005D0009B188D818F3F19F060E00E949B188F85DA
:1005E000612F84FF06C0CE01DF91CF911F910C9443
:1005F000B00270E0E4E075956795EA95E1F7CE0109
:100600000E948002612FCE01DF91CF911F910C9447
:10061000800240E00C94E00261E00E94090380ED5A
:1006200097E00C94F317CF93DF93CDB7DEB72897FD
:100630000FB6F894DEBF0FBECDBF28E0EBE0F1E0CF
:10064000DE01119601900D922A95E1F7FC012389B4
:10065000421710F04FEF420FFE013196E40FF11DEB
:10066000E40FF11D2081260F2068622F28960FB617
:10067000F894DEBF0FBECDBFDF91CF910C9409037C
:10068000FC016089262F2460208B6C600C94090388
:10069000CF93DF93EC01423018F08F8588608F870D
:1006A0004B8B1C8A222329F0413019F48F858460FA
:1006B0008F8780E593EC0E94F31760E08C810E94A5
:1006C0009B1860E08E810E949B188D818F3F19F0EE
:1006D00060E00E949B186F8564FD1DC063E0CE0141
:1006E0000E94800284E991E10E94F31763E0CE0149
:1006F0000E94800284E991E10E94F31763E0CE0139
:100700000E94800286E990E00E94F31762E0CE0129
:100710000E94800216C06062CE010E94090384E933
:1007200091E10E94F3176F856062CE010E94090378
:1007300086E990E00E94F3176F856062CE010E9407
:1007400009036F856062CE010E94090384E0888BF3
:10075000CE010E944003CE010E940C0382E0898BEF
:1007600066E0CE01DF91CF910C9409036F927F92E6
:100770008F92AF92CF92EF920F931F93CF93DF930D
:10078000CDB7DEB73C01162F842F5D854E853F85A2
:100790009889F301848325830683E782C086A18636
:1007A0008286538744873587968761E00E94621866
:1007B000F30185818F3F19F061E00E94621861E0CA
:1007C000F30186810E946218112319F0F301178644
:1007D00003C080E1F301878720E041E060E1C301CD
:1007E000DF91CF911F910F91EF90CF90AF908F90AD
:1007F0007F906F900C9448038F92AF92CF92EF92BC
:100800000F93DC0113961C921E921297E7E1F1E020
:10081000ED93FC931F921F921F921F928C2CAE2C73
:10082000C02EE22E042F2FEF462F61E00E94B60368
:100830000F900F900F900F900F91EF90CF90AF907F
:100840008F900895CF92DF92EF92FF920F931F93B4
:10085000CF93DF9300D0CDB7DEB78C01677088E00F
:10086000689FB00111246064C80149835A830E94C3
:1008700009034981C42E5A81D52EE12CF12CD601D1
:100880006D916D01D801ED91FC910190F081E02D09
:10089000C8010995BFEFEB1AFB0AE8E0EE16F10478
:1008A00071F70F900F90DF91CF911F910F91FF90F3
:1008B000EF90DF90CF90089541E00E94E00281E048
:1008C00090E0089523ED31E0FC0131832083089509
:1008D0000F931F93CF93DF932BED31E0FC01318316
:1008E00020838C01095E1F4F0115110579F0EC0181
:1008F000CB57DF4FC017D10749F0E797E881F9815F
:100900000190F081E02DCE010995F4CFDF91CF91D8
:100910001F910F91089523EE31E0FC012193319353
:10092000CF010C94680423ED31E0FC013183208376
:100930000C94411BCF93DF93EC010E946804CE011D
:10094000DF91CF910C94411BCF93DF93EC010E9478
:100950008B04CE01DF91CF910C94411B80911A0240
:1009600090911B020C94210194B5906894BD87BDB1
:100970000895FC0183ED91E091838083148A168AA7
:10098000158A108E178A118E138E128E148E81E0A6
:1009900090E0968F858F178E10A211A212A213A23B
:1009A00081E084A315A216A217A210A611A6909109
:1009B000190221E0290F2093190293AB84AB16AAE8
:1009C00015AA12821086168643E35BE16AEC7EE389
:1009D00043A754A765A776A74DEC5FE46FE272E4E6
:1009E00047A750AB61AB72AB0895FC016130710554
:1009F00059F42589368981E02417350709F480E008
:100A000084A3568B458B04C02789308D508F478B2C
:100A100081E02417350709F480E00895CF93DF9330
:100A200000D000D000D0CDB7DEB729833A834B8306
:100A30005C836D837E83313029F0323031F484B5AC
:100A40008F7D02C084B58F7784BD26960FB6F8944B
:100A5000DEBF0FBECDBFDF91CF910895CF93DF935F
:100A600000D000D000D0CDB7DEB729833A834B83C6
:100A70005C836D837E83552351F029810E940E058E
:100A8000ED81FE8190818B81982381E009F480E0E3
:100A900026960FB6F894DEBF0FBECDBFDF91CF9183
:100AA0000895EF92FF920F931F93CF93DF9300D09F
:100AB00000D000D0CDB7DEB729833A83142F4B8303
:100AC0005C836D837E83ED80FE80332319F0298162
:100AD0000E940E059FB7F894F7018081011104C0B0
:100AE00010951823108302C0812B80839FBF269608
:100AF0000FB6F894DEBF0FBECDBFDF91CF911F912F
:100B00000F91FF90EF9008950F931F93CF93DF9372
:100B1000EC010DA11EA12FA138A5DB01CA01801B8C
:100B2000910BA20BB30B8C019D01013991E01907C8
:100B30002105310550F48C8D882309F455C0063801
:100B400011052105310508F44FC04DA35EA36FA325
:100B500078A78D8D9E8D81309105B1F01CF4892B85
:100B600039F035C08230910511F10397C9F02FC0DB
:100B70002E853F85488959896A897B89CE010E94E3
:100B80002E05813021F51CC02E853F854889598965
:100B90006A897B89CE010E942E05811118C012C07E
:100BA00089A58F5F89A7883078F4813059F02E8528
:100BB0003F85488959896A897B89CE010E942E0523
:100BC0008F8F05C01F8E03C08A3009F419A601E07B
:100BD0008F8D811100E02E853F85488959896A896A
:100BE0007B89CE010E9451058F8DDF91CF911F919E
:100BF0000F910895CF93DF9300D000D000D0CDB7F0
:100C0000DEB729833A834B835C836D837E832E30EA
:100C100008F02E502770206420937C0080917A0089
:100C2000806480937A0080917A0086FDFCCF809169
:100C300078002091790090E0922B26960FB6F894D8
:100C4000DEBF0FBECDBFDF91CF9108950F93CF933D
:100C5000DF9300D000D000D0CDB7DEB729833A8330
:100C60004B835C836D837E83002349F00F3F51F4F7
:100C700001E029813A814B815C816D817E810E94F6
:100C8000510516C08A81813039F0823089F484B5EB
:100C9000806284BD08BD0CC0802F26960FB6F894E4
:100CA000DEBF0FBECDBFDF91CF910F910C94B40486
:100CB00026960FB6F894DEBF0FBECDBFDF91CF9161
:100CC0000F910895FF920F931F93CF93DF93EC0141
:100CD000862FF42E122F91E09AA76A8361E00E947A
:100CE00062182A81622F70E0FB01EB53FF4F3491B1
:100CF0003B83FB01E752FF4F44914C83FB01E351DF
:100D0000FF4F54915D83E52FF0E0EE0FFF1FE55F8D
:100D1000FE4FA591B4916A2FBF83AE83098D7F8169
:100D2000CE010E942606F88660E08F2D0E94621890
:100D30001E8761E0812F0E9462182E85822F90E02D
:100D4000FC01EB53FF4F34913F87FC01E752FF4F0B
:100D50004491488BFC01E351FF4F5491598BE52F8F
:100D6000F0E0EE0FFF1FE55FFE4FA591B4916A2FF3
:100D7000BB8BAA8B01E07B89CE010E945105DF91DC
:100D8000CF911F910F91FF9008950F93CF93DF9311
:100D900000D000D000D0CDB7DEB7662359F0FC01FB
:100DA000018D2281338144815581668177810E9442
:100DB000260612C026E0FC013296DE011196019053
:100DC0000D922A95E1F700E029813A814B815C81FF
:100DD0006D817E810E94510526960FB6F894DEBF84
:100DE0000FBECDBFDF91CF910F9108954F925F92CB
:100DF0006F927F92AF92BF92CF92DF92EF92FF926B
:100E00000F931F93CF93DF9300D000D000D0CDB7C6
:100E1000DEB77C01DC015796AD90BC905897559693
:100E2000CD90DC9056975C968C91882359F0B6E96A
:100E3000CB16D10424F434E6C32ED12C03C026E90A
:100E4000C22ED12CF70185A996A9009719F060E070
:100E50000E94C50686E0F7013296DE0111960190E8
:100E60000D928A95E1F700E029813A814B815C81FE
:100E70006D817E81C7010E94510564E170E080E0D0
:100E800090E00E94CD17D70118962C9118971996CB
:100E90003C9119971A964C911A971B965C911B9747
:100EA0001C966C911C971D967C91C7010E94FA05B7
:100EB000F701938F828F018D228133814481558187
:100EC00066817781C7010E942606D701D596ED91EC
:100ED000FC91D697309751F0018D22813381448166
:100EE000558166817781CF010E942606F701628DC8
:100EF000738D11E0613571050CF410E0D701D496C3
:100F00001C93882777FD8095982F0E94321FF70148
:100F100023A534A545A556A50E94E61FD7019F9697
:100F20002D913D914D915C91D2970E942F1E2B01E6
:100F30003C0120E030E0A9010E94E21F20E030E007
:100F400040E05FE387FD05C0C301B2010E942F1E90
:100F500004C0C301B2010E942E1E0E94FF1EF701B1
:100F6000708F678B9601261B370B12161306BCF485
:100F70004AE0429FC001439F900D1124873991059B
:100F800014F086E990E0243031055CF4EFE0E29F54
:100F9000A001E39F500D1124840F951F02C080E033
:100FA00090E0112339F1D7015C962C915C972223B4
:100FB00019F023E030E019C06430710504F19601A6
:100FC00023503109621773074CF0B3E0CB0ED11CEC
:100FD000C616D7061CF022E030E00EC021E030E05B
:100FE000009711F020E030E0D7015E963C932E93FD
:100FF0005D9705C021E030E0F701368F258FD701DE
:1010000059962C915997332727FD30952817390782
:10101000C1F059968C935997082F12962C911297DC
:1010200013963C91139714964C91149715965C91D6
:10103000159716966C91169717967C91C7010E948A
:10104000260681E0F7012789308DA216B30609F440
:1010500080E026960FB6F894DEBF0FBECDBFDF91BD
:10106000CF911F910F91FF90EF90DF90CF90BF90A5
:10107000AF907F906F905F904F900895CF92EF92D6
:101080000F93CF93DF93EC01EBEDF1E0DC01ED93F7
:10109000FD93CD010E94FC03CE0147960E94B90446
:1010A000CE01825B9F4F0E94B904FE01EB57FF4FB8
:1010B00081E090E091838083FE01E957FF4F108229
:1010C000118212821382FE01E357FF4F1082FE014C
:1010D000E257FF4F1082FE01E157FF4F108211824D
:1010E00012821382FE01ED56FF4F1082118212828E
:1010F0001382FE01E956FF4F108211821282138281
:10110000FE01E556FF4F1082FE01E456FF4F1082AC
:10111000C557DF4F80E092E099838883DF91CF91BC
:101120000F91EF90CF900895BF92CF92DF92EF9200
:10113000FF920F931F93CF93DF93CDB7DEB76197E5
:101140000FB6F894DEBF0FBECDBF8C017C0182E0EC
:10115000E80EF11CC7010E940C03F801E557FF4F90
:10116000808180FF03C08BE191E002C080E291E0CA
:101170009F938F9387E291E09F938F9380E391E019
:101180009F938F931F9241E1B42EBF928E010F5F08
:101190001F4F1F930F930E94C521F801019000205B
:1011A000E9F73197E01BF10B50E1C52ED12CB601C8
:1011B0006E1B7F0B7695679540E0C7010E94130375
:1011C000B801C7010E94A61B1F9282E08F931F9255
:1011D00081E08F931F9286E78F9386E391E09F9340
:1011E0008F931F92BF921F930F930E94C521F80106
:1011F00001900020E9F73197E01BF10BB6016E1B5F
:101200007F0B7695679541E0C7010E941303B801F3
:10121000C7010E94A61B68EE73E080E090E00E9488
:10122000CD17C7010E940C036FE371E0C8010E9453
:101230009D21F80101900020E9F73197E01BF10BA7
:10124000B6016E1B7F0B7695679540E0C7010E9443
:101250001303B801C7010E94A61B87E08F938FED8F
:101260008F938DE491E09F938F9383E591E09F931B
:101270008F931F92BF921F930F930E94C521F80175
:1012800001900020E9F73197E01BF10B0FB6F894BD
:10129000DEBF0FBECDBFB6016E1B7F0B7695679587
:1012A00041E0C7010E941303B801C7010E94A61BB9
:1012B00068EE73E080E090E00E94CD17C7010E94C5
:1012C0000C0361960FB6F894DEBF0FBECDBFDF9161
:1012D000CF911F910F91FF90EF90DF90CF90BF9033
:1012E0000895CF93DF93EC01C556DF4F88818111BC
:1012F00023C060E070E083E192E00E945C028D30E8
:10130000C9F461E070E083E192E00E945C028E30FB
:1013100089F462E070E083E192E00E945C028A302E
:1013200049F463E070E083E192E00E945C0291E0A6
:101330008D3009F090E098838881DF91CF910895F6
:101340004DE060E070E083E192E00E945F024EE0D9
:1013500061E070E083E192E00E945F024AE062E0B7
:1013600070E083E192E00E945F024DE063E070E094
:1013700083E192E00C945F02FB0180E06CE8415055
:1013800088F0519198E0752F7827282F30E0359517
:101390002795822F70FF02C0862F82275695915085
:1013A00091F7EDCF0895BF92CF92DF92EF92FF9227
:1013B0000F931F93CF93DF9300D0CDB7DEB76C01AF
:1013C0008B017A01FA01118210820E94710988232F
:1013D00091F0B80183E192E00E945C02B82EB8015E
:1013E0006F5F7F4F0E5F1F4F83E192E00E945C02B0
:1013F000F701B0828183C6010E947109811112C078
:1014000010E0F7019081818199838A8342E0BE01D7
:101410006F5F7F4FC6010E94BC0991E0811749F0C0
:1014200090E007C0B80183E192E00E945C02182FAF
:10143000E8CF892F0F900F90DF91CF911F910F91DF
:10144000FF90EF90DF90CF90BF900895DF92EF92E2
:10145000FF920F931F93CF93DF9300D01F92CDB7CE
:10146000DEB77C018B01D52E49835A834B830E94C2
:1014700071094B81882379F0B80183E192E00E94E1
:101480005F024D2DB8016F5F7F4F0E5F1F4F83E1ED
:1014900092E00E945F0242E0BE016F5F7F4FC70192
:1014A0000E94BC09482FC7014B830E9471094B81E0
:1014B000882329F0B80183E192E00E945F020F9037
:1014C0000F900F90DF91CF911F910F91FF90EF90B0
:1014D000DF9008952F923F924F925F926F927F928A
:1014E0008F929F92AF92BF92CF92DF92EF92FF9234
:1014F0000F931F93CF93DF93CDB7DEB762970FB6ED
:10150000F894DEBF0FBECDBF4C017B016A018E0196
:10151000035F1F4FCE0101962C011E0191E1290EA0
:10152000311C1A8B098B52013B01601A710AB301FD
:10153000600F711F83E192E00E945C02F8018193C9
:101540008F01F20181932F010215130581F78E019E
:10155000075F1F4F2E01F5E04F0E511C37016A182F
:101560007B08B301640D751D83E192E00E945C026B
:10157000F80181938F01F20181932F0189899A8962
:101580000817190771F7B701685F7F4F83E192E091
:101590000E945C02182F48E0B501C4010E94BC09FA
:1015A000181311C089859A85AB85BC854D855E85EC
:1015B0006F857889F60143A754A765A776A787A703
:1015C00090ABA1ABB2AB62960FB6F894DEBF0FBE84
:1015D000CDBFDF91CF911F910F91FF90EF90DF90E2
:1015E000CF90BF90AF909F908F907F906F905F90C3
:1015F0004F903F902F9008952F923F924F925F927D
:101600006F927F928F929F92AF92BF92CF92DF9212
:10161000EF92FF920F931F93CF93DF93CDB7DEB777
:1016200063970FB6F894DEBF0FBECDBF5C016B01B0
:10163000FA0187A590A9A1A9B2A943A554A565A5BA
:1016400076A54D875E876F87788B89879A87AB876A
:10165000BC87C5010E947109882309F44BC07E0133
:10166000FDE0EF0EF11C8E010F5F1F4F28014E01B0
:1016700085E0880E911C1701098B1A8B36016E18B4
:101680007F08B3016E0D7F1DF70121917F01422F6D
:1016900083E192E02B8B0E945F022B89F80121935A
:1016A0008F01E815F90569F77E01F9E0EF0EF11CED
:1016B000460184189508F70171907F01B401600F0D
:1016C000711F472D83E192E00E945F02F801719241
:1016D0008F01E214F30479F748E069897A89C5013A
:1016E0000E94BC09B601685F7F4F482F83E192E0FA
:1016F0000E945F0263960FB6F894DEBF0FBECDBFA7
:10170000DF91CF911F910F91FF90EF90DF90CF90DD
:10171000BF90AF909F908F907F906F905F904F9011
:101720003F902F900895CF93DF93EC01FC01EB578E
:10173000FF4F80819181019741F40E949D17C95705
:10174000DF4F688379838A839B83DF91CF910895EC
:10175000FC01E557FF4F808191819B0128233923AC
:10176000232B59F4442319F0682B792B04C060957E
:101770007095682379237183608308950F931F9375
:10178000CF93DF93EC018C010B571F4FF801808141
:1017900091817183608341E08617970709F440E0E7
:1017A00064E070E0CE010E94A80BF8018081918175
:1017B000019719F40E949D1703C060E070E0CB010F
:1017C000C957DF4F688379838A839B83DF91CF91E9
:1017D0001F910F9108950F931F93CF93DF93EC0107
:1017E000FC01EB57FF4F808191810197D9F40E9452
:1017F0009D17FE01E957FF4F00811181228133813E
:10180000601B710B820B930B693B7B40810591053B
:1018100048F060E070E0CE01DF91CF911F910F9111
:101820000C94BE0BDF91CF911F910F910895FC0195
:10183000E557FF4F442339F080819181862B972B08
:10184000918380830895609570958081918168234C
:1018500079237183608308950F931F93CF93DF9350
:10186000EC018C0105571F4FF8018181482F4695E7
:10187000469550E0F1E04F27417060E074E0CE0102
:101880000E94170C41E060E078E0CE010E94A80BB6
:10189000F8019081818182FB882780F98BAB90FFD2
:1018A00003C0C25BDF4F8C8FDF91CF911F910F91EF
:1018B0000895CF93DF93CDB7DEB760970FB6F89456
:1018C000DEBF0FBECDBF27E3269FF001279FF00D9F
:1018D0001124E80FF91F88E0EE5BFF4FDE0111963F
:1018E00001900D928A95E1F788E0FE013196DE01C4
:1018F000199601900D928A95E1F729853A854B85D5
:101900005C856D857E858F85988960960FB6F89485
:10191000DEBF0FBECDBFDF91CF9108950F931F9310
:10192000CF93DF93EC01AC01495E5F4F6FE070E055
:101930000E946A0A8E0105571F4FF801808180FFBF
:1019400008C0AE01425B5F4F68E170E0CE010E94CB
:101950006A0AF8018081918195FF1EC040E050E045
:1019600060E87FE3FE01EE5BFF4F408351836283BB
:101970007383FE01EA5BFF4F108211821282138291
:1019800080FF0AC0C25BDF4F4BA75CA76DA77EA795
:101990001FA618AA19AA1AAADF91CF911F910F9119
:1019A00008952F923F924F925F926F927F928F9203
:1019B0009F92AF92BF92CF92DF92EF92FF920F93DE
:1019C0001F93CF93DF93CDB7DEB728970FB6F89468
:1019D000DEBF0FBECDBF3C01122F3A2CD82CFC012C
:1019E000E357FF4F6083FC01E257FF4F40832C0118
:1019F00022E0420E511C20E0C2010E944803812CCB
:101A0000912CF12C98E0292ECE0101965C01F50174
:101A1000222D11922A95E9F7C501A0E0B0E09401CA
:101A20002B573F4FF901EA0FFB1F4491FC014193F3
:101A3000CF011196A830B105A9F7A5016F2DC201FC
:101A40000E942204F394F8E08F0E911C28E0F21219
:101A5000DECF85E085BDC3010E947109811103C0FD
:101A6000C3010E94A009430187E1880E911C2E2D1D
:101A7000402F612FC4010E94620681E0F30183A719
:101A8000830105571F4FF8018081918195FF02C0A6
:101A900044E616C0A50169E070E0C3010E94D309C5
:101AA000882369F089819A818436910588F3833C83
:101AB000F1E09F0710F082EC91E0AC0102C046E932
:101AC00050E061E070E0C4010E94F504F30113AE40
:101AD00060E08C2D0E9462188C2D0E94D1188C2DF4
:101AE0000E94D118019731F4F801808191818160C1
:101AF00091838083F8018081918195FF03C081608B
:101B000091838083F801808180FF58C0C3010E94C7
:101B10007109811175C0C12C7301FEE4EF0EF11C37
:101B20002D8D4D2D632DC7010E946206F301E45BEC
:101B3000FF4FF182E082F70196AA85AAF801808121
:101B4000918195FF02C044E616C0A5016CE070E0EB
:101B5000C3010E94D309882369F029813A81243680
:101B6000310588F3233CF1E03F0710F022EC31E02F
:101B7000A90102C046E950E061E070E0C7010E949F
:101B8000F504CC20D1F1F30144A555A5F7018589D1
:101B900096894817590789F161E070E0C7010E94F2
:101BA000F504F8018081918195FF02C040E001C0F9
:101BB0004C2D62E070E0C3010E94170CC3010E942B
:101BC0008E0CC3010E94940828960FB6F894DEBFCD
:101BD0000FBECDBFDF91CF911F910F91FF90EF907E
:101BE000DF90CF90BF90AF909F908F907F906F903D
:101BF0005F904F903F902F900895F70114A2D1CF9E
:101C000066E070E083E192E00E945C02C82E84CF1F
:101C100027E3269FA001279F500D1124495E5F4FA7
:101C2000480F591F672B19F46FE070E002C068E19C
:101C300070E00C94FC0A1F93CF93DF93EC01162FF6
:101C4000462F60E070E20E94170C111107C0C557C3
:101C5000DF4F28813981326039832883DF91CF912A
:101C60001F910895FC01E557FF4F2081318132FD1E
:101C70000C942C0C08959F92AF92BF92CF92DF925A
:101C8000EF92FF920F931F93CF93DF93EC017B01B1
:101C90008C010B571F4FF80180819181892B99F49A
:101CA00061E070E0CE010E94BE0BCE01DF91CF91CA
:101CB0001F910F91FF90EF90DF90CF90BF90AF906A
:101CC0009F900C94320ECE010E94320E0E949D17FE
:101CD000FE01E956FF4F6083718382839383FE0187
:101CE000E456FF4F1082FE01E557FF4F808191813E
:101CF0005C01F1E0AF22BB2480FD05C0C12CD12CDA
:101D000037E3932E2DC081FDF9CF37C09C9CC001D5
:101D10009D9C900D112447968C0F9D1FF8016081AA
:101D20007181FC0161157105F9F44789508D4E0DE3
:101D30005F1D44365105DCF0433CF1E05F0714F0D1
:101D400042EC51E00E94F504C114D10499F468E01A
:101D500070E0482FCE010E94A80B2FEFC21AD20AC2
:101D6000AC14BD049CF653C045895689E0CF44E6C7
:101D700050E0E8CF60E470E0ECCF2BA5AE01495E07
:101D80005F4F5A01222311F06A0104C06E015EE424
:101D9000C50ED11CF80160817181F60161157105D4
:101DA00019F44789508D02C0458956894E0D5F1D33
:101DB000443651054CF095FF23C0483EF3E05F07E1
:101DC0002CF047EE53E002C044E650E0C6010E940A
:101DD000F504CA14DB0419F468E070E002C060E4A2
:101DE00070E0482FCE01DF91CF911F910F91FF90AE
:101DF000EF90DF90CF90BF90AF909F900C94A80B86
:101E0000433C21E0520714F342EC51E0DFCFDF9175
:101E1000CF911F910F91FF90EF90DF90CF90BF90E7
:101E2000AF909F900895CF93DF93EC010E94320E04
:101E3000FE01E557FF4F808180FF1AC081FD18C069
:101E40008BA591E089278BA7FE01E25BFF4F848978
:101E50008927848B41E060E072E0CE010E94A80BEC
:101E600041E060E070E1CE01DF91CF910C94A80BCE
:101E7000DF91CF9108950F931F93CF93DF93EC01E0
:101E80000E94320E8E0105571F4FF801808191810B
:101E900095FD53C080FF51C02BA5CE01825B9F4FA3
:101EA000222329F04CA55DA561E070E007C0FC018C
:101EB0004589568961E070E0CE0147960E94F5049D
:101EC000F8014081518156954795F1E04F274170C7
:101ED00062E070E0CE010E94170CF80180819181D0
:101EE0009260918380830E949D17FE01E956FF4F07
:101EF0006083718382839383FE01E456FF4F1082D7
:101F0000F80100811181CE010E9471098823A9F096
:101F1000E801C270DD274C2F66E070E083E192E0BB
:101F20000E945F024D2F67E070E083E192E0DF9155
:101F3000CF911F910F910C945F02DF91CF911F9170
:101F40000F910895AF92BF92CF92EF920F93CF93DC
:101F5000DF93EC0183EE91E0FE01819391935F01A9
:101F60007CE0C72EEBE0EE2E0AE029E048E067E0D7
:101F7000C5010E943E08E12C04E024E043E062E059
:101F8000CE0181569F4F0E94DA00FE01E051FF4FC3
:101F90001082CF50DF4F188219821A821B8284E090
:101FA0000E94D118892B59F461E0C501DF91CF91CE
:101FB0000F91EF90CF90BF90AF900C941B0EDF91DC
:101FC000CF910F91EF90CF90BF90AF9008958F92E7
:101FD000AF92CF92EF920F931F93CF93DF93EC01C9
:101FE00011E11F93FEE08F2EA6E0AA2EBDE0CB2EBE
:101FF00000E1E02E0FE025E042E060E102960E9461
:10200000D10CC156DF4FD0931B02C0931A02E1E8F6
:10201000F0E080E180831092800021E0209316029E
:1020200080EA9FE0909318028093170290938700B4
:102030008093860010838EEA94E09093150280933B
:10204000140220936F000F90DF91CF911F910F9199
:10205000EF90CF90AF908F900895BF92CF92DF9284
:10206000EF92FF920F931F93CF93DF93C62EB42E60
:10207000BB0CBB0CB20E8C010E5F1F4F40E06B2DF2
:10208000C8010E94130383E0C89E70011124C70198
:1020900085559E4F7C01C0E0D0E0D12CF701EC0FBC
:1020A000FD1F6081C8010E945C042196C330D105E8
:1020B000A9F741E06B2DC8010E941303E601CC0F84
:1020C000DD1FCC0DDD1DC957DE4FE12CF12CFE01CB
:1020D000EE0DFF1D6081C8010E945C049FEFE91AAC
:1020E000F90A83E0E816F10491F7DF91CF911F918F
:1020F0000F91FF90EF90DF90CF90BF9008959F9247
:10210000AF92BF92CF92DF92EF92FF920F931F9305
:10211000CF93DF9300D000D01F92CDB7DEB77C0104
:102120008B01942EA22E77FD1AC06436710554F4EB
:102130008AE389836A3071054CF48A83BE016D5F3E
:102140007F4F07C0BE016F5F7F4F03C0BE016E5F50
:102150007F4F4AE050E0C8010E94A42105C08BE3F4
:1021600089838A838B831C82CE0101966C01B12CFA
:10217000F60161916F01662359F04B2D490D6053B3
:102180002A2DC7010E942D10B394F4E0BF12F0CFA6
:1021900082E0E80EF11C692D6B0D660F660F6A0D6B
:1021A00040E0C7010E94130317FD02C06FED01C09C
:1021B00060E2C7010E945C040F900F900F900F9097
:1021C0000F90DF91CF911F910F91FF90EF90DF90D3
:1021D000CF90BF90AF909F900895FF920F931F9361
:1021E000CF93DF93EA018C010E5F1F4F462F62E011
:1021F000C8010E94130392E0F92E29968F2D90E0DA
:10220000C817D90734F060E2C8010E945C04F39457
:10221000F5CFDF91CF911F910F91FF9008959F927D
:10222000AF92BF92CF92DF92EF92FF920F931F93E4
:10223000CF93DF93CDB7DEB760970FB6F894DEBFCC
:102240000FBECDBF5C016B017A01922E40E050E0E1
:10225000622F0E94ED1085010E5F1F4F8FEFE81671
:10226000F80679F4CD2811F462E001C065E0492D4B
:10227000C8010E94130361E870E0C8010E94811B3D
:1022800033C0C114D104B9F0FF92EF9287E591E019
:102290009F938F931F928FE08F93CE0101969F9310
:1022A0008F930E94C52168E0681B0FB6F894DEBFCB
:1022B0000FBECDBF01C062E0492DC8010E941303CB
:1022C0004AE050E0B701C8010E94521CF501E557F1
:1022D000FF4F8081918195FF03C0CA94CD2821F4DE
:1022E0006FEDC8010E945C0460960FB6F894DEBFE3
:1022F0000FBECDBFDF91CF911F910F91FF90EF9057
:10230000DF90CF90BF90AF909F9008958F929F9253
:10231000AF92BF92DF92EF92FF920F931F93CF93F2
:10232000DF938C010E949D17780125E8E20EF11CD5
:10233000D7012D913C91E801C557DF4FF801E157D6
:10234000FF4F21303105D9F02881398134FD17C084
:1023500020723170232B99F480809180A280B38009
:102360009B01AC01281939094A095B0949015A0145
:1023700039EC83169104A104B10408F4DDC1608333
:10238000718382839383888199819C012470332790
:1023900080FF02C081FFA1C0232B31F08B7F998386
:1023A00088839924939401C0912C8881998191FD0F
:1023B00002C0992049F09D7F99838883C8010296C5
:1023C0000E940C0399249394F801E55BFF4FD080A1
:1023D00028813981A9014170552720FF05C0F801E6
:1023E000E25BFF4FE4A901C0E0E0D7018D919C9131
:1023F0008130910519F468E070E002C060E170E09E
:1024000062237323672B99F44115510561F08130E4
:10241000910519F468E070E002C060E870E02623DE
:102420003723232B21F4911002C0912C46C1DD20CB
:1024300041F0D8019E966D917C919F97452B79F044
:1024400004C0452BA9F06FEF7FEFEE23B9F0F80140
:10245000E25BFF4F2789308DD11005C00DC0EE2300
:1024600089F02FEF3FEF620F731F759567950AC0D4
:10247000EE2331F02FEF3FEFB90104C0D11002C0BD
:102480006FEF7FEF009729F0F80164A575A501971C
:1024900011F020E001C022E040E0C8010E947F105E
:1024A000D7018D919C918130910519F428E030E09D
:1024B00002C020E130E020953095488159812423E5
:1024C0003523019719F480E490E002C080E890E0A1
:1024D0008095909582239323EEC0232B31F08B7F40
:1024E000998388839924939401C0912C8881998140
:1024F00091FD02C0992049F09D7F99838883C8018E
:1025000002960E940C03992493948881998195FFE7
:1025100010C0992071F040E06BE05801B2E0AB0EC2
:10252000B11CC5010E9413036DE770E0C5010E9454
:10253000811B88819981F70160817181613071050A
:1025400019F428E030E002C020E130E028233923EC
:10255000232B11F49920B1F195FF0AC06115710583
:10256000A9F4D801D1964C91D197D2965C9114C020
:102570006115710559F4F80146A557A5E55BFF4FB4
:102580008081811109C04FEF5FEF06C0D8019C9692
:102590004C919C979D965C9120E0C8010E940F1180
:1025A000F70180819181019719F488E090E002C0E1
:1025B00080E190E080959095288139818223932352
:1025C0009983888388819981D7016D917C9161304D
:1025D000710519F420E430E002C020E830E028233F
:1025E0003923232B11F4992071F1F801E25BFF4F9D
:1025F00095FF06C06115710571F4428D538D0DC0B4
:102600006115710541F44789508D84A9811105C078
:102610004FEF5FEF02C04589568921E0C8010E9453
:102620000F11F70180819181019719F480E490E006
:1026300002C080E890E080959095288139818223BE
:102640009323998388838881998194FD03C099207D
:1026500009F4EBCED8019B96DC904D2D60E058013B
:10266000B2E0AB0EB11CC5010E94130360E2C501CC
:102670000E945C044D2D6AE0C5010E94130360E2D4
:10268000C5010E945C04882483948D24482D60E059
:10269000C5010E9413036BE5C5010E945C04482D2F
:1026A0006AE0C5010E9413036DE5C5010E945C0448
:1026B000888199819F7E998388838881998193FD00
:1026C00002C0992029F181FF05C0F7018081918125
:1026D000892BF1F47801F2E0EF0EF11CF801E357D9
:1026E000FF4F6081645041E0C7010E94130388815D
:1026F000998192FF03C068E770E002C063E770E071
:10270000C7010E94811B88819981977F9983888363
:102710008881998185FD02C0992019F08F7D998368
:1027200088838881998180FF07C090FD02C099202D
:1027300019F09E7F99838883DF91CF911F910F912C
:10274000FF90EF90DF90BF90AF909F908F90089593
:102750006F927F928F929F92AF92BF92CF92DF92B1
:10276000EF92FF920F931F93CF93DF93EC017C01C5
:102770002CE9E20EF11CF70180818111ADC00E94AD
:102780009D17FE01E956FF4F00811181228133819F
:10279000601B710B820B930B6133754781059105AB
:1027A00008F49AC0772473940E949D174B015C0132
:1027B000FE01ED56FF4F80819181A281B381A50179
:1027C0009401281B390B4A0B5B0BDA01C901AE01DE
:1027D000495E5F4F6A018E0105571F4F893C910585
:1027E000A105B10500F180829182A282B382B50178
:1027F000A401C6010E94F606482F60E170E0CE01F8
:102800000E94A80BF801808180FF0DC0B501A401D2
:10281000CE01825B9F4F0E94F606482F60E870E071
:10282000CE010E94A80B6EA8B501A401C6010E94AA
:102830008405681631F0F80180819181806291836E
:102840008083F801808180FF11C0CE01825B9F4FA1
:10285000FC01D78CB501A4010E948405D81631F083
:10286000F80180819181916091838083772019F1B3
:10287000F8018081918195FD1BC08BAD882341F0CB
:102880004CA55DA569E070E0CE010E94260A1BAE52
:102890008E01025B1F4FF80184A1882349F045890E
:1028A00056896CE070E0CE010E94260AF80114A25D
:1028B00081E0F7018083CE01DF91CF911F910F91CD
:1028C000FF90EF90DF90CF90BF90AF909F908F9050
:1028D0007F906F900C948611712C66CF2F923F924F
:1028E0004F925F926F927F928F929F92AF92BF9220
:1028F000CF92DF92EF92FF920F931F93CF93DF93CC
:10290000CDB7DEB72C970FB6F894DEBF0FBECDBFA4
:102910008C01EDB6FEB68BE292E00E94911A8823FC
:1029200009F4BEC18BE292E00E94FA18181619064B
:102930000CF0B6C1180120EF220E311C8BE292E0A0
:102940000E94FA18181619060CF0AAC1F101C080ED
:10295000D12C8BE292E00E942719C00ED11EF60105
:10296000E055FF4F8083F1012081C801820F911D46
:10297000FC01E055FF4F30813A3031F02F3321F028
:102980002F5FF1012083DACFFC01E055FF4F108269
:102990002330B0F06AE370E0C80180559F4F0E9479
:1029A00089216C01009761F04C01FFEF8F1A9F0A9B
:1029B0006AE370E0C4010E9489217C01009731F52F
:1029C00080E0F1011082882319F06AE571E002C00D
:1029D00061E671E08BE292E02C960FB6F894DEBFD0
:1029E0000FBECDBFDF91CF911F910F91FF90EF9060
:1029F000DF90CF90BF90AF909F908F907F906F901F
:102A00005F904F903F902F900C94A61B2DB73EB730
:102A10003A8729878C199D095C0131E0A31AB10816
:102A2000EDB7FEB7E81BF90B0FB6F894FEBF0FBE6B
:102A3000EDBF2DB73EB72F5F3F4F6901A501B40130
:102A4000C9010E948021F601EA0DFB1D10826AE394
:102A50008BE292E00E94A81B61E871E0C6010E942F
:102A60009421892B09F0AAC02FEFE21AF20A69E635
:102A700071E0C7010E949421892B51F40E5F1F4F12
:102A800060E0C8010E941B0EC8010E948E0C84C029
:102A90006DE671E0C7010E949421892B89F40E5FD5
:102AA0001F4F60E0C8010E941B0E60E070E0C8018B
:102AB0000E94080E61E070E0C8010E94080E6CC020
:102AC00062E771E0C7010E949421892B09F066C07A
:102AD0000E5F1F4F60E070E0C8010E94590C29830F
:102AE0003A834B835C836D837E838F839887898051
:102AF0009A80AB80BC80CD80DE80EF80F88460E778
:102B000070E08BE292E00E94811B29E030E0B50189
:102B1000A4018BE292E00E94591D6EE670E08BE208
:102B200092E00E94811B29E030E0B701A6018BE210
:102B300092E00E94591D61E070E0C8010E94590CAA
:102B400029833A834B835C836D837E838F8398874D
:102B500089809A80AB80BC80CD80DE80EF80F88455
:102B60006AE670E08BE292E00E94811B29E030E08F
:102B7000B501A4018BE292E00E94591D68E670E065
:102B80008BE292E00E94811B29E030E0B701A601B0
:102B90008BE292E00E94591D81E017C06AE370E069
:102BA000C7010E9489215C01009771F06CE270E01E
:102BB0000E9489214C01009781F406C069E771E009
:102BC0008BE292E00E94A61B80E0E985FA850FB6B1
:102BD000F894FEBF0FBEEDBFF4CE2DB73EB73C87D5
:102BE0002B873FEFA31AB30AC5018E199F093C0139
:102BF000E1E06E1A71082DB73EB7281B390B0FB6EE
:102C0000F8943EBF0FBE2DBF8DB79EB701966C01E5
:102C1000A301B7010E948021F601E60DF71D108285
:102C2000F40111924F01C5010E9474212B013C0156
:102C3000C4010E9474214B015C0165E871E0C6018A
:102C40000E949421892B79F4F801EC5BFF4F4082BC
:102C5000518262827382F801E85BFF4F8082918229
:102C6000A282B38212C067E771E0C6010E9494217C
:102C7000892B69F4F801E05BFF4F43A654A665A6D3
:102C800076A687A690AAA1AAB2AA81E001C080E098
:102C90002B853C850FB6F8943EBF0FBE2DBF95CF58
:102CA0000FB6F894FEBE0FBEEDBE2C960FB6F8948C
:102CB000DEBF0FBECDBFDF91CF911F910F91FF906F
:102CC000EF90DF90CF90BF90AF909F908F907F90CC
:102CD0006F905F904F903F902F9008958C01EC0182
:102CE0002296CE010E94930B78012FE9E20EF11C8F
:102CF00058013DE8A30EB11C680141EFC40ED11C80
:102D0000C7010E94F2013C01CE010E94EB0B61144D
:102D1000710439F0B301CE010E943B0ECE010E9436
:102D2000930BC7010E942A020097E1F085309105BC
:102D300049F08630910551F00397A1F4CE010E942D
:102D40003B0F08C0CE010E94130F0CC0CE010E94A1
:102D50002C0C08C0CE010E94A813C7010E942A02B1
:102D60000397C1F3CE010E94A813F50180819181E0
:102D700095FFC6CF0E949D17F6014080518062806A
:102D800073809B01AC0124193509460957092901B3
:102D90003A013DE2431631E053066104710408F440
:102DA000AFCF6083718382839383C8010E946E14C6
:102DB000A7CFCF93DF9340E051EE60E070E08BE26D
:102DC00092E00E94101A85EF90E00E943F1BEC01F8
:102DD0000E94A20FD0931D02C0931C02CE01DF916E
:102DE000CF910C94E70F80911C0290911D020C94DE
:102DF0006E161F920F920FB60F9211242F933F93CE
:102E00004F935F936F937F938F939F93AF93BF93F2
:102E1000EF93FF9380911E0290911F02892B29F05E
:102E2000E0911E02F0911F020995FF91EF91BF9171
:102E3000AF919F918F917F916F915F914F913F9152
:102E40002F910F900FBE0F901F9018951F920F9209
:102E50000FB60F9211242F933F934F935F936F936D
:102E60007F938F939F93AF93BF93EF93FF93809143
:102E7000200290912102892B29F0E0912002F0910B
:102E800021020995FF91EF91BF91AF919F918F9191
:102E90007F916F915F914F913F912F910F900FBE56
:102EA0000F901F9018951F920F920FB60F9211243A
:102EB0002F933F938F939F93AF93BF938091230260
:102EC00090912402A0912502B09126023091220215
:102ED00020E3230F2D3720F44096A11DB11D05C01E
:102EE00023EB230F4196A11DB11D20932202809355
:102EF000230290932402A0932502B093260280918E
:102F0000270290912802A0912902B0912A020196ED
:102F1000A11DB11D8093270290932802A09329023E
:102F2000B0932A02BF91AF919F918F913F912F91C2
:102F30000F900FBE0F901F9018952FB7F8946091C7
:102F400023027091240280912502909126022FBFC6
:102F500008953FB7F8948091270290912802A0919C
:102F60002902B0912A0226B5A89B02C02F3F89F4FE
:102F70003FBF6627782F892F9A2F620F711D811D01
:102F8000911D46E0660F771F881F991F4A95D1F75C
:102F900008950196A11DB11DEBCFCF92DF92EF9264
:102FA000FF92CF93DF936B017C010E94A917EB0185
:102FB000C114D104E104F10479F00E94A9176C1B3B
:102FC0007D0B683E7340A0F381E0C81AD108E10888
:102FD000F108C851DC4FECCFDF91CF91FF90EF901B
:102FE000DF90CF9008950197009739F0880F991FCF
:102FF000880F991F02970197F1F70895789484B587
:10300000826084BD84B5816084BD85B5826085BDE4
:1030100085B5816085BDEEE6F0E0808181608083CA
:10302000E1E8F0E0108280818260808380818160AD
:103030008083E0E8F0E0808181608083E1EBF0E074
:10304000808184608083E0EBF0E080818160808318
:10305000EAE7F0E080818460808380818260808301
:103060008081816080838081806880831092C1002C
:103070000895833081F028F4813099F08230A1F0F6
:1030800008958630A9F08730B9F08430D1F480916A
:1030900080008F7D03C0809180008F7780938000B7
:1030A000089584B58F7702C084B58F7D84BD08955F
:1030B0008091B0008F7703C08091B0008F7D8093A6
:1030C000B0000895CF93DF9390E0FC01E752FF4FEB
:1030D0002491FC01E351FF4F8491882349F190E052
:1030E000880F991FFC01EB5EFE4FA591B491855F9F
:1030F0009E4FFC01C591D4919FB7611108C0F8940F
:103100008C91209582238C93888182230AC062301F
:1031100051F4F8948C91322F309583238C938881CD
:10312000822B888304C0F8948C91822B8C939FBF50
:10313000DF91CF9108950F931F93CF93DF931F9249
:10314000CDB7DEB7282F30E0F901EB53FF4F849164
:10315000F901E752FF4F1491F901E351FF4F049138
:103160000023C9F0882321F069830E9439186981FE
:10317000E02FF0E0EE0FFF1FE55FFE4FA591B49149
:103180009FB7F8948C91611103C01095812301C001
:10319000812B8C939FBF0F90DF91CF911F910F9147
:1031A0000895CF93DF93282F30E0F901EB53FF4FC1
:1031B0008491F901E752FF4FD491F901E351FF4F98
:1031C000C491CC2391F081110E943918EC2FF0E0CA
:1031D000EE0FFF1FEF5FFE4FA591B4912C912D23B1
:1031E00081E090E021F480E002C080E090E0DF9197
:1031F000CF910895FC0124853585F901E05CFF4FEE
:1032000080819181F901EE5BFF4F20813181821B2A
:10321000930B8F7399270895FC0184859585FC0194
:10322000E05CFF4F40815181FC01EE5BFF4F20814C
:1032300031814217530741F00190F081E02DE80FF2
:10324000F91F808190E008958FEF9FEF0895FC01B2
:1032500084859585FC01E05CFF4F40815181FC0134
:10326000EE5BFF4F208131814217530779F0A08137
:10327000B181A80FB91F8C91208131812F5F3F4F01
:103280002F7333273183208390E008958FEF9FEFD2
:103290000895FC0181A1882329F0A489B5898C9126
:1032A00086FFFBCF11A20895CF93DF93FC01268503
:1032B0003785D901A05CBF4F8D919C9111970196E4
:1032C0008F739927E901CE5BDF4F488159818417BD
:1032D0009507D9F30D90BC91A02DA20FB31F6C934D
:1032E000A685B785A05CBF4F11969C938E93A68947
:1032F000B7892C9181E090E0078C02C0880F991F5C
:103300000A94E2F7282B2C9381E081A30488F589A5
:10331000E02D80818064808381E090E0DF91CF9117
:10332000089508951F920F920FB60F9211242F93B4
:103330003F934F938F939F93EF93FF938091C000A0
:1033400082FD1CC04091C6008091D1029091D202B2
:1033500001968F7399272091D3023091D40282175E
:10336000930771F0E091D102F091D202EF56FD4F38
:1033700040839093D2028093D10202C08091C60014
:10338000FF91EF919F918F914F913F912F910F90CE
:103390000FBE0F901F9018958BE292E00E94FA18D2
:1033A000892B11F00C94911908951F920F920FB66A
:1033B0000F9211242F933F938F939F93EF93FF933B
:1033C00020918D0230918E0280918F029091900217
:1033D0002817390731F48091C1008F7D8093C10097
:1033E00014C0E0918F02F0919002E35BFD4F2081C9
:1033F00080918F029091900201968F7399279093FC
:10340000900280938F022093C600FF91EF919F91CD
:103410008F913F912F910F900FBE0F901F90189595
:10342000CF92DF92EF92FF92CF93DF93EC016A018C
:103430007B01411581EE580761057105F9F0EC89B2
:10344000FD8981E090E008A002C0880F991F0A94CE
:10345000E2F7808360E079E08DE390E0A7019601D8
:103460000E94F71D21503109410951095695479590
:1034700037952795211580E1380798F0EC89FD896B
:10348000108260E874E88EE190E0A70196010E9446
:10349000F71D215031094109510956954795379536
:1034A0002795E889F9893083EA89FB89208319A265
:1034B000EE89FF89408181E090E09C010C8C02C084
:1034C000220F331F0A94E2F7422B4083EE89FF89D3
:1034D00040819C010D8C02C0220F331F0A94E2F739
:1034E000422B4083EE89FF8940819C010E8C02C0F3
:1034F000220F331F0A94E2F7422B4083EE89FF89A3
:1035000020810F8C02C0880F991F0A94E2F78095E2
:1035100082238083DF91CF91FF90EF90DF90CF9057
:10352000089581E0089510922E0210922D0288EEE7
:1035300093E0A0E0B0E080932F0290933002A0933C
:103540003102B09332028BEE91E090932C02809383
:103550002B0281E992E090933802809337028DE448
:1035600092E090933A028093390285EC90E0909338
:103570003C0280933B0284EC90E090933E02809367
:103580003D0280EC90E09093400280933F0281ECFA
:1035900090E0909342028093410282EC90E09093FD
:1035A00044028093430286EC90E09093460280931D
:1035B000450284E08093470283E08093480287E0DD
:1035C0008093490285E080934A0281E080934B0218
:1035D0000895AF92BF92CF92DF92EF92FF920F9336
:1035E0001F93CF93DF936C017B01C0E0D0E000E03C
:1035F00010E0F601EC0FFD1F4AE050E06281C701C8
:103600000E94671C5C016EE2C7010E94A81B8A0D24
:103610009B1D080F191F2196C330D10551F74AE0B1
:1036200050E0F6016581C7010E94671C800F911F61
:10363000DF91CF911F910F91FF90EF90DF90CF908E
:10364000BF90AF9008958BEF91E09093D602809356
:10365000D5021092D7021092D8021092D90210927D
:10366000DA0208950E94FE170E94D916CCECD9E127
:103670000E94F3162097E1F30E94CC19F9CF0C9425
:103680004D200C94E520CF92DF92EF92FF920F93A2
:103690001F93CF93DF936C017A01EB01E60EF71EC7
:1036A00000E010E0CE15DF0561F06991D601ED91E3
:1036B000FC910190F081E02DC6010995080F191FBA
:1036C000F1CFC801DF91CF911F910F91FF90EF9043
:1036D000DF90CF9008956115710581F0DB010D90A9
:1036E0000020E9F7AD0141505109461B570BDC01A1
:1036F000ED91FC910280F381E02D099480E090E04F
:103700000895EF92FF920F931F93CF93DF938C0155
:10371000FB01C0E0D0E064917F018FEFE81AF80A66
:10372000662361F0D801ED91FC910190F081E02DCC
:10373000C8010995C80FD91FF701EDCFCE01DF9160
:10374000CF911F910F91FF90EF9008950C946B1BF8
:10375000DC01ED91FC910190F081E02D09948F92B4
:103760009F92AF92BF92CF92DF92EF92FF920F9310
:103770001F93CF93DF93CDB7DEB7A1970FB6F89421
:10378000DEBF0FBECDBF7C01C42EE52FCB01D22EF4
:1037900019A221E02D1510F02AE0D22E8E010F5D26
:1037A0001F4F8D2C912CA12CB12C6C2D7E2FA5019F
:1037B00094010E94F71D8C2DD29E80191124015076
:1037C00011098A3014F4805D01C0895CF80180839E
:1037D000211531054105510521F0C22EE32FCA0103
:1037E000E4CFB801C7010E946B1BA1960FB6F894F5
:1037F000DEBF0FBECDBFDF91CF911F910F91FF9024
:10380000EF90DF90CF90BF90AF909F908F900895F2
:10381000CF92DF92EF92FF920F931F93CF93DF939C
:10382000EC016A017B012115310579F4E881F98108
:103830000190F081E02D642FDF91CF911F910F91C6
:10384000FF90EF90DF90CF9009942A303105E9F492
:1038500077FF1AC06DE20E94A81B8C0144275527F0
:10386000BA014C195D096E097F092AE0CE010E9458
:10387000AF1B800F911FDF91CF911F910F91FF9090
:10388000EF90DF90CF9008952AE0B701A601CE0116
:10389000DF91CF911F910F91FF90EF90DF90CF902C
:1038A0000C94AF1B9A01AB01662757FD6095762FEC
:1038B0000C94081C2115310541F4DC01ED91FC91BB
:1038C0000190F081E02D642F09940C94AF1B9A01B4
:1038D000462F50E060E070E00C945A1C4F925F92CB
:1038E0006F927F928F929F92AF92BF92CF92DF9210
:1038F000EF92FF920F931F93CF93DF93EC016A0136
:103900007B01B22E9A01AB01C701B6010E9449208A
:10391000882319F06DEF71E027C026013701E89484
:1039200077F82FEF3FEF4FE75FE7C301B2010E9447
:10393000492081110DC02FEF3FEF4FE75FE7C30133
:10394000B2010E94931E18161CF461E072E00CC0D4
:103950002FEF3FEF4FE75FE4C701B6010E94E21F80
:103960001816ACF465E072E0CE01DF91CF911F91A3
:103970000F91FF90EF90DF90CF90BF90AF909F900E
:103980008F907F906F905F904F900C946B1B2FEFF8
:103990003FEF4FE75FECC701B6010E94931E87FD22
:1039A000E1CF20E030E0A901C701B6010E94931EDB
:1039B00087FF0AC06DE2CE010E94A81B8C01F7FAB6
:1039C000F094F7F8F09402C000E010E0A12C60E061
:1039D00070E080E09FE3AB1441F020E030E040E293
:1039E00051E40E94971EA394F6CF9B01AC01C7013E
:1039F000B6010E942F1E6B017C010E94041F2B0147
:103A00003C010E94301F9B01AC01C701B6010E941E
:103A10002E1E6B017C012AE0B301A201CE010E949F
:103A2000AF1B080F191FBB2039F069E072E0CE010F
:103A30000E946B1B080F191F7B2C772041F120E09F
:103A400030E040E251E4C701B6010E94E61F6B017D
:103A50007C010E94FF1E4B01AA2497FCA094BA2C63
:103A60002AE030E0B501A401CE010E94081C080F35
:103A7000191FC501B4010E94321F9B01AC01C7018F
:103A8000B6010E942E1E6B017C017A94D6CFC8012C
:103A9000DF91CF911F910F91FF90EF90DF90CF902A
:103AA000BF90AF909F908F907F906F905F904F905E
:103AB00008950C946E1C813039F018F0823051F06A
:103AC000089510926E00089580916F008D7F80930D
:103AD0006F000895809170008D7F8093700081E069
:103AE0008093B0008091B100887F84608093B100A2
:103AF0001092B3000895CF93C82F80910A018C13C0
:103B000007C0EFE1F1E084919FEF90930A0101C0BB
:103B10008FEF0E945B1D60E08C2FCF910C949B185F
:103B20001F920F920FB60F9211242F933F934F9332
:103B30005F936F937F938F939F93AF93BF93EF9315
:103B4000FF938091DE029091DF02A091E002B0919C
:103B5000E102892B8A2B8B2B51F19091DB02E091B2
:103B6000DC02F091DD028081892780838091DE0272
:103B70009091DF02A091E002B091E10218161906BF
:103B80001A061B06C4F48091DE029091DF02A09118
:103B9000E002B091E1020197A109B1098093DE0230
:103BA0009093DF02A093E002B093E10204C0809101
:103BB0000A010E947B1DFF91EF91BF91AF919F91F0
:103BC0008F917F916F915F914F913F912F910F90C6
:103BD0000FBE0F901F9018950E94191EA59F900D63
:103BE000B49F900DA49F800D911D11240895A1E212
:103BF0001A2EAA1BBB1BFD010DC0AA1FBB1FEE1F67
:103C0000FF1FA217B307E407F50720F0A21BB30BB1
:103C1000E40BF50B661F771F881F991F1A9469F72D
:103C200060957095809590959B01AC01BD01CF0189
:103C30000895A29FB001B39FC001A39F700D811D85
:103C40001124911DB29F700D811D1124911D0895A5
:103C5000EE0FFF1F0590F491E02D09945058BB27FB
:103C6000AA270ED075C166D130F06BD120F031F4A7
:103C70009F3F11F41EF45BC10EF4E095E7FB51C1C8
:103C8000E92F77D180F3BA17620773078407950786
:103C900018F071F49EF58FC10EF4E0950B2EBA2F3B
:103CA000A02D0B01B90190010C01CA01A001112442
:103CB000FF27591B99F0593F50F4503E68F11A16EE
:103CC000F040A22F232F342F4427585FF3CF46957F
:103CD00037952795A795F0405395C9F77EF41F16A1
:103CE000BA0B620B730B840BBAF09150A1F0FF0F6B
:103CF000BB1F661F771F881FC2F70EC0BA0F621F57
:103D0000731F841F48F4879577956795B795F79546
:103D10009E3F08F0B3CF9395880F08F09927EE0FD8
:103D2000979587950895D9D008F481E008950CD02F
:103D30000FC107D140F0FED030F021F45F3F19F001
:103D4000F0C0511139C1F3C014D198F39923C9F3CC
:103D50005523B1F3951B550BBB27AA276217730791
:103D6000840738F09F5F5F4F220F331F441FAA1F45
:103D7000A9F333D00E2E3AF0E0E830D09150504005
:103D8000E695001CCAF729D0FE2F27D0660F771FB3
:103D9000881FBB1F261737074807AB07B0E809F095
:103DA000BB0B802DBF01FF2793585F4F2AF09E3F2A
:103DB000510568F0B6C000C15F3FECF3983EDCF3FC
:103DC000869577956795B795F7959F5FC9F7880FA3
:103DD000911D9695879597F90895E1E0660F771FF5
:103DE000881FBB1F621773078407BA0720F0621B86
:103DF000730B840BBA0BEE1F88F7E095089504D07F
:103E00006894B111D9C00895BCD088F09F5790F044
:103E1000B92F9927B751A0F0D1F0660F771F881FEF
:103E2000991F1AF0BA95C9F712C0B13081F0C3D00A
:103E3000B1E00895C0C0672F782F8827B85F39F0A8
:103E4000B93FCCF3869577956795B395D9F73EF44E
:103E500090958095709561957F4F8F4F9F4F0895F6
:103E6000E89409C097FB3EF4909580957095619514
:103E70007F4F8F4F9F4F9923A9F0F92F96E9BB27CA
:103E80009395F695879577956795B795F111F8CF46
:103E9000FAF4BB0F11F460FF1BC06F5F7F4F8F4FB1
:103EA0009F4F16C0882311F096E911C0772321F0A7
:103EB0009EE8872F762F05C0662371F096E8862F3F
:103EC00070E060E02AF09A95660F771F881FDAF796
:103ED000880F9695879597F90895990F0008550FC3
:103EE000AA0BE0E8FEEF16161706E807F907C0F080
:103EF00012161306E407F50798F0621B730B840B88
:103F0000950B39F40A2661F0232B242B252B21F461
:103F100008950A2609F4A140A6958FEF811D811D01
:103F2000089597F99F6780E870E060E008959FEF3B
:103F300080EC089500240A94161617061806090640
:103F4000089500240A94121613061406050608950F
:103F5000092E0394000C11F4882352F0BB0F40F497
:103F6000BF2B11F460FF04C06F5F7F4F8F4F9F4FD7
:103F7000089557FD9058440F551F59F05F3F71F059
:103F80004795880F97FB991F61F09F3F79F08795C0
:103F90000895121613061406551FF2CF4695F1DF49
:103FA00008C0161617061806991FF1CF86957105D9
:103FB000610508940895E894BB2766277727CB010D
:103FC00097F908958ADF08F48FEF08950BD0C0CFDA
:103FD000B1DF28F0B6DF18F0952309F0A2CFA7CF04
:103FE0001124EACFC6DFA0F3959FD1F3950F50E0DF
:103FF000551F629FF001729FBB27F00DB11D639F9B
:10400000AA27F00DB11DAA1F649F6627B00DA11D40
:10401000661F829F2227B00DA11D621F739FB00DE6
:10402000A11D621F839FA00D611D221F749F332756
:10403000A00D611D231F849F600D211D822F762FEF
:104040006A2F11249F5750408AF0E1F088234AF0EC
:10405000EE0FFF1FBB1F661F771F881F9150504038
:10406000A9F79E3F510570F05CCFA6CF5F3FECF300
:10407000983EDCF3869577956795B795F795E79524
:104080009F5FC1F7FE2B880F911D9695879597F935
:10409000089523DF880B990B0895CF93DF93823027
:1040A000910510F482E090E0E091E402F091E502E5
:1040B00020E030E0A0E0B0E0309739F1408151815C
:1040C00048175907B8F04817590771F4828193814E
:1040D000109729F013969C938E9312972CC090936F
:1040E000E5028093E40227C02115310531F0421723
:1040F000530718F0A901DB0101C0EF019A01BD01CE
:10410000DF010280F381E02DD7CF21153105F9F0D1
:10411000281B390B2430310580F48A819B8161157D
:10412000710521F0FB019383828304C09093E50223
:104130008093E402FE01329644C0FE01E20FF31FB9
:104140008193919322503109398328833AC0209179
:10415000E2023091E302232B41F4209102013091DD
:1041600003013093E3022093E20220910001309199
:1041700001012115310541F42DB73EB740910401ED
:1041800050910501241B350BE091E202F091E3020E
:10419000E217F307A0F42E1B3F0B2817390778F01E
:1041A000AC014E5F5F4F2417350748F04E0F5F1F7D
:1041B0005093E3024093E2028193919302C0E0E0C6
:1041C000F0E0CF01DF91CF910895CF93DF93009777
:1041D00009F487C0FC01329713821282C091E40275
:1041E000D091E502209781F420813181280F391F79
:1041F0008091E2029091E3028217930779F5F093A0
:10420000E302E093E2026DC0DE0120E030E0AE1791
:10421000BF0750F412964D915C9113979D01411583
:10422000510509F1DA01F3CFB383A28340815181B3
:10423000840F951F8A179B0771F48D919C9111979C
:10424000840F951F02969183808312968D919C9185
:104250001397938382832115310529F4F093E502A6
:10426000E093E4023EC0D9011396FC93EE931297BB
:104270004D915D91A40FB51FEA17FB0779F480817A
:104280009181840F951F0296D90111969C938E936C
:104290008281938113969C938E931297E0E0F0E0D5
:1042A0008A819B81009719F0FE01EC01F9CFCE01C4
:1042B000029628813981820F931F2091E20230916A
:1042C000E3022817390769F4309729F41092E502C0
:1042D0001092E40202C013821282D093E302C093D0
:1042E000E202DF91CF910895662777270C94DD23B2
:1042F0009111CAC3803219F089508550D0F70895C2
:10430000FB01DC0102C001900D9241505040D8F7F2
:104310000895FC018191861721F08823D9F7992708
:1043200008953197CF010895FB01DC018D91019033
:1043300080190110D9F3990B0895FB01DC0101905C
:104340000D920020E1F70895FB019F01E8944230AF
:10435000C4F04532B4F44A3029F497FB1EF490952A
:1043600081959F4F642F77270E941526805D8A33A1
:104370000CF0895D8193CB010097A1F716F45DE203
:1043800051931082C9010C947525AEE0B0E0EBECBE
:10439000F1E20C9437260D891E898F89988D26E0CD
:1043A0002C831A83098397FF02C080E090E801976D
:1043B0009E838D83AE01455E5F4F698D7A8DCE0100
:1043C00001960E94F5214D815E8157FD0AC02F8123
:1043D0003885421753070CF49A01F801E20FF31FD6
:1043E00010822E96E4E00C945326ACE0B0E0EBEFA4
:1043F000F1E20C9429267C016B018A01FC011782F1
:104400001682838181FFBDC1CE0101964C01F70167
:104410009381F60193FD859193FF81916F0188232C
:1044200009F4ABC1853239F493FD859193FF8191F5
:104430006F01853229F4B70190E00E948525E7CF0E
:10444000512C312C20E02032A0F48B3269F030F472
:10445000803259F0833269F420612CC08D3239F0FA
:10446000803339F4216026C02260246023C0286094
:1044700021C027FD27C030ED380F3A3078F426FFF1
:1044800006C0FAE05F9E300D1124532E13C08AE05F
:10449000389E300D1124332E20620CC08E3221F450
:1044A00026FD6BC1206406C08C3611F4206802C062
:1044B000883641F4F60193FD859193FF81916F0158
:1044C0008111C1CF982F9F7D9554933028F40C5FB4
:1044D0001F4FFFE3F9830DC0833631F0833771F04E
:1044E000833509F05BC022C0F801808189830E5FAB
:1044F0001F4F44244394512C540115C03801F2E05D
:104500006F0E711CF801A080B18026FF03C0652DDD
:1045100070E002C06FEF7FEFC5012C870E946A2513
:104520002C0183012C852F77222E17C03801F2E051
:104530006F0E711CF801A080B18026FF03C0652DAD
:1045400070E002C06FEF7FEFC5012C870E945F25EE
:104550002C012C852068222E830123FC1BC0832D77
:1045600090E048165906B0F4B70180E290E00E944E
:1045700085253A94F4CFF50127FC859127FE81919A
:104580005F01B70190E00E94852531103A94F1E077
:104590004F1A51084114510471F7E5C0843611F0E7
:1045A000893639F5F80127FF07C060817181828162
:1045B00093810C5F1F4F08C060817181882777FD50
:1045C0008095982F0E5F1F4F2F76B22E97FF09C050
:1045D00090958095709561957F4F8F4F9F4F206884
:1045E000B22E2AE030E0A4010E94B725A82EA81818
:1045F00044C0853729F42F7EB22E2AE030E025C052
:10460000F22FF97FBF2E8F36C1F018F4883579F07C
:10461000B4C0803719F0883721F0AFC02F2F206148
:10462000B22EB4FE0DC08B2D8460B82E09C024FFBD
:104630000AC09F2F9660B92E06C028E030E005C062
:1046400020E130E002C020E132E0F801B7FE07C00F
:1046500060817181828193810C5F1F4F06C06081F0
:10466000718180E090E00E5F1F4FA4010E94B7258A
:10467000A82EA818FB2DFF77BF2EB6FE0BC02B2D42
:104680002E7FA51450F4B4FE0AC0B2FC08C02B2D36
:104690002E7E05C07A2C2B2D03C07A2C01C0752CE0
:1046A00024FF0DC0FE01EA0DF11D8081803311F45D
:1046B000297E09C022FF06C07394739404C0822F20
:1046C000867809F0739423FD13C020FF06C05A2C8E
:1046D000731418F4530C5718732C731468F4B7013F
:1046E00080E290E02C870E94852573942C85F5CF7D
:1046F000731410F4371801C0312C24FF12C0B70115
:1047000080E390E02C870E9485252C8522FF17C02E
:1047100021FF03C088E590E002C088E790E0B70180
:104720000CC0822F867859F021FD02C080E201C0C2
:104730008BE227FD8DE2B70190E00E948525A5144C
:1047400038F4B70180E390E00E9485255A94F7CFB2
:10475000AA94F401EA0DF11D8081B70190E00E9456
:104760008525A110F5CF332009F451CEB70180E2A1
:1047700090E00E9485253A94F6CFF70186819781D3
:1047800002C08FEF9FEF2C96E2E10C944526F99939
:10479000FECF92BD81BDF89A992780B50895262F46
:1047A000F999FECF1FBA92BD81BD20BD0FB6F89416
:1047B000FA9AF99A0FBE01960895A0E0B0E0E3EEF0
:1047C000F3E20C942B268B016115710521F0DB01BE
:1047D0008C9311969C93EC015E01BFEFAB1ABB0A60
:1047E0007501C8808C2D90E00E947821892B11F0F2
:1047F000E501F2CFEDE2CE1208C07E01F2E0EF0E4D
:10480000F11CC980DD24D39409C02BE2C21205C07B
:104810007E0142E0E40EF11CC980D12CE701219712
:1048200043E050E068E271E0CE010E944725892B09
:10483000D1F4E701229645E050E063E271E0CE0159
:104840000E944725892B11F4E701279601151105D0
:1048500019F0D801CD93DC93D11008C160E070E06D
:1048600080E89FE70CC143E050E060E271E0CE01D8
:104870000E944725892B59F40115110509F4FBC045
:10488000B2E0EB0EF11CF801F182E082F4C0F70116
:1048900060E070E0CB01C0E0D0E07F01A0EDAA2E87
:1048A000AC0C29E02A1530F14D2D4260B42E2D2D8F
:1048B0002870D2FE04C0211125C0219623C02111E9
:1048C0002197A5E0B0E09B01AC010E94EC1D660FB2
:1048D000771F881F991F6A0D711D811D911D6839F1
:1048E000A9E97A078A07A9E19A0760F0BD2DB660A9
:1048F000BB2E08C02EEFA2120AC0D3FC50C04D2D13
:104900004860B42E3196D701CC90DB2CC6CF2C2D2D
:104910002F7D253409F043C0A081AD3241F4BD2D77
:10492000B061DB2E7F0122E0E20EF11C0CC07F01A2
:10493000AB3231F04FEFE41AF40A21E030E006C068
:10494000A2E0EA0EF11CA18122E030E0A053AA30DF
:1049500018F0E21AF30A23C0F70120E030E0203813
:10496000BCE03B075CF4A901440F551F440F551FE1
:10497000240F351F220F331F2A0F311DAF014F5F48
:104980005F4F7A01A081A053AA3010F4FA01E7CF5B
:10499000D4FE03C0319521953109C20FD31FD1FE3A
:1049A00009C00115110531F0E1E0EE1AF108D80156
:1049B000ED92FC920E94301F2D2D2370233019F0B0
:1049C0006B017C0106C06B017C01F7FAF094F7F8EB
:1049D000F09420E030E0A901C701B6010E94931EC7
:1049E000882309F440C0D7FF06C0D195C195D109ED
:1049F0000FE311E002C007E511E04801B8E18B1AAE
:104A0000910890E2A92EB12CF8014590559065903F
:104A10007490CA15DB055CF0A3019201C701B601D1
:104A20000E94E61F6B017C01CA19DB09F2CF04501A
:104A30001109B594A7940815190531F78E2D880F23
:104A40008F2D881F8F3F49F020E030E0A901C7017A
:104A5000B6010E94931E811106C082E290E09093FD
:104A6000E7028093E602C701B60109C060E070E08A
:104A700080E89FEF04C060E070E080EC9FE7CDB776
:104A8000DEB7E0E10C944726992788270895FB01BB
:104A9000DC014150504088F08D9181341CF08B3501
:104AA0000CF4805E659161341CF06B350CF4605E33
:104AB000861B611171F3990B0895881BFCCFFC01D3
:104AC0000590615070400110D8F7809590958E0F39
:104AD0009F1F0895FC016150704001900110D8F7AC
:104AE000809590958E0F9F1F0895DC01FC01672F24
:104AF00071917723E1F7329704C07C916D937083B5
:104B00006291AE17BF07C8F308950F931F93CF9319
:104B1000DF93182F092FEB018B8181FD03C08FEFED
:104B20009FEF20C082FF10C04E815F812C813D81AC
:104B3000421753077CF4E881F9819F012F5F3F4FB3
:104B400039832883108306C0E885F985812F09956C
:104B5000892B29F72E813F812F5F3F4F3F832E8383
:104B6000812F902FDF91CF911F910F910895FA011E
:104B7000AA27283051F1203181F1E8946F936E7F9C
:104B80006E5F7F4F8F4F9F4FAF4FB1E03ED0B4E08D
:104B90003CD0670F781F891F9A1FA11D680F791FCE
:104BA0008A1F911DA11D6A0F711D811D911DA11DDF
:104BB00020D009F468943F912AE0269F11243019EF
:104BC000305D3193DEF6CF010895462F4770405D8A
:104BD0004193B3E00FD0C9F7F6CF462F4F70405D39
:104BE0004A3318F0495D31FD4052419302D0A9F794
:104BF000EACFB4E0A6959795879577956795BA958E
:104C0000C9F700976105710508959B01AC010A2E53
:104C100006945795479537952795BA95C9F7620F2A
:104C2000731F841F951FA01D0895AA1BBB1B51E174
:104C300007C0AA1FBB1FA617B70710F0A61BB70B0C
:104C4000881F991F5A95A9F780959095BC01CD01B1
:104C500008952F923F924F925F926F927F928F9220
:104C60009F92AF92BF92CF92DF92EF92FF920F93FB
:104C70001F93CF93DF93CDB7DEB7CA1BDB0B0FB605
:104C8000F894DEBF0FBECDBF09942A8839884888C2
:104C90005F846E847D848C849B84AA84B984C88458
:104CA000DF80EE80FD800C811B81AA81B981CE0F4F
:104CB000D11D0FB6F894DEBF0FBECDBFED01089534
:044CC000F894FFCF96
:104CC4000000E802200001000000FF000040001482
:104CD400005400000000005C04431B4475616C0038
:104CE40053696E676C650061575849726F6E730043
:104CF40025732025730025632025642E2564004632
:104D04004F535320202D2020464F53480046315204
:104D14004D4200257320202564003A4F4B3A0D0A7A
:104D2400003A4552523A0D0A004F46460053415646
:104D3400450044554D50003200494E56414C4944BB
:104D44000043414C0031000301030103010301014D
:104D540001010320200301010303010320200303B5
:104D640001030101032020200000000300030003CD
:104D740020020203000203030103030202030202EE
:104D840000000303020303020320202001010100A9
:104D9400000000620493040000000068049A040008
:104DA4000000008B04A404000000005419431BFA03
:104DB4001827190C19491900000000E91A6E616ED0
:0C4DC40000696E66006F7666002E00002D
:00000001FF
