:100000000C94B0000C94C7180C94F4180C94D800FD
:100010000C94D8000C94D8000C94D8000C94661A58
:100020000C94D8000C94D8000C94D8000C94D800F0
:100030000C94D8000C9433020C94D8000C94D80083
:100040000C94E0170C94D8000C94741D0C94B71DFC
:100050000C94D8000C94D8000C94D8000C94D800C0
:100060000C94D8000C94D8002C003B323D002C009E
:10007000313D002020202000537462790043414C20
:10008000002D2D2D001F1F000000000000000000AB
:100090000000001F1F1F1F000000001F1F1F1F1F49
:1000A0001F1F1F1F1F00000000000E0E0E00000388
:1000B00003030300000000181818180000000E13B6
:1000C00017171F0E000000000700020100000304C4
:1000D000060000000000000000010204081020409B
:1000E0008001020408102001020408102004040406
:1000F00004040404040202020202020303030303D1
:100100000300000000230026002900000000002555
:100110000028002B0000000000240027002A000215
:100120004E414E494E495459494E46CDCCCC3D0ADC
:10013000D7233C17B7D13877CC2B329595E6241FBF
:10014000B14F0A000020410000C84200401C462078
:10015000BCBE4CCA1B0E5AAEC59D7400211A7C1E33
:1001600011241FBECFEFD8E0DEBFCDBF12E0A0E06C
:10017000B1E0E0EBFEE402C005900D92A830B107BB
:10018000D9F722E0A8E0B2E001C01D92A43EB20778
:10019000E1F710E0C0EBD0E004C02197FE010E941F
:1001A000F81ECE3AD107C9F70E94CD1C0C945627F1
:1001B0000C940000EF920F931F93CF93DF93EC0109
:1001C000862F688349832A83EB821D821C821F82CB
:1001D0001E8208871A8619861C861B8691E09D87D9
:1001E0009E87EE2011F010E001C012E0612F0E9406
:1001F0004A19612F89810E944A19612F8A810E94C0
:100200004A1988810E94B6192B8130E08217930722
:1002100021F483E090E09F838E8389810E94B61948
:100220002B8130E08217930731F48E819F8121E08A
:1002300082279F838E83DF91CF911F910F91EF9043
:100240000895CF92DF92EF92FF921F93CF93DF93A7
:10025000EC010E942A186B017C018E85882359F0DD
:1002600089859A8502979A87898789859A8597FFD4
:1002700002C01A86198688810E94B6192B8130E047
:100280008217930711F413E001C010E089810E94E6
:10029000B6192B8130E08217930711F481E01827FB
:1002A0008E819F81811B80FF12C0212F110F330B84
:1002B0003F832E832C813D818270082E000C990B88
:1002C0000197820F931F9D838C8381E001C080E0A2
:1002D0009E85992361F0882351F089859A85883E0F
:1002E0009B4028F489859A8549969A8789878091C9
:1002F0000B0290910C02A0910D02B0910E02A70189
:100300009601281B390B4A0B5B0B2A30310541053E
:10031000510508F45DC0C0920B02D0920C02E0922D
:100320000D02F0920E028A810E94B6192B8130E0F4
:100330008217930781F48091090290910A02019635
:1003400090930A02809309028937910520F083E097
:1003500090E09C878B878A810E94B6193B8121E0BF
:10036000232730E08217930731F58091090290919D
:100370000A02892BE1F08B859C85039719F484E0B0
:1003800090E008C080910802823048F08C3378F405
:1003900086E090E09C878B871092080208C08D85CC
:1003A000811102C081E001C08CE3809308021092A9
:1003B0000A021092090280910802882349F08250B3
:1003C00080930802811104C085E090E09C878B87B0
:1003D000DF91CF911F91FF90EF90DF90CF90089524
:1003E000FC01F894248135818085823021F4C90193
:1003F0008170992705C0843031F4C9018370992731
:100400009583848302C01582148278948085843019
:1004100029F4359527953595279504C0823011F438
:10042000359527958685882329F081859285892FA2
:10043000992702C080E090E037FF03C08095909537
:100440000895232B11F00196089580E090E008951F
:10045000FC0183859485238534852330310511F093
:100460001486138608951F920F920FB60F921124CF
:100470002F933F934F935F936F937F938F939F93AC
:10048000AF93BF93EF93FF93E0911002F0911102AD
:100490000995FF91EF91BF91AF919F918F917F91BE
:1004A0006F915F914F913F912F910F900FBE0F90E1
:1004B0001F901895CB010C940927CB01642F0C9445
:1004C0001127CF93DF93EC0160E08E810E948619A3
:1004D00081E090E00E94821861E08E810E9486197E
:1004E00081E090E00E94821860E08E810E9486196F
:1004F00084E690E0DF91CF910C948218AF92BF9286
:10050000CF92DF92EF92FF920F931F93CF93DF93DF
:100510005C017C0187E0E80EF11CC0E0D0E0062F12
:1005200010E0670161E0F70181917F010E944A19A3
:10053000B8010C2E02C0759567950A94E2F76170B8
:10054000F60180810E9486192196C430D10549F7B1
:10055000C501DF91CF911F910F91FF90EF90DF9038
:10056000CF90BF90AF900C946102AF92BF92CF92A8
:10057000DF92EF92FF920F931F93CF93DF935C0173
:100580007C0187E0E80EF11CC0E0D0E0062F10E00F
:10059000670161E0F70181917F010E944A19B8016A
:1005A0000C2E02C0759567950A94E2F76170F6010A
:1005B00080810E9486192196C830D10549F7C5016E
:1005C000DF91CF911F910F91FF90EF90DF90CF902F
:1005D000BF90AF900C9461021F93CF93DF93EC0117
:1005E000162F642F8C810E9486198D818F3F19F000
:1005F00060E00E9486198F85612F84FF06C0CE01BE
:10060000DF91CF911F910C94B50270E084E0759555
:1006100067958A95E1F7CE010E947E02612FCE0197
:10062000DF91CF911F910C947E0240E00C94EC027C
:1006300061E00E94150380ED97E00C948218CF933F
:10064000DF93CDB7DEB728970FB6F894DEBF0FBEA5
:10065000CDBF9C0188E0E7E0F1E0DE01119601905A
:100660000D928A95E1F7F9018389481710F04FEF51
:10067000480FFE013196E40FF11DE40FF11D90814A
:10068000690F6068C90128960FB6F894DEBF0FBEE7
:10069000CDBFDF91CF910C941503FC016089262F0B
:1006A0002460208B6C600C941503CF93DF93EC01D6
:1006B000423018F08F8588608F874B8B1C8A2223ED
:1006C00029F0413019F48F8584608F8780E593ECA1
:1006D0000E94821860E08C810E94861960E08E8101
:1006E0000E9486198D818F3F19F060E00E94861963
:1006F0006F8564FD1DC063E0CE010E947E0284E927
:1007000091E10E94821863E0CE010E947E0284E99A
:1007100091E10E94821863E0CE010E947E0286E988
:1007200090E00E94821862E0CE010E947E0216C014
:100730006062CE010E94150384E991E10E94821853
:100740006F856062CE010E94150386E990E00E94E9
:1007500082186F856062CE010E9415036F8560620A
:10076000CE010E94150384E0888BCE010E944D03C8
:10077000CE010E94180382E0898B66E0CE01DF91F2
:10078000CF910C9415036F927F928F92AF92CF927C
:10079000EF920F931F93CF93DF93CDB7DEB73C015A
:1007A000162F842F5D854E853F859889F3018483BC
:1007B00025830683E782C086A18682865387448785
:1007C0003587968761E00E944A19F30185818F3F42
:1007D00019F061E00E944A1961E0F30186810E94EC
:1007E0004A19112319F0F301178603C080E1F301C0
:1007F000878720E041E060E1C301DF91CF911F9145
:100800000F91EF90CF90AF908F907F906F900C945E
:1008100055038F92AF92CF92EF920F93DC01139614
:100820001C921E921297E3E1F1E0ED93FC931F926C
:100830001F921F921F928C2CAE2CC02EE22E042FE2
:100840002FEF462F61E00E94C3030F900F900F908F
:100850000F900F91EF90CF90AF908F900895CF921F
:10086000DF92EF92FF920F931F93CF93DF9300D00D
:10087000CDB7DEB78C01677088E0689FB0011124A6
:100880006064C80149835A830E9415034981C42EBC
:100890005A81D52E7601A8E0EA0EF11CF60161918D
:1008A0006F01D801ED91FC910190F081E02DC8011C
:1008B0000995CE14DF0491F70F900F90DF91CF913F
:1008C0001F910F91FF90EF90DF90CF90089541E03E
:1008D0000E94EC0281E090E0089508950F931F9329
:1008E000CF93DF9327ED31E0FC01318320838C012E
:1008F000095E1F4F81F0EC01C352DF4FC017D107D3
:1009000051F0C356D109E881F9810190F081E02DC1
:10091000CE010995F3CFDF91CF911F910F910895EB
:100920002FED31E0FC0121933193CF010C946E0443
:10093000CF93DF93EC010E946E04CE01DF91CF9143
:100940000C942E1ACF93DF93EC010E949004CE01F9
:10095000DF91CF910C942E1A0C942E1A80911602CE
:10096000909117020C942101FC019C01285D3F4FDE
:1009700040E050E060EC7FE74193519361937193C5
:10098000E217F307C9F729E030E0FC0131A720A7FF
:1009900008952AE030E0FC0133A722A70C94B404A8
:1009A000CF93DF93EC018FEC91E0998388831C8ACD
:1009B0001E8A1D8A188E1F8A198E1B8E1A8E1C8EF7
:1009C00081E090E09E8F8D8F1F8E18A219A21AA22F
:1009D0001BA28CA31DA21EA21FA218A619A690914D
:1009E000150221E0290F209315029BAB8CAB1EAAA8
:1009F0001DAACE01C7960E94C9041A8218861E86B7
:100A000083E39BE1AAECBEE38BA79CA7ADA7BEA79F
:100A10008DEC9FE4AFE2B2E48FA798ABA9ABBAAB81
:100A2000DF91CF910895EF92FF920F931F93CF9391
:100A3000DF93FC01EA016130710559F4E588F6881D
:100A400081E0E416F50609F480E084A3D68BC58B1B
:100A50002AC0E788F08C508F478B1C161D061CF5AA
:100A60009C01215A3F4FD9018D919C91119701967C
:100A700012966D917C910E94B71ED9018D939C9323
:100A8000880F991F880F991F8F01080F191FBE012A
:100A90000D2E000C880B990B0E942920F80167ABE2
:100AA00070AF81AF92AF81E0EC16FD0609F480E0F3
:100AB000DF91CF911F910F91FF90EF900895CF9309
:100AC000DF9300D000D000D0CDB7DEB729833A83C2
:100AD0004B835C836D837E83313029F0323031F477
:100AE00084B58F7D02C084B58F7784BD26960FB6FE
:100AF000F894DEBF0FBECDBFDF91CF910895CF93A5
:100B0000DF9300D000D000D0CDB7DEB7FC01298341
:100B10003A834B835C836D837E83552361F033235B
:100B200019F0CF010E945F05ED81FE8190818B81DC
:100B3000982381E009F480E026960FB6F894DEBF92
:100B40000FBECDBFDF91CF910895EF92FF920F932B
:100B50001F93CF93DF9300D000D000D0CDB7DEB786
:100B600029833A83142F4B835C836D837E83ED80CE
:100B7000FE80332319F029810E945F059FB7F89406
:100B8000F7018081011103C01095182301C0182BB3
:100B900010839FBF26960FB6F894DEBF0FBECDBF61
:100BA000DF91CF911F910F91FF90EF9008950F93D8
:100BB0001F93CF93DF93EC018DA19EA1AFA1B8A5A8
:100BC0008A019B01081B190B2A0B3B0BD901C80199
:100BD000813911E09107A105B10550F42C8D222334
:100BE00009F454C086389105A105B10508F44EC03A
:100BF0004DA35EA36FA378A78D8D9E8D8130910547
:100C0000B1F01CF4892B39F034C08230910519F110
:100C10000397D1F02EC02E853F85488959896A896E
:100C20007B89CE010E947F05813019F51DC02E857C
:100C30003F85488959896A897B89CE010E947F0551
:100C4000811117C01F8E15C089A58F5F89A78830B5
:100C500068F48130B9F32E853F85488959896A89BE
:100C60007B89CE010E947F058F8F03C08A3009F4F3
:100C700019A601E08F8D811100E02E853F854889FE
:100C800059896A897B89CE010E94A5058F8DDF91E4
:100C9000CF911F910F910895CF93DF9300D000D093
:100CA00000D0CDB7DEB729833A834B835C836D8355
:100CB0007E832E3008F02E502770206420937C0015
:100CC00080917A00806480937A0080917A0086FD1A
:100CD000FCCF809178002091790090E0922B2696AD
:100CE0000FB6F894DEBF0FBECDBFDF91CF91089550
:100CF0000F93CF93DF9300D000D000D0CDB7DEB7F5
:100D000029833A834B835C836D837E83002349F080
:100D10000F3F51F401E029813A814B815C816D8163
:100D20007E810E94A5050EC08A81813039F0823013
:100D300049F484B5806284BD08BD04C084B5806870
:100D400084BD07BD26960FB6F894DEBF0FBECDBF9B
:100D5000DF91CF910F910895FF920F931F93CF933F
:100D6000DF93EC01862FF42E122F91E09AA76A836D
:100D700061E00E944A192A81622F70E0FB01EB5367
:100D8000FF4F34913B83FB01E752FF4F44914C836B
:100D9000FB01E351FF4F54915D83E52FF0E0EE0F2F
:100DA000FF1FE55FFE4F85919491682F9F838E838F
:100DB000098D7F81CE010E947806F88660E08F2D34
:100DC0000E944A191E8761E0812F0E944A192E85D0
:100DD000822F90E0FC01EB53FF4F34913F87FC01E1
:100DE000E752FF4F4491488BFC01E351FF4F549170
:100DF000598BE52FF0E0EE0FFF1FE55FFE4F859169
:100E00009491682F9B8B8A8B01E07B89CE010E9495
:100E1000A505DF91CF911F910F91FF9008950F933A
:100E2000CF93DF9300D000D000D0CDB7DEB76623DC
:100E300059F0FC01018D2281338144815581668105
:100E400077810E94780612C026E0FC013296DE010E
:100E5000119601900D922A95E1F700E029813A81DF
:100E60004B815C816D817E810E94A50526960FB61F
:100E7000F894DEBF0FBECDBFDF91CF910F910895E3
:100E80002F923F924F925F927F928F929F92AF925A
:100E9000BF92CF92DF92EF92FF920F931F93CF9367
:100EA000DF9300D000D000D0CDB7DEB77C01DC01ED
:100EB00057968D909C9058975596AD90BC905697AC
:100EC0005C968C91882359F0B6E9AB16B10424F0F6
:100ED00046E9A42EB12C03C034E6A32EB12CF701B1
:100EE00085A996A9009719F060E00E940F0786E097
:100EF000F7013296DE01119601900D928A95E1F785
:100F000000E029813A814B815C816D817E81C7013E
:100F10000E94A50564E170E080E090E00E945C180A
:100F2000D70118962C91189719963C9119971A96F3
:100F30004C911A971B965C911B971C966C911C9771
:100F40001D967C91C7010E944C06F701938F828FFA
:100F5000018D228133814481558166817781C7016A
:100F60000E947806D701D596ED91FC91D6973097DF
:100F700051F0018D228133814481558166817781D1
:100F8000CF010E947806F701628D738D77247394E8
:100F9000613571050CF4712CD701D4967C92072E23
:100FA000000C880B990B0E942920F70123A534A57A
:100FB00045A556A50E94DE20D7019F962D913D9113
:100FC0004D915C91D2970E940E1F1B012C0120E0D5
:100FD00030E0A9010E94D92020E030E040E05FE34A
:100FE00087FD05C0C201B1010E940E1F04C0C201ED
:100FF000B1010E940D1F0E94F11F6B01F701708F5C
:10100000678B161617061CF5E15AFF4F80819181F8
:101010000196D701AF59BF4F6D917C910E94B71EC9
:1010200091838083880F991F880F991F8701080F6C
:10103000191FB6010D2C000C880B990B0E9429205A
:10104000D801D7966D937D938D939C93DA97C501C4
:101050008C199D0918161906BCF42AE0289F8001F6
:10106000299F100D11240739110514F006E910E02D
:10107000843091055CF44FE0489F9001499F300D0A
:101080001124020F131F02C000E010E0772021F1AD
:10109000F701848D882319F083E090E01AC0F4E012
:1010A000CF16D10404F1C5010397C816D9064CF038
:1010B00083E0A80EB11CAC14BD041CF082E090E0EB
:1010C0000DC081E090E00115110511F080E090E085
:1010D000F701968F858F07C081E090E0D7015E967B
:1010E0009C938E935D97F701818D082E000C990BD0
:1010F0008017910751F0018F2281338144815581FE
:1011000066817781C7010E94780681E0D7015796F2
:101110002D913C9158978216930609F480E026960B
:101120000FB6F894DEBF0FBECDBFDF91CF911F91F8
:101130000F91FF90EF90DF90CF90BF90AF909F9076
:101140008F907F905F904F903F902F900895CF9217
:10115000EF920F93CF93DF93EC01E7EDF1E0DC0129
:10116000ED93FD93CD010E940904CE0147960E94A4
:10117000D004CE0186589F4F0E94D004FE01E35256
:10118000FF4F81E090E0918380833296108211823C
:101190001282138236961082319610823196108216
:1011A000118212821382349610821182128213826B
:1011B00034961082118212821382349610823196F4
:1011C0001082CD51DF4F80E092E099838883DF91D8
:1011D000CF910F91EF90CF900895BF92CF92DF9271
:1011E000EF92FF920F931F93CF93DF93CDB7DEB7AC
:1011F00061970FB6F894DEBF0FBECDBF8C017C01A6
:1012000082E0E80EF11CC7010E941803F801ED51BD
:10121000FF4F808180FD03C08CE191E002C087E137
:1012200091E09F938F9383E291E09F938F938CE261
:1012300091E09F938F931F9281E1B82EBF928E0110
:101240000F5F1F4F1F930F930E94D322F80101904D
:101250000020E9F73197E01BF10B90E1C92ED12C6A
:10126000B6016E1B7F0B7695679540E0C7010E9423
:101270001F03B801C7010E94221B1F9285E08F93B4
:101280001F9281E08F931F9286E78F9382E391E014
:101290009F938F931F92BF921F930F930E94D3220D
:1012A000F80101900020E9F73197E01BF10BB6013E
:1012B0006E1B7F0B7695679541E0C7010E941F0367
:1012C000B801C7010E94221B68EE73E080E090E045
:1012D0000E945C18C7010E9418036BE371E0C8010B
:1012E0000E94A722F80101900020E9F73197E01B46
:1012F000F10BB6016E1B7F0B7695679540E0C70139
:101300000E941F03B801C7010E94221B87E08F9330
:101310008FED8F9389E491E09F938F938FE491E019
:101320009F938F931F92BF921F930F930E94D3227C
:10133000F80101900020E9F73197E01BF10B0FB69F
:10134000F894DEBF0FBECDBFB6016E1B7F0B769546
:10135000679541E0C7010E941F03B801C7010E94C1
:10136000221B68EE73E080E090E00E945C18C701E9
:101370000E94180361960FB6F894DEBF0FBECDBF72
:10138000DF91CF911F910F91FF90EF90DF90CF9061
:10139000BF9008950F931F93CF938C010D501F4F53
:1013A000F801C081C11124C060E070E08FE092E0DC
:1013B0000E945A028D30D1F461E070E08FE092E03B
:1013C0000E945A028E3091F462E070E08FE092E069
:1013D0000E945A028A3051F463E070E08FE092E09C
:1013E0000E945A02C1E08D3009F0C0E0F801C083CC
:1013F000F8018081CF911F910F9108954DE060E039
:1014000070E08FE092E00E945D024EE061E070E0EB
:101410008FE092E00E945D024AE062E070E08FE0BF
:1014200092E00E945D024DE063E070E08FE092E0A8
:101430000C945D02FB0180E06CE8415088F0519112
:1014400098E0752F7827282F30E035952795822F43
:1014500070FF02C0862F82275695915091F7EDCFED
:101460000895BF92CF92DF92EF92FF920F931F9356
:10147000CF93DF9300D0CDB7DEB76C017B018A013B
:10148000FA01118210820E94CA09882399F0B701DB
:101490008FE092E00E945A02B82EB7016F5F7F4F33
:1014A000F2E0EF0EF11C8FE092E00E945A02F80188
:1014B000B0828183C6010E94CA09882339F0B7012E
:1014C0008FE092E00E945A02F82E01C0F12CF80140
:1014D0009081818199838A8342E0BE016F5F7F4F53
:1014E000C6010E941A0A91E08F1190E0892F0F9097
:1014F0000F90DF91CF911F910F91FF90EF90DF90B0
:10150000CF90BF9008953F924F925F926F927F92DB
:101510008F929F92AF92BF92CF92DF92EF92FF9203
:101520000F931F93CF93DF93CDB7DEB760970FB6BE
:10153000F894DEBF0FBECDBF5C017B016A013E01A6
:101540008DE0680E711C8E010F5F1F4F28014B014B
:10155000801A910A94E0392E300EB401640D751D85
:101560008FE092E00E945A02F30181933F01F20161
:1015700081932F013E12F1CF2E01F5E04F0E511C49
:10158000CE0109963C0184E0382E360CB401640D7E
:10159000751D8FE092E00E945A02F30181933F0192
:1015A000F20181932F013610F1CFB701685F7F4FB1
:1015B0008FE092E00E945A02F82E48E0B801C5017F
:1015C0000E941A0AF81211C089859A85AB85BC85DC
:1015D0004D855E856F857889F60143A754A765A779
:1015E00076A787A790ABA1ABB2AB60960FB6F89485
:1015F000DEBF0FBECDBFDF91CF911F910F91FF9046
:10160000EF90DF90CF90BF90AF909F908F907F90A2
:101610006F905F904F903F9008954F925F926F92BE
:101620007F928F929F92AF92BF92CF92DF92EF9272
:10163000FF920F931F93CF93DF93CDB7DEB76097E1
:101640000FB6F894DEBF0FBECDBF5C018B01FA016F
:1016500087A590A9A1A9B2A943A554A565A576A57A
:101660004D875E876F87788B89879A87AB87BC8722
:10167000C5010E94CA09882309F445C03E01FDE066
:101680006F0E711CCE0101967C016C014801881A15
:10169000990A94E0492E4E0CF30151903F01B40198
:1016A0006C0D7D1D452D8FE092E00E945D02F601DC
:1016B00051926F014E12F0CF3E01F5E06F0E711C9A
:1016C000CE0109966C0184E0482E4C0CF601519035
:1016D0006F01B401660D771D452D8FE092E00E94E9
:1016E0005D02F30151923F014C10F0CF48E0B70189
:1016F000C5010E941A0AB801685F7F4F482F8FE02A
:1017000092E00E945D0260960FB6F894DEBF0FBEB5
:10171000CDBFDF91CF911F910F91FF90EF90DF90A0
:10172000CF90BF90AF909F908F907F906F905F9081
:101730004F900895CF93DF93FC01E352FF4F208138
:1017400031812130310549F4EC010E942A18C1523F
:10175000DF4F688379838A839B83DF91CF910895DC
:10176000FC01ED51FF4F20813181CB018223932376
:10177000892B59F4442319F0262B372B04C060958C
:101780007095262337233183208308950F931F9369
:10179000CF93DF93EC018C0103521F4FF80180813E
:1017A00091817183608341E08617970709F440E0D7
:1017B00064E070E0CE010E94B00BF801808191815D
:1017C000019719F40E942A1803C060E070E0CB0171
:1017D000C152DF4F688379838A839B83DF91CF91E6
:1017E0001F910F9108950F931F93CF93DF93FC01E7
:1017F000E352FF4F2081318121303105F1F4EC01BA
:101800000E942A18FE01E152FF4F008111812281BE
:101810003381DC01CB01801B910BA20BB30B893B05
:101820009B40A105B10548F060E070E0CE01DF917A
:10183000CF911F910F910C94C60BDF91CF911F9107
:101840000F910895FC01ED51FF4F442329F0808151
:101850009181682B792B06C060957095808191816C
:10186000682379237183608308950F931F93CF9327
:10187000DF93EC018C010D511F4FF8018181482F3E
:101880004695469550E0F1E04F27417060E074E0E6
:10189000CE010E94220C41E060E078E0CE010E947F
:1018A000B00BF8019081818182FB882780F98BAB96
:1018B00090FF03C0C658DF4F8C8FDF91CF911F91EF
:1018C0000F910895CF93DF93CDB7DEB760970FB632
:1018D000F894DEBF0FBECDBF23E6269FF001279F01
:1018E000F00D11248E0F9F1FFC01EE5BFF4F88E06F
:1018F000DE01119601900D928A95E1F788E0FE01D4
:101900003196DE01199601900D928A95E1F72985AD
:101910003A854B855C856D857E858F859889609637
:101920000FB6F894DEBF0FBECDBFDF91CF91089503
:101930000F931F93CF93DF93EC01AC01495E5F4F90
:101940006FE070E00E94830A8E010D511F4FF80175
:10195000808180FF08C0AE0146585F4F68E170E0AB
:10196000CE010E94830AF8012081318135FF1EC01B
:1019700080E090E0A0E8BFE3FE01EE5BFF4F8083D4
:101980009183A283B38334961082118212821382D0
:1019900020FF0CC0E15AFF4F80839183A283B38361
:1019A000C755DF4F188219821A821B82DF91CF91AF
:1019B0001F910F9108952F923F924F925F926F92D5
:1019C0007F928F929F92AF92BF92CF92DF92EF92CF
:1019D000FF920F931F93CF93DF93CDB7DEB7289776
:1019E0000FB6F894DEBF0FBECDBF3C01122FFA2C0C
:1019F000FC01EB51FF4F6083319640832C0182E064
:101A0000480E511C20E0C2010E945503212C312CAC
:101A1000D12C88E0982EFE0131965F01F501892DC9
:101A200011928A95E9F7D50180E090E0FC01E20D82
:101A3000F31DEB57FF4FE491ED930196883091052C
:101A4000A9F7A5016D2DC2010E942F04D39498E03F
:101A5000290E311CE8E0DE12E1CF85E085BDC3012F
:101A60000E94CA09811103C0C3010E94FE0923011B
:101A7000F7E14F0E511C2E2D402F612FC2010E9405
:101A8000AC0681E0F30183A783010D511F4FF801DC
:101A90008081918195FF03C044E650E016C0A50106
:101AA00069E070E0C3010E94310A882361F0498136
:101AB0005A814436510580F3433CF1E05F0728F03A
:101AC00042EC51E002C046E950E061E070E0C20142
:101AD0000E941305F30113AE60E08C2D0E944A1999
:101AE0008C2D0E94B6198C2D0E94B619019731F4E5
:101AF000F80180819181816091838083F8018081E8
:101B0000918195FF03C0816091838083F80180817A
:101B100080FF60C0C3010E94CA09882341F066E0CB
:101B200070E08FE092E00E945A02E82E01C0E12CA2
:101B30001301FAE72F0E311C2D8D482D6F2DC10199
:101B40000E94AC06F301E45BFF4F31822082F10179
:101B500056AA45AAF8018081918195FF03C044E609
:101B600050E016C0A5016CE070E0C3010E94310A8C
:101B7000882361F049815A814436510580F3433C02
:101B8000F1E05F0728F042EC51E002C046E950E086
:101B900061E070E0C1010E941305EE20D1F1F30174
:101BA00044A555A5F101858996894817590789F1FA
:101BB00061E070E0C1010E941305F801808191810C
:101BC00095FD02C04E2D01C040E062E070E0C3010F
:101BD0000E94220CC3010E94980CC3010E94ED08D0
:101BE00028960FB6F894DEBF0FBECDBFDF91CF9120
:101BF0001F910F91FF90EF90DF90CF90BF90AF902B
:101C00009F908F907F906F905F904F903F902F901C
:101C10000895F10114A2D1CF23E6269FA001279FAA
:101C2000500D1124495E5F4F480F591F672B19F063
:101C300068E170E002C06FE070E00C940D0B1F9340
:101C4000CF93DF93EC01162F462F60E070E20E94E5
:101C5000220C111107C0CD51DF4F8881998192600C
:101C600099838883DF91CF911F910895FC01ED51F5
:101C7000FF4F2081318132FD0C94350C0895CF93B4
:101C8000DF93EC010E94360EFE01ED51FF4F808183
:101C900080FF19C081FD17C09BA581E098279BA7F5
:101CA000E956F10994898927848B41E060E072E06C
:101CB000CE010E94B00B41E060E070E1CE01DF9107
:101CC000CF910C94B00BDF91CF910895AF92BF925A
:101CD000CF92EF920F93CF93DF93EC018FED91E0D2
:101CE000FE01819391935F018CE0C82E9BE0E92E69
:101CF0000AE029E048E067E0CF010E94A708E12C54
:101D000004E024E043E062E0CE0189509F4F0E944E
:101D1000DA00FE01E85BFE4F1082C75BDE4F1882DF
:101D200019821A821B8284E00E94B619892B59F409
:101D300061E0C501DF91CF910F91EF90CF90BF90FF
:101D4000AF900C941F0EDF91CF910F91EF90CF9039
:101D5000BF90AF9008958F92AF92CF92EF920F9372
:101D60001F93CF93DF93EC0111E11F932EE0822E9E
:101D700036E0A32E4DE0C42E50E1E52E0FE025E025
:101D800042E060E102960E94DB0CC950DF4FD09325
:101D90001702C0931602E1E8F0E080E18083109220
:101DA000800081E08093120220EA3FE03093140229
:101DB00020931302309387002093860010832EEA2D
:101DC00034E0309311022093100280936F000F9043
:101DD000DF91CF911F910F91EF90CF90AF908F90A7
:101DE00008954F925F926F927F92AF92BF92CF927F
:101DF000DF92EF92FF920F931F93CF93DF93FC013B
:101E0000A2A4B3A48C01C12CD12C7601C0E0D0E0F7
:101E1000CA15DB0571F0F801419051906190719005
:101E20008F01A3019201C301B2010E944B218823BB
:101E300029F0209769F4C1E0D0E00AC0A301920123
:101E4000C701B6010E940E1F6B017C012196E0CFF5
:101E5000BE0180E090E00E9427209B01AC01C701F9
:101E6000B6010E947F1F20E030E040E05FE30E9467
:101E70000E1F0E94F11FCB01DF91CF911F910F9197
:101E8000FF90EF90DF90CF90BF90AF907F906F90DA
:101E90005F904F900895672B19F4C7960C94F10E3C
:101EA000FC018589968908955F926F927F928F9247
:101EB0009F92AF92BF92CF92DF92EF92FF920F93D9
:101EC0001F93CF93DF93EC018B016C012DEDC20EBC
:101ED000D11CF60180819181892BB9F461E070E019
:101EE000CE010E94C60BCE01DF91CF911F910F91C1
:101EF000FF90EF90DF90CF90BF90AF909F908F902A
:101F00007F906F905F900C94360ECE010E94360E3B
:101F10000E942A18FE01E151FF4F60837183828382
:101F20009383359610827197808091805401F1E0FF
:101F3000AF22BB2480FE02C081FE3BC0E12CF12C0D
:101F400083E6582EAE14BF040CF482C05E9C4001A0
:101F50005F9C900C112427E1820E911C8C0E9D1E1B
:101F6000F60160807180B301C4010E944B0F800FA5
:101F7000911F843691053CF0AC01833C91402CF0DC
:101F800042EC51E002C044E650E0B301C4010E94BB
:101F90001305E114F10419F468E070E002C060E494
:101FA00070E0482FCE010E94B00B2FEFE21AF20A28
:101FB000C9CF8BA5FE0177965F01882311F07F01C1
:101FC00004C07E01FAE7EF0EF11CF601C080D1805B
:101FD000B601C7010E944B0FAC01400F511F4436A0
:101FE000510594F094012227307295FC03C082ECD5
:101FF00091E002C087EE93E08417950754F4232BF9
:1020000031F442EC51E005C044E650E002C047EE36
:1020100053E0B601C7010E941305EA14FB0419F04E
:1020200060E470E002C068E070E0482FCE01DF910C
:10203000CF911F910F91FF90EF90DF90CF90BF90C5
:10204000AF909F908F907F906F905F900C94B00BAB
:10205000DF91CF911F910F91FF90EF90DF90CF9084
:10206000BF90AF909F908F907F906F905F900895FA
:10207000EF92FF920F931F93CF93DF931F92CDB7F1
:10208000DEB7072F7A0169830E94CA09182F698178
:102090008823D1F0F701808191819C012F5F3F4F10
:1020A00031832083462FBC018FE092E00E945D02C5
:1020B000F70160817181CB01019691838083402F6C
:1020C0008FE092E00E945D02812F0F90DF91CF910F
:1020D0001F910F91FF90EF900895EF92FF920F9351
:1020E0001F93CF93DF9300D0CDB7DEB78C010E9452
:1020F000360E780183EEE80EF11CF70180819181A4
:1021000095FD44C080FF42C0F80123A5C801865850
:102110009F4F222329F044A555A561E070E007C038
:10212000FC014589568961E070E0C80147960E942C
:102130001305F7014081518156954795F1E04F27EE
:10214000417062E070E0C8010E94220CF7018081BA
:1021500091819260918380830E942A18F801E15155
:10216000FF4F60837183828393833596108286E06C
:1021700090E09A838983F70160817181627077278B
:10218000AE014F5F5F4FC8010E9438100F900F9053
:10219000DF91CF911F910F91FF90EF9008950F93D2
:1021A0001F93CF93DF9300D000D01F92CDB7DEB73F
:1021B0008C019B01BA013C832B8349837A83AE0156
:1021C0004D5F5F4F0E94381042E0BE016F5F7F4F4E
:1021D000C8010E941A0A482FC8014D830E94CA09EB
:1021E0004D81882351F06B817C81CB0101969C83CA
:1021F0008B838FE092E00E945D020F900F900F9012
:102200000F900F90DF91CF911F910F910895AF9292
:10221000BF92CF92DF92EF92FF920F931F93CF93D3
:10222000DF93C62F440F440F142F120F02967C0128
:1022300040E0612F0E941F0383E0C89F50011124DA
:10224000C12CD12CD0E0F601EA0DFB1DE955FE4F63
:102250006081C7010E9467048FEFC81AD80A83E023
:10226000C816D10481F741E0612FC7010E941F0306
:10227000CE01880F991FC80FD91F00E010E0F801A8
:10228000EC0FFD1FED57FE4F6081C7010E946704F0
:102290000F5F1F4F0330110591F7DF91CF911F9111
:1022A0000F91FF90EF90DF90CF90BF90AF90089587
:1022B0009F92AF92BF92CF92DF92EF92FF920F93D5
:1022C0001F93CF93DF9300D000D01F92CDB7DEB71E
:1022D0007C016B01942E022F77FD19C064367105C5
:1022E00054F48AE389836A3071054CF48A83BE0111
:1022F0006D5F7F4F07C0BE016F5F7F4F03C0BE01A0
:102300006E5F7F4F4AE0C6010E94AE2205C08BE39C
:1023100089838A838B831C82FE0131965F0110E0E2
:10232000F50161915F01662351F0412F490D605322
:10233000202FC7010E9407111F5F143089F7F2E0B8
:10234000EF0EF11C190D110F110F612F600F40E0FE
:10235000C7010E941F03D7FE02C060E201C06FEDFB
:10236000C7010E9467040F900F900F900F900F907D
:10237000DF91CF911F910F91FF90EF90DF90CF9061
:10238000BF90AF909F900895EF92FF921F93CF93CD
:10239000DF93EA0102967C01462F62E00E941F0350
:1023A00012E02996812F90E0C817D90734F060E237
:1023B000C7010E9467041F5FF5CFDF91CF911F9186
:1023C000FF90EF9008959F92AF92BF92CF92DF92CD
:1023D000EF92FF920F931F93CF93DF93CDB7DEB7AA
:1023E00060970FB6F894DEBF0FBECDBF7C015B01D6
:1023F0006A01922E40E050E0622F0E94C4118701D2
:102400000E5F1F4F8FEFC816D80679F4AB2811F076
:1024100065E001C062E0492DC8010E941F0361E828
:1024200070E0C8010E94FF1A34C0A114B104C1F0C9
:10243000DF92CF9283E591E09F938F931F928FE07D
:102440008F93CE0101969F938F930E94D32298E0A1
:10245000692F681B0FB6F894DEBF0FBECDBF01C059
:1024600062E0492DC8010E941F034AE050E0B60116
:10247000C8010E94CB1BF701ED51FF4F8081918174
:1024800095FF03C0AA94AB2821F46FEDC8010E9408
:10249000670460960FB6F894DEBF0FBECDBFDF9124
:1024A000CF911F910F91FF90EF90DF90CF90BF9051
:1024B000AF909F9008956F927F928F929F92AF926C
:1024C000BF92CF92DF92FF920F931F93CF93DF9330
:1024D0008C010E942A1868012DEDC20ED11CF60154
:1024E00020813181E801CD51DF4F3A96213031050D
:1024F000C9F02881398120723171232B99F48080B1
:102500009180A280B3809B01AC01281939094A0946
:102510005B0949015A0139EC83169104A104B10405
:1025200008F4F5C1608371838283938388819981E4
:102530009C012470332780FF02C081FFA6C0232B9B
:1025400031F08B7F99838883FF24F39401C0F12CB1
:102550008881998191FD02C0FF2049F09D7F998378
:102560008883C80102960E941803FF24F394F8019F
:10257000E55BFF4F7080888199814C0141E08422A6
:10258000992480FF03C0BF9664A801C0612CF601A6
:10259000A080B180F1E0AF16B10419F020E130E085
:1025A00002C028E030E028233923232BA1F4811432
:1025B000910469F021E0A216B10419F020E830E09E
:1025C00002C028E030E082239323892B79F4F110B4
:1025D00002C0F12C57C1772019F1C801825B9F4FCF
:1025E0000E94F10E892891F04C0105C07110F5CFC1
:1025F00088248A94982C662009F484C1C8018F54D9
:102600009F4F0E94F10E772079F005C0662061F09F
:102610004C018FEF9FEF880D991D9595879504C00C
:10262000892831F78FEF9FEFA114B10441F0B50174
:10263000C80147960E944B0FAA94AB2811F020E0E6
:1026400001C022E040E0BC01C8010E945811F6011F
:10265000408151814130510519F080E190E002C084
:1026600088E090E08095909528813981282339234E
:102670004130510519F080E890E002C080E490E01C
:102680008095909582239323FBC0232B31F08B7F81
:1026900099838883FF24F39401C0F12C8881998168
:1026A00091FD02C0FF2049F09D7F99838883C80176
:1026B00002960E941803FF24F3948881998195FF64
:1026C00010C0FF2071F040E06BE05801F2E0AF0E67
:1026D000B11CC5010E941F036DE770E0C5010E9497
:1026E000FF1A28813981F601A080B180F1E0AF1690
:1026F000B10419F080E190E002C088E090E082230C
:102700009323892B11F4FF20C1F14901882440E271
:10271000942235FF07C0A114B10421F4F80141A9A6
:1027200052A914C0B501C80147960E944B0FA114CD
:10273000B10441F4892831F4F801E55BFF4F2081B1
:10274000222311F0AC0102C04FEF5FEF20E0B50192
:10275000C8010E94E311F60180819181019719F06F
:1027600080E190E002C088E090E08095909528811B
:102770003981822393239983888328813981F601C3
:10278000A080B180F1E0AF16B10419F080E890E0CC
:1027900002C080E490E082239323892B11F4FF2070
:1027A000C9F1A80146585F4F3A014901882450E217
:1027B000952235FF07C0A114B10421F4F301428D25
:1027C000538D11C0B501C3010E944B0FA114B10478
:1027D00031F4892821F4F30124A9222311F0AC015A
:1027E00002C04FEF5FEF21E0B501C8010E94E31185
:1027F000F60180819181019719F080E890E002C094
:1028000080E490E0809590952881398182239323FC
:10281000998388838881998194FD03C0FF2009F4FE
:10282000D8CEF80193A4492D60E05801F2E0AF0E34
:10283000B11CC5010E941F0360E2C5010E9467042C
:10284000492D6AE0C5010E941F0360E2C5010E9494
:10285000670481E09826492D60E0C5010E941F03AE
:102860006BE5C5010E946704492D6AE0C5010E941D
:102870001F036DE5C5010E946704888199819F7ED1
:10288000998388838881998193FD02C0FF2029F173
:1028900081FF05C0F60180819181892BF1F46801E7
:1028A000F2E0CF0ED11CF801EB51FF4F6081645074
:1028B00041E0C6010E941F038881998192FD03C0F7
:1028C00063E770E002C068E770E0C6010E94FF1A8B
:1028D00088819981977F998388838881998185FDF3
:1028E00002C0FF2019F08F7D9983888388819981A8
:1028F00080FF0DC090FD02C0FF2049F09E7F9983AC
:10290000888305C0772009F48DCEC4018DCEDF9178
:10291000CF911F910F91FF90DF90CF90BF90AF901C
:102920009F908F907F906F9008956F927F928F927B
:102930009F92AF92BF92CF92DF92EF92FF920F934E
:102940001F93CF93DF93EC017C0124EFE20EF11C87
:10295000F70180818111AFC00E942A18FE01E15168
:10296000FF4F0081118122813381DC01CB01801B6B
:10297000910BA20BB30B81339547A105B10508F468
:102980009AC0772473940E942A184B015C01FE01BF
:10299000E551FF4F80819181A281B381A50194010E
:1029A000281B390B4A0B5B0BDA01C901AE01495EEA
:1029B0005F4F6A018E010D511F4F893C9105A105A2
:1029C000B10500F180829182A282B382B501A40197
:1029D000C6010E944007482F60E170E0CE010E94CE
:1029E000B00BF801808180FF0DC0B501A401CE01BC
:1029F00086589F4F0E944007482F60E870E0CE0144
:102A00000E94B00B6EA8B501A401C6010E94D705B3
:102A1000681631F0F8018081918180629183808312
:102A2000F801808180FF11C0CE0186589F4FFC01C4
:102A3000D78CB501A4010E94D705D81631F0F80152
:102A400080819181916091838083772019F1F801D1
:102A50008081918195FD1BC08BAD882341F04CA5F1
:102A60005DA569E070E0CE010E94CF101BAE8E0123
:102A700006581F4FF80184A1882349F045895689DB
:102A80006CE070E0CE010E94CF10F80114A281E04A
:102A9000F7018083CE01DF91CF911F910F91FF90BD
:102AA000EF90DF90CF90BF90AF909F908F907F90EE
:102AB0006F900C945B12712C66CF2F923F924F92C5
:102AC0005F926F927F928F929F92AF92BF92CF92BE
:102AD000DF92EF92FF920F931F93CF93DF93CDB7C7
:102AE000DEB72C970FB6F894DEBF0FBECDBF8C01BA
:102AF000CDB6DEB684E392E00E947A1E882309F404
:102B0000B5C184E392E00E94DA1C181619060CF095
:102B1000ADC11801F8EB2F1AFEEF3F0A84E392E0F3
:102B20000E94DA1C181619060CF0A0C1F101E08011
:102B3000F12C84E392E00E94061DE00EF11EF701E5
:102B4000E85FFE4F8083F10180819801280F311DDD
:102B5000F901E85FFE4F90819A3031F08F3321F018
:102B60008F5FF1018083DACFF901E85FFE4F1082B9
:102B70008330B0F06AE370E0C801885F9E4F0E9426
:102B800093226C01009761F04C012FEF821A920A98
:102B90006AE370E0C4010E9493227C01009731F542
:102BA00080E0F1011082811103C06DE571E002C087
:102BB00066E571E084E392E02C960FB6F894DEBFF0
:102BC0000FBECDBFDF91CF911F910F91FF90EF907E
:102BD000DF90CF90BF90AF909F908F907F906F903D
:102BE0005F904F903F902F900C94221B2DB73EB7D3
:102BF0003A8729878C199D096C0131E0C31AD108E5
:102C0000EDB7FEB7E81BF90B0FB6F894FEBF0FBE89
:102C1000EDBF2DB73EB72F5F3F4F5901A601B4015D
:102C2000C9010E948A22F501EC0DFD1D10826AE3A4
:102C300084E392E00E94241B6DE771E0C5010E94CD
:102C40009E22892B09F0AAC03FEFE31AF30A65E63A
:102C500071E0C7010E949E22892B51F40E5F1F4F25
:102C600060E0C8010E941F0EC8010E94980C84C039
:102C700069E671E0C7010E949E22892B89F40E5FEC
:102C80001F4F60E0C8010E941F0E60E070E0C801A5
:102C90000E940C0E61E070E0C8010E940C0E6CC036
:102CA0006EE671E0C7010E949E22892B09F066C082
:102CB0000E5F1F4F60E070E0C8010E94620C298324
:102CC0003A834B835C836D837E838F83988789806F
:102CD0009A80AB80BC80CD80DE80EF80F88460E796
:102CE00070E084E392E00E94FF1A29E030E0B50131
:102CF000A40184E392E00E94CB1C6EE670E084E3C2
:102D000092E00E94FF1A29E030E0B701A60184E3B7
:102D100092E00E94CB1C61E070E0C8010E94620C4E
:102D200029833A834B835C836D837E838F8398876B
:102D300089809A80AB80BC80CD80DE80EF80F88473
:102D40006AE670E084E392E00E94FF1A29E030E036
:102D5000B501A40184E392E00E94CB1C68E670E018
:102D600084E392E00E94FF1A29E030E0B701A60157
:102D700084E392E00E94CB1C81E017C06AE370E01C
:102D8000C7010E9493225C01009771F06CE270E031
:102D90000E9493226C01892B81F406C065E771E0E3
:102DA00084E392E00E94221B80E0E985FA850FB659
:102DB000F894FEBF0FBEEDBFF4CE2DB73EB73C87F3
:102DC0002B873FEFA31AB30AC5018E199F093C0157
:102DD000E1E06E1A71082DB73EB7281B390B0FB60C
:102DE000F8943EBF0FBE2DBF8DB79EB701964C0124
:102DF000A301B7010E948A22F401E60DF71D10829B
:102E0000F60111926F01C5010E947D222B013C0148
:102E1000C6010E947D226B017C0161E871E0C40162
:102E20000E949E22892B21F4F801EC5BFF4F0AC01F
:102E300063E771E0C4010E949E22892B71F4F801BE
:102E4000E955FF4F40825182628273823496C0827C
:102E5000D182E282F38281E001C080E02B853C8553
:102E60000FB6F8943EBF0FBE2DBF9FCF0FB6F8949C
:102E7000DEBE0FBECDBE2C960FB6F894DEBF0FBEE1
:102E8000CDBFDF91CF911F910F91FF90EF90DF9019
:102E9000CF90BF90AF909F908F907F906F905F90FA
:102EA0004F903F902F9008958C01EC012296CE0117
:102EB0000E949A0B780127EFE20EF11C580135EEC3
:102EC000A30EB11C680147EBC41A4EEFD40AC70128
:102ED0000E94F0014C01CE010E94F30B8114910479
:102EE00039F0B401CE010E94540FCE010E949A0B1A
:102EF000C7010E9428020097E1F08530910549F052
:102F00008630910551F00397A1F4CE010E946D1017
:102F100008C0CE010E943F0E0CC0CE010E94350CAD
:102F200008C0CE010E949514C7010E942802039791
:102F3000C1F3CE010E949514F5018081918195FF26
:102F4000C6CF0E942A18F6014080518062807380AB
:102F50009B01AC01241935094609570929013A0199
:102F60003DE2431631E053066104710408F4AFCF2B
:102F70006083718382839383C8010E945D15A7CF0C
:102F8000CF93DF9340E051EE60E070E084E392E0A5
:102F90000E94F21D8DE491E00E942C1AEC010E9427
:102FA000660ED0931902C0931802CE01DF91CF9123
:102FB0000C94AB0E80911802909119020C94541746
:102FC0001F920F920FB60F9211242F933F938F935E
:102FD0009F93AF93BF9380911B0290911C02A0918D
:102FE0001D02B0911E0230911A0220E3230F2D37EB
:102FF00020F44096A11DB11D05C023EB230F41967F
:10300000A11DB11D20931A0280931B0290931C02F4
:10301000A0931D02B0931E0280911F029091200286
:10302000A0912102B09122020196A11DB11D8093B1
:103030001F0290932002A0932102B0932202BF911D
:10304000AF919F918F913F912F910F900FBE0F9055
:103050001F9018952FB7F89460911B0270911C0275
:1030600080911D0290911E022FBF08953FB7F894E2
:1030700080911F0290912002A0912102B091220222
:1030800026B5A89B02C02F3F99F43FBFBA2FA92FA6
:10309000982F8827820F911DA11DB11DBC01CD0164
:1030A00046E0660F771F881F991F4A95D1F708954C
:1030B0000196A11DB11DE9CFCF92DF92EF92FF9251
:1030C000CF93DF936B017C010E943618EB01C11492
:1030D000D104E104F10479F00E9436186C1B7D0BD9
:1030E000683E7340A0F381E0C81AD108E108F108F6
:1030F000C851DC4FECCFDF91CF91FF90EF90DF9084
:10310000CF900895019739F0880F991F880F991F64
:1031100002970197F1F70895789484B5826084BD91
:1031200084B5816084BD85B5826085BD85B58160CB
:1031300085BDEEE6F0E0808181608083E1E8F0E02B
:103140001082808182608083808181608083E0E85A
:10315000F0E0808181608083E1EBF0E08081846039
:103160008083E0EBF0E0808181608083EAE7F0E03B
:10317000808184608083808182608083808181609F
:1031800080838081806880831092C10008951F929F
:103190000F920FB60F9211242F933F934F935F938B
:1031A0006F937F938F939F93AF93BF93EF93FF930F
:1031B0008091230290912402892B29F0E09123022F
:1031C000F09124020995FF91EF91BF91AF919F91EA
:1031D0008F917F916F915F914F913F912F910F90C0
:1031E0000FBE0F901F9018951F920F920FB60F925F
:1031F00011242F933F934F935F936F937F938F93FC
:103200009F93AF93BF93EF93FF938091250290918B
:103210002602892B29F0E0912502F09126020995DA
:10322000FF91EF91BF91AF919F918F917F916F919E
:103230005F914F913F912F910F900FBE0F901F9074
:103240001895833081F028F4813099F08230A1F014
:1032500008958630A9F08730B9F08430D1F4809198
:1032600080008F7D03C0809180008F7780938000E5
:10327000089584B58F7702C084B58F7D84BD08958D
:103280008091B0008F7703C08091B0008F7D8093D4
:10329000B0000895CF93DF9390E0FC01E752FF4F19
:1032A0002491FC01E351FF4F8491882361F190E068
:1032B000880F991FFC01EB5EFE4FC591D491FC0174
:1032C000E55FFE4FA591B491611109C09FB7F894D5
:1032D0008881209582238883EC912E230BC0623055
:1032E00061F49FB7F8943881822F80958323888377
:1032F000EC912E2B2C939FBF06C08FB7F894E881DA
:103300002E2B28838FBFDF91CF9108951F93CF93EA
:10331000DF93282F30E0F901EB53FF4F8491F9013F
:10332000E752FF4FD491F901E351FF4FC491CC23F1
:10333000C9F0162F81110E942119EC2FF0E0EE0F39
:10334000FF1FE55FFE4FA591B4918FB7F89411115F
:1033500005C09C91ED2FE095E92302C0EC91ED2B87
:10336000EC938FBFDF91CF911F910895CF93DF939F
:10337000282F30E0F901EB53FF4F8491F901E75218
:10338000FF4FD491F901E351FF4FC491CC2391F049
:1033900081110E942119EC2FF0E0EE0FFF1FEF5F6B
:1033A000FE4FA591B491EC91ED2381E090E021F4E2
:1033B00080E002C080E090E0DF91CF9108958F928D
:1033C0009F92AF92BF92CF92DF92EF92FF920F93B4
:1033D0001F93CF93DF937C018B016C0182E0C80EB9
:1033E000D11C4701E5E08E0E911CC0E0D0E0F60153
:1033F00061916F014AE050E0C8010E94DF1B5C014F
:103400006EE2C8010E94241B8A0D9B1DC80FD91FA4
:10341000C814D90461F74AE050E0F7016581C8019A
:103420000E94DF1B8C0F9D1FDF91CF911F910F9189
:10343000FF90EF90DF90CF90BF90AF909F908F90D4
:103440000895E7E2F2E087EE91E0918380831282B3
:1034500013821482158208950C9450210C94E52156
:10346000813039F018F0823051F0089510926E00DA
:10347000089580916F008D7F80936F0008958091F3
:1034800070008D7F8093700081E08093B000809108
:10349000B100887F84608093B1001092B3000895DA
:1034A000CF93C82F809106018C1307C0EFE1F1E0A4
:1034B000E4918FEF8093060101C0EFEF8E2F0E9401
:1034C000301A60E08C2FCF910C9486191F920F92C6
:1034D0000FB60F9211242F933F934F935F936F93E7
:1034E0007F938F939F93AF93BF93EF93FF938091BD
:1034F000300290913102A0913202B0913302892BB7
:103500008A2B8B2B51F180912D02E0912E02F091AC
:103510002F0290818927808380913002909131021F
:10352000A0913202B0913302181619061A061B0632
:10353000C4F48091300290913102A0913202B09196
:1035400033020197A109B1098093300290933102AF
:10355000A0933202B093330204C0809106010E940E
:10356000501AFF91EF91BF91AF919F918F917F91F1
:103570006F915F914F913F912F910F900FBE0F90E0
:103580001F901895CF92DF92EF92FF920F931F93A7
:10359000CF93DF936C01EB017B01E40EF51E00E09D
:1035A00010E0CE15DF0561F06991D601ED91FC9137
:1035B0000190F081E02DC6010995080F191FF1CF88
:1035C000C801DF91CF911F910F91FF90EF90DF9095
:1035D000CF9008956115710579F0FB0101900020ED
:1035E000E9F73197AF01461B570BDC01ED91FC91D8
:1035F0000280F381E02D099480E090E00895EF923D
:10360000FF920F931F93CF93DF937C01FB0100E0A8
:1036100010E06491EF012196662361F0D701ED91EE
:10362000FC910190F081E02DC7010995080F191F49
:10363000FE01EFCFC801DF91CF911F910F91FF9055
:10364000EF9008950C94EA1ADC01ED91FC91019041
:10365000F081E02D09948F929F92AF92BF92CF920A
:10366000DF92EF92FF920F931F93CF93DF93CDB72B
:10367000DEB7A1970FB6F894DEBF0FBECDBF6C01C9
:10368000142FE52FCB01022F19A2223008F40AE0F3
:103690007E0121E2E20EF11C802E912CA12CB12C96
:1036A000612F7E2FA50194010E94CB1E029F10194D
:1036B000112481E0E81AF1081A3014F4105D01C0F9
:1036C000195CF7011083122FE32FCA01232B242B3F
:1036D000252B31F7B701C6010E94EA1AA1960FB651
:1036E000F894DEBF0FBECDBFDF91CF911F910F9138
:1036F000FF90EF90DF90CF90BF90AF909F908F9012
:103700000895CF92DF92EF92FF920F931F93CF9382
:10371000DF93EC016A017B012115310579F4E88121
:10372000F9810190F081E02D642FDF91CF911F91FD
:103730000F91FF90EF90DF90CF9009942A303105E0
:10374000E9F477FF1AC06DE20E94241B8C01442724
:103750005527BA014C195D096E097F092AE0CE018F
:103760000E942B1B800F911FDF91CF911F910F9112
:10377000FF90EF90DF90CF9008952AE0B701A60167
:10378000CE01DF91CF911F910F91FF90EF90DF90CD
:10379000CF900C942B1B9A01AB01770F660B770B24
:1037A0000C94811B2115310541F4DC01ED91FC9154
:1037B0000190F081E02D642F09940C942B1B9A0149
:1037C000462F50E060E070E00C94D21B4F925F9265
:1037D0006F927F928F929F92AF92BF92CF92DF9221
:1037E000EF92FF92CF93DF93EC016A017B01B22E3F
:1037F0009A01AB01C701B6010E944B21882319F041
:1038000069EE71E027C026013701E89477F82FEFC1
:103810003FEF4FE75FE7C301B2010E944B218111E7
:103820000DC02FEF3FEF4FE75FE7C301B2010E94EA
:103830007A1F18161CF46DEE71E00CC02FEF3FEFED
:103840004FE75FE4C701B6010E94D92018169CF427
:1038500061EF71E0CE01DF91CF91FF90EF90DF90AB
:10386000CF90BF90AF909F908F907F906F905F9020
:103870004F900C94EA1A2FEF3FEF4FE75FECC70130
:10388000B6010E947A1F87FDE3CF20E030E0A90156
:10389000C701B6010E947A1F87FF0AC06DE2CE0100
:1038A0000E94241B4C01F7FAF094F7F8F09402C040
:1038B000812C912CA12C60E070E080E09FE3AB14A0
:1038C00041F020E030E040E251E40E947F1FA394E9
:1038D000F6CF9B01AC01C701B6010E940E1F2B0160
:1038E0003C010E94F81F6B017C010E9427209B0174
:1038F000AC01C301B2010E940D1F2B013C012AE063
:10390000B701A601CE010E942B1B7C01E80CF91C1B
:10391000BB2039F065EF71E0CE010E94EA1AE80E93
:10392000F91EDB2CDD2039F120E030E040E251E4EB
:10393000C301B2010E94DE202B013C010E94F11F55
:103940004B01770FAA08BB082AE030E0B501A401BB
:10395000CE010E94811BE80EF91EC501B4010E9430
:1039600029209B01AC01C301B2010E940D1F2B0154
:103970003C01DA94D7CFC701DF91CF91FF90EF9050
:10398000DF90CF90BF90AF909F908F907F906F907F
:103990005F904F9008950C94E61B0E948C180E9433
:1039A000C017CEEADDE10E94DA172097E1F30E940A
:1039B000AE1DF9CFFC0124853585F901E05CFF4F90
:1039C00080819181329620813181821B930B8F738C
:1039D00099270895DC011C96ED91FC911D97DF015C
:1039E000A05CBF4F2D913C91119712968D919C91A7
:1039F00011972817390739F08D919C91E80FF91F1D
:103A0000808190E008958FEF9FEF0895FC01A485D9
:103A1000B585FD01E05CFF4F2081318132968081C8
:103A200091812817390779F080819181A80FB91FFA
:103A30008C91208131812F5F3F4F2F73332731834A
:103A4000208390E008958FEF9FEF0895FC0181A1FE
:103A5000882329F0A489B5898C9186FFFBCF11A218
:103A600008950F931F93CF93DF93FC01A685B7852D
:103A70008D01005C1F4FE8018881998101968F7349
:103A80009927AD014E5B5F4FEA012881398182178A
:103A90009307D1F3E80128813981A20FB31F6C93FA
:103AA000A685B785A05CBF4F11969C938E93A6897F
:103AB000B7892C9181E090E0078C02C0880F991F94
:103AC0000A94E2F7822B8C9381E081A30488F58924
:103AD000E02D80818064808381E090E0DF91CF9150
:103AE0001F910F91089508951F920F920FB60F9294
:103AF00011242F934F935F938F939F93EF93FF9393
:103B00008091C00082FD1CC02091C6008091DA0225
:103B10009091DB0201968F7399274091DC025091BE
:103B2000DD028417950771F0E091DA02F091DB0273
:103B3000E656FD4F20839093DB028093DA0202C0A9
:103B40008091C600FF91EF919F918F915F914F916E
:103B50002F910F900FBE0F901F90189584E392E065
:103B60000E94DA1C892B11F00C94731D08951F928A
:103B70000F920FB60F9211242F933F938F939F9321
:103B8000EF93FF93209196023091970280919802D3
:103B9000909199022817390731F48091C1008F7DE7
:103BA0008093C10014C0E0919802F0919902EA5A02
:103BB000FD4F2081809198029091990201968F7318
:103BC000992790939902809398022093C600FF91C1
:103BD000EF919F918F913F912F910F900FBE0F907A
:103BE0001F901895CF92DF92EF92FF920F931F9341
:103BF000CF93DF93EC016A017B014115514E6105C2
:103C0000710509F1EC89FD8981E090E008A002C00E
:103C1000880F991F0A94E2F7808360E079E08DE3D2
:103C200090E0A70196010E94CB1E89019A010150E4
:103C3000110921093109369527951795079598019E
:103C400001151041A8F0EC89FD89108260E874E844
:103C50008EE190E0A70196010E94CB1EDA01C90116
:103C60000197A109B109B695A795979587959C01EC
:103C7000E889F9893083EA89FB89208319A2EE89D2
:103C8000FF89408181E090E09C010C8C02C0220FF2
:103C9000331F0A94E2F7242B2083EE89FF894081A9
:103CA0009C010D8C02C0220F331F0A94E2F7242BD3
:103CB0002083EE89FF8940819C010E8C02C0220F77
:103CC000331F0A94E2F7242B2083EE89FF89208199
:103CD0000F8C02C0880F991F0A94E2F78095822307
:103CE0008083DF91CF911F910F91FF90EF90DF9034
:103CF000CF90089581E00895E4E3F2E01382128208
:103D000088EE93E0A0E0B0E084839583A683B78338
:103D10008BEF91E0918380838AE992E09587848795
:103D200086E592E09787868785EC90E0918B808B83
:103D300084EC90E0938B828B80EC90E0958B848B6D
:103D400081EC90E0978B868B82EC90E0918F808F56
:103D500086EC90E0938F828F84E0848F83E0858F60
:103D600087E0868F85E0878F81E080A30895AA1B76
:103D7000BB1B51E107C0AA1FBB1FA617B70710F056
:103D8000A61BB70B881F991F5A95A9F78095909588
:103D9000BC01CD010895A1E21A2EAA1BBB1BFD0197
:103DA0000DC0AA1FBB1FEE1FFF1FA217B307E4071A
:103DB000F50720F0A21BB30BE40BF50B661F771F72
:103DC000881F991F1A9469F7609570958095909552
:103DD0009B01AC01BD01CF0108950E94FE1EA59F6D
:103DE000900DB49F900DA49F800D911D11240895F6
:103DF000EE0FFF1F0590F491E02D0994A29FB001F2
:103E0000B39FC001A39F700D811D1124911DB29F0E
:103E1000700D811D1124911D08955058BB27AA27AC
:103E20000E94251F0C949F200E94912038F00E9430
:103E3000982020F039F49F3F19F426F40C948E203A
:103E40000EF4E095E7FB0C948820E92F0E94B02047
:103E500058F3BA17620773078407950720F079F4BF
:103E6000A6F50C94D2200EF4E0950B2EBA2FA02DBF
:103E70000B01B90190010C01CA01A0011124FF2717
:103E8000591B99F0593F50F4503E68F11A16F04012
:103E9000A22F232F342F4427585FF3CF4695379511
:103EA0002795A795F0405395C9F77EF41F16BA0BD6
:103EB000620B730B840BBAF09150A1F0FF0FBB1F84
:103EC000661F771F881FC2F70EC0BA0F621F731FCD
:103ED000841F48F4879577956795B795F7959E3F2A
:103EE00008F0B0CF9395880F08F09927EE0F9795BB
:103EF000879508950E94642008F481E008950E9447
:103F0000931F0C949F200E94982058F00E949120AB
:103F100040F029F45F3F29F00C94882051110C9453
:103F2000D3200C948E200E94B02068F39923B1F323
:103F3000552391F3951B550BBB27AA2762177307CF
:103F4000840738F09F5F5F4F220F331F441FAA1F63
:103F5000A9F335D00E2E3AF0E0E832D0915050401F
:103F6000E695001CCAF72BD0FE2F29D0660F771FCD
:103F7000881FBB1F261737074807AB07B0E809F0B3
:103F8000BB0B802DBF01FF2793585F4F3AF09E3F38
:103F9000510578F00C9488200C94D3205F3FE4F313
:103FA000983ED4F3869577956795B795F7959F5F7B
:103FB000C9F7880F911D9695879597F90895E1E0C7
:103FC000660F771F881FBB1F621773078407BA0726
:103FD00020F0621B730B840BBA0BEE1F88F7E09581
:103FE00008950E94F81F6894B1110C94D32008958D
:103FF0000E94B82088F09F5798F0B92F9927B751A1
:10400000B0F0E1F0660F771F881F991F1AF0BA957C
:10401000C9F714C0B13091F00E94D220B1E00895E8
:104020000C94D220672F782F8827B85F39F0B93FDA
:10403000CCF3869577956795B395D9F73EF490952F
:104040008095709561957F4F8F4F9F4F0895E894AD
:1040500009C097FB3EF490958095709561957F4FD0
:104060008F4F9F4F9923A9F0F92F96E9BB2793957E
:10407000F695879577956795B795F111F8CFFAF48E
:10408000BB0F11F460FF1BC06F5F7F4F8F4F9F4FBF
:1040900016C0882311F096E911C0772321F09EE81D
:1040A000872F762F05C0662371F096E8862F70E083
:1040B00060E02AF09A95660F771F881FDAF7880F5D
:1040C0009695879597F90895990F0008550FAA0BB3
:1040D000E0E8FEEF16161706E807F907C0F012161B
:1040E0001306E407F50798F0621B730B840B950B1E
:1040F00039F40A2661F0232B242B252B21F4089573
:104100000A2609F4A140A6958FEF811D811D08950F
:1041100097F99F6780E870E060E008959FEF80EC7A
:10412000089500240A94161617061806090608951D
:1041300000240A9412161306140605060895092E83
:104140000394000C11F4882352F0BB0F40F4BF2BF2
:1041500011F460FF04C06F5F7F4F8F4F9F4F089532
:1041600057FD9058440F551F59F05F3F71F0479528
:10417000880F97FB991F61F09F3F79F0879508950D
:10418000121613061406551FF2CF4695F1DF08C02C
:10419000161617061806991FF1CF86957105610549
:1041A00008940895E894BB2766277727CB0197F9F1
:1041B00008950E94642008F48FEF08950E94F12072
:1041C0000C949F200E94912038F00E94982020F0AB
:1041D000952311F00C9488200C948E2011240C94BB
:1041E000D3200E94B02070F3959FC1F3950F50E04B
:1041F000551F629FF001729FBB27F00DB11D639F99
:10420000AA27F00DB11DAA1F649F6627B00DA11D3E
:10421000661F829F2227B00DA11D621F739FB00DE4
:10422000A11D621F839FA00D611D221F749F332754
:10423000A00D611D231F849F600D211D822F762FED
:104240006A2F11249F5750409AF0F1F088234AF0CA
:10425000EE0FFF1FBB1F661F771F881F9150504036
:10426000A9F79E3F510580F00C9488200C94D32030
:104270005F3FE4F3983ED4F3869577956795B795BD
:10428000F795E7959F5FC1F7FE2B880F911D9695D7
:10429000879597F908950E946420880B990B0895DB
:1042A000CF93DF938230910510F482E090E0E091AB
:1042B000E002F091E10220E030E0C0E0D0E0309791
:1042C00011F14081518148175907C0F0481759072B
:1042D00061F482819381209719F09B838A832BC09C
:1042E0009093E1028093E00226C02115310519F078
:1042F0004217530718F49A01BE01DF01EF01028053
:10430000F381E02DDCCF2115310509F1281B390B94
:104310002430310590F412968D919C91139761157C
:10432000710521F0FB019383828304C09093E10225
:104330008093E002FD01329644C0FD01E20FF31FBD
:1043400081939193225031092D933C933AC020914F
:10435000DE023091DF02232B41F4209102013091E3
:1043600003013093DF022093DE022091000130919F
:1043700001012115310541F42DB73EB740910401EB
:1043800050910501241B350BE091DE02F091DF0214
:10439000E217F307A0F42E1B3F0B2817390778F01C
:1043A000AC014E5F5F4F2417350748F04E0F5F1F7B
:1043B0005093DF024093DE028193919302C0E0E0CC
:1043C000F0E0CF01DF91CF9108950F931F93CF932A
:1043D000DF93009709F48CC0FC013297138212829C
:1043E0000091E0021091E1020115110581F4208194
:1043F0003181820F931F2091DE023091DF02281756
:10440000390779F5F093DF02E093DE0271C0D8013D
:1044100040E050E0AE17BF0750F412962D913C914A
:104420001397AD012115310509F1D901F3CF9D0194
:10443000DA013383228360817181860F971F82178F
:10444000930769F4EC0128813981260F371F2E5F0D
:104450003F4F318320838A819B8193838283452BC5
:1044600029F4F093E102E093E00242C01396FC933A
:10447000EE931297ED01499159919E01240F351F3A
:10448000E217F30771F480819181840F951F0296E2
:1044900011969C938E938281938113969C938E9315
:1044A0001297E0E0F0E0D80112968D919C9113975D
:1044B000009719F0F8018C01F6CF8D919C9198012D
:1044C0002E5F3F4F820F931F2091DE023091DF025B
:1044D0002817390769F4309729F41092E1021092F5
:1044E000E00202C0138212821093DF020093DE0208
:1044F000DF91CF911F910F910895662777270C9434
:10450000D52491110C943226803219F089508550AF
:10451000C8F70895FB01DC0102C001900D924150E3
:104520005040D8F70895FC018191861721F0882327
:10453000D9F7992708953197CF010895FB01DC0140
:104540008D91019080190110D9F3990B0895FB0109
:10455000DC0101900D920020E1F70895BB274A305D
:1045600031F4992322F4BDE2909581959F4F0C94EC
:10457000BA22BB27FB015527AA27880F991FAA1F1C
:10458000A41710F0A41B83955051B9F7A05DAA336E
:1045900008F0A95DA193009779F7B111B193119239
:1045A000CB010C946326AEE0B0E0E9EDF2E20C94AE
:1045B0002D270D891E898F89988D26E02C831A83DB
:1045C000098397FF02C080E090E801979E838D8366
:1045D000AE01455E5F4F698D7A8DCE0101960E94D6
:1045E00003234D815E8157FD0AC02F813885421714
:1045F00053070CF49A01F801E20FF31F10822E9674
:10460000E4E00C944927ACE0B0E0E9E0F3E20C947C
:104610001F277C016B018A01FC01178216828381AE
:1046200081FFBDC1CE0101964C01F7019381F601D6
:1046300093FD859193FF81916F01882309F4ABC1AC
:10464000853239F493FD859193FF81916F01853215
:1046500029F4B70190E00E947326E7CF512C312C4A
:1046600020E02032A0F48B3269F030F4803259F02F
:10467000833269F420612CC08D3239F0803339F4F3
:10468000216026C02260246023C0286021C027FD4D
:1046900027C030ED380F3A3078F426FF06C0FAE034
:1046A0005F9E300D1124532E13C08AE0389E300DCA
:1046B0001124332E20620CC08E3221F426FD6BC1F2
:1046C000206406C08C3611F4206802C0883641F49C
:1046D000F60193FD859193FF81916F018111C1CF07
:1046E000982F9F7D9554933028F40C5F1F4FFFE364
:1046F000F9830DC0833631F0833771F0833509F0CB
:104700005BC022C0F801808189830E5F1F4F442463
:104710004394512C540115C03801F2E06F0E711C06
:10472000F801A080B18026FF03C0652D70E002C0B3
:104730006FEF7FEFC5012C870E9458262C01830163
:104740002C852F77222E17C03801F2E06F0E711CD6
:10475000F801A080B18026FF03C0652D70E002C083
:104760006FEF7FEFC5012C870E944D262C012C8511
:104770002068222E830123FC1BC0832D90E0481665
:104780005906B0F4B70180E290E00E9473263A9493
:10479000F4CFF50127FC859127FE81915F01B701D8
:1047A00090E00E94732631103A94F1E04F1A5108BC
:1047B0004114510471F7E5C0843611F0893639F59A
:1047C000F80127FF07C060817181828193810C5FAE
:1047D0001F4F08C060817181072E000C880B990B58
:1047E0000E5F1F4F2F76722E97FF09C09095809510
:1047F000709561957F4F8F4F9F4F2068722E2AE0F2
:1048000030E0A4010E94AB26A82EA81844C085372A
:1048100029F42F7EB22E2AE030E025C0F22FF97F56
:10482000BF2E8F36C1F018F4883579F0B4C08037C8
:1048300019F0883721F0AFC02F2F2061B22EB4FEBF
:104840000DC08B2D8460B82E09C024FF0AC09F2F95
:104850009660B92E06C028E030E005C020E130E0C7
:1048600002C020E132E0F801B7FE07C0608171812B
:10487000828193810C5F1F4F06C06081718180E04F
:1048800090E00E5F1F4FA4010E94AB26A82EA8182F
:10489000FB2DFF777F2E76FE0BC0372D3E7FA514B4
:1048A00050F474FE0AC072FC08C0372D3E7E05C06D
:1048B000BA2C372D03C0BA2C01C0B52C34FF0DC063
:1048C000FE01EA0DF11D8081803311F4397E09C0AB
:1048D00032FF06C0B394B39404C0832F867809F0E6
:1048E000B39433FD13C030FF06C05A2CB31418F430
:1048F000530C5B18B32CB31468F4B70180E290E05A
:104900003C870E947326B3943C85F5CFB31410F412
:104910003B1801C0312C34FF12C0B70180E390E096
:104920003C870E9473263C8532FF17C031FD03C0CF
:1049300088E790E002C088E590E0B7010CC0832FC3
:10494000867859F031FF02C08BE201C080E237FD6A
:104950008DE2B70190E00E947326A51438F4B701E8
:1049600080E390E00E9473265A94F7CFAA94F40152
:10497000EA0DF11D8081B70190E00E947326A1101D
:10498000F5CF332009F451CEB70180E290E00E94C8
:1049900073263A94F6CFF7018681978102C08FEF94
:1049A0009FEF2C96E2E10C943B27A0E0B0E0EBED0A
:1049B000F4E20C942327EC017B016115710519F0D9
:1049C000DB018D939C938E010F5F1F4F7880872DA5
:1049D00090E00E948122892B11F0E801F4CFBDE222
:1049E0007B1205C00F5F1F4F7980C1E008C0EBE26A
:1049F0007E1204C08E010E5F1F4F7980C0E06801F7
:104A0000F1E0CF1AD10843E050E068E271E0C6015E
:104A10000E943526892BF1F4680122E0C20ED11CD8
:104A200045E050E063E271E0C6010E943526892B23
:104A300021F4680187E0C80ED11CE114F10419F0DB
:104A4000D701CD92DC92C111FFC060E070E080E838
:104A50009FE703C143E050E060E271E0C6010E94BD
:104A60003526892B51F4E114F10409F4F2C00E5FEC
:104A70001F4FF70111830083ECC0680160E070E014
:104A8000CB0100E010E0F601D0EDD70DDA3058F59B
:104A90002C2F2260622E2C2F2870C2FF05C02111FE
:104AA00028C00F5F1F4F25C0222311F001501109AC
:104AB000A5E0B0E09B01AC010E94ED1E4B015C0142
:104AC000880C991CAA1CBB1CC501B4016D0F711D7B
:104AD000811D911D6839A9E97A078A07A9E19A071A
:104AE00040F0C66005C0DE3F51F4C3FD44C0C8605D
:104AF0006C2EBFEFCB1ADB0A7080C62DC4CF2D2FD2
:104B00002F7D2531C1F540814D3211F4C06106C0C1
:104B10004B3221F0319621E030E006C03296D601CA
:104B200011964C9122E030E0A0EDA40FAA3018F0CD
:104B3000E21BF30B20C040E050E04038BCE05B07D4
:104B40005CF49A01220F331F220F331F420F531FB1
:104B5000440F551F4A0F511D3196DF0111972C91BB
:104B6000A0EDA20FAA3048F3C4FF03C051954195B0
:104B70005109040F151FC1FF07C0E114F10421F012
:104B80003197D701ED93FC930E942720C370C33067
:104B900019F06B017C0106C06B017C01F7FAF094FF
:104BA000F7F8F09420E030E0A901C701B6010E94B7
:104BB0007A1F882309F445C017FF06C01195019597
:104BC0001109CFE3D1E002C0C7E5D1E05E01B8E151
:104BD000AB1AB1084601BE2DAF2D90E2E92EF12CA3
:104BE0000E151F0584F0FE012591359145915491D4
:104BF000B4018B2F9A2F0E94DE204B01B82FA92FD2
:104C00000E191F09EDCF2497F594E794CA15DB051B
:104C100039F76401EB2EFA2E8E2D880F8F2D881F09
:104C20008F3F49F020E030E0A901C701B6010E94A2
:104C30007A1F811106C082E290E09093E302809394
:104C4000E202C701B60109C060E070E080E89FEFB2
:104C500004C060E070E080EC9FE7CDB7DEB7EEE027
:104C60000C943F27992788270895FB01DC014150C8
:104C7000504088F08D9181341CF08B350CF4805EAF
:104C8000659161341CF06B350CF4605E861B61111C
:104C900071F3990B0895881BFCCFFC0105906150BE
:104CA00070400110D8F7809590958E0F9F1F089542
:104CB000FC016150704001900110D8F780959095EB
:104CC0008E0F9F1F0895DC01FC01672F71917723E0
:104CD000E1F7329704C07C916D9370836291AE17B7
:104CE000BF07C8F308950F931F93CF93DF93FB0182
:104CF000238121FD03C08FEF9FEF28C022FF16C044
:104D000046815781248135814217530744F4A0819D
:104D1000B1819D012F5F3F4F318320838C9326818A
:104D200037812F5F3F4F3783268310C0EB01092F58
:104D3000182F0084F185E02D0995892BE1F68E81ED
:104D40009F8101969F838E83812F902FDF91CF913A
:104D50001F910F910895FA01AA27283051F12031AF
:104D600081F1E8946F936E7F6E5F7F4F8F4F9F4FFF
:104D7000AF4FB1E03ED0B4E03CD0670F781F891F41
:104D80009A1FA11D680F791F8A1F911DA11D6A0F0F
:104D9000711D811D911DA11D20D009F468943F91C2
:104DA0002AE0269F11243019305D3193DEF6CF01C1
:104DB0000895462F4770405D4193B3E00FD0C9F787
:104DC000F6CF462F4F70405D4A3318F0495D31FDF4
:104DD0004052419302D0A9F7EACFB4E0A695979547
:104DE000879577956795BA95C9F70097610571051D
:104DF00008959B01AC010A2E069457954795379567
:104E00002795BA95C9F7620F731F841F951FA01DC0
:104E10000895F999FECF92BD81BDF89A992780B582
:104E20000895262FF999FECF1FBA92BD81BD20BDEE
:104E30000FB6F894FA9AF99A0FBE019608952F9238
:104E40003F924F925F926F927F928F929F92AF921A
:104E5000BF92CF92DF92EF92FF920F931F93CF9367
:104E6000DF93CDB7DEB7CA1BDB0B0FB6F894DEBFFE
:104E70000FBECDBF09942A88398848885F846E8424
:104E80007D848C849B84AA84B984C884DF80EE806E
:104E9000FD800C811B81AA81B981CE0FD11D0FB677
:104EA000F894DEBF0FBECDBFED010895F894FFCF9B
:104EB0000000E4022000FF00004000140054000045
:104EC0000000006704C21A4475616C0053696E6784
:104ED0006C650061575849726F6E73002573202509
:104EE000730025632025642E256400464F5353200C
:104EF000202D2020464F5348004631524D42002578
:104F00007320202564003A4F4B3A0D0A003A45526F
:104F1000523A0D0A004F464600534156450044554B
:104F20004D50003200494E56414C49440043414CDB
:104F3000003100030103010301030101010103200A
:104F400020030101030301032020030301030101E6
:104F500003202020000000030003000320020203BE
:104F60000002030301030302020302020000030321
:104F70000203030203202020010101000000006D54
:104F800004AC04000000006E0498040000000090CF
:104F900004A20400000000DF196E616E00696E66F5
:104FA000006F7666002E0000000000311DC21ADA84
:084FB0001C061DEA1C261D0071
:00000001FF
