:100000000C94E5000C940A1A0C94371A0C940D0108
:100010000C940D010C940D010C940D010C94A91B72
:100020000C940D010C940D010C940D010C940D0118
:100030000C940D010C9468020C940D010C940D01AC
:100040000C9423190C940D010C94B71E0C94FA1EF9
:100050000C940D010C940D010C940D010C940D01E8
:100060000C940D010C940D013A4552523A0D0A00C0
:100070003A4F4B3A0D0A00494E56414C4944003222
:100080000031002C003B323D002C00313D003A4352
:10009000555252454E543A002C003B323D002C0044
:1000A000313D0053544F5245443A0044554D5000A1
:1000B00053415645004F46460043414C0020202006
:1000C0002000537462790043414C002564002D2DBB
:1000D0002D0025732020323031352D256400257305
:1000E0000025632025642E256400257320257300D8
:1000F0001F1F0000000000000000000000001F1F84
:100100001F1F000000001F1F1F1F1F1F1F1F1F1F7B
:1001100000000000000E0E0E0000030303030000A9
:100120000000181818180000000E1317171F0E00F3
:1001300000000007000201000003040600000000A8
:1001400000000000010204081020408001020408A1
:100150001020010204081020040404040404040410
:100160000202020202020303030303030000000071
:1001700023002600290000000000250028002B0095
:1001800000000000240027002A00024E414E494E84
:10019000495459494E46CDCCCC3D0AD7233C17B7DC
:1001A000D13877CC2B329595E6241FB14F0A000049
:1001B00020410000C84200401C4620BCBE4CCA1B67
:1001C0000E5AAEC59D74641BBF1F11241FBECFEF16
:1001D000D8E0DEBFCDBF11E0A0E0B1E0E8E2F1E59C
:1001E00002C005900D92A43CB107D9F722E0A4EC1F
:1001F000B1E001C01D92AF39B207E1F710E0C5EEE2
:10020000D0E004C02197FE010E943B20C33ED107ED
:10021000C9F70E94101E0C9492280C940000EF92D3
:100220000F931F93CF93DF93EC01862F688349834D
:100230002A83EB821D821C821F821E8208871A86F7
:1002400019861C861B8691E09D879E87EE2011F003
:1002500010E001C012E0612F0E948D1A612F898188
:100260000E948D1A612F8A810E948D1A88810E94B6
:10027000F91A2B8130E08217930721F483E090E094
:100280009F838E8389810E94F91A2B8130E0821727
:10029000930731F48E819F8121E082279F838E8393
:1002A000DF91CF911F910F91EF900895CF92DF9240
:1002B000EF92FF921F93CF93DF93EC010E946D1991
:1002C0006B017C018E85882359F089859A85029778
:1002D0009A87898789859A8597FF02C01A86198629
:1002E00088810E94F91A2B8130E08217930711F45C
:1002F00013E001C010E089810E94F91A2B8130E0DF
:100300008217930711F481E018278E819F81811B4A
:1003100080FF12C0212F110F330B3F832E832C81BE
:100320003D818270082E000C990B0197820F931F5C
:100330009D838C8381E001C080E09E85992361F0DC
:10034000882351F089859A85883E9B4028F48985C9
:100350009A8549969A8789878091C7019091C801AB
:10036000A091C901B091CA01A7019601281B390BC0
:100370004A0B5B0B2A3031054105510508F45DC07D
:10038000C092C701D092C801E092C901F092CA019F
:100390008A810E94F91A2B8130E08217930781F439
:1003A0008091C5019091C60101969093C6018093FA
:1003B000C5018937910520F083E090E09C878B8709
:1003C0008A810E94F91A3B8121E0232730E08217BD
:1003D000930731F58091C5019091C601892BE1F019
:1003E0008B859C85039719F484E090E008C0809188
:1003F000C401823048F08C3378F486E090E09C872A
:100400008B871092C40108C08D85811102C081E0E4
:1004100001C08CE38093C4011092C6011092C50103
:100420008091C401882349F082508093C4018111D6
:1004300004C085E090E09C878B87DF91CF911F916E
:10044000FF90EF90DF90CF900895FC01F894248105
:1004500035818085823021F4C9018170992705C0DA
:10046000843031F4C901837099279583848302C055
:100470001582148278948085843029F435952795E7
:100480003595279504C0823011F4359527958685DA
:10049000882329F081859285892F992702C080E0E1
:1004A00090E037FF03C0809590950895232B11F0BD
:1004B0000196089580E090E00895FC01838594857D
:1004C000238534852330310511F014861386089571
:1004D0001F920F920FB60F9211242F933F934F93B9
:1004E0005F936F937F938F939F93AF93BF93EF939C
:1004F000FF93E091CC01F091CD010995FF91EF912F
:10050000BF91AF919F918F917F916F915F914F912B
:100510003F912F910F900FBE0F901F901895CB0118
:100520000C944528CB01642F0C944D28CF93DF9376
:10053000EC0160E08E810E94C91A81E090E00E9487
:10054000C51961E08E810E94C91A81E090E00E9485
:10055000C51960E08E810E94C91A84E690E0DF919F
:10056000CF910C94C519AF92BF92CF92DF92EF92C8
:10057000FF920F931F93CF93DF935C017C0187E081
:10058000E80EF11CC0E0D0E0062F10E0670161E04A
:10059000F70181917F010E948D1AB8010C2E02C0D3
:1005A000759567950A94E2F76170F60180810E9463
:1005B000C91A2196C430D10549F7C501DF91CF9101
:1005C0001F910F91FF90EF90DF90CF90BF90AF9071
:1005D0000C949602AF92BF92CF92DF92EF92FF926D
:1005E0000F931F93CF93DF935C017C0187E0E80EAC
:1005F000F11CC0E0D0E0062F10E0670161E0F701D8
:1006000081917F010E948D1AB8010C2E02C0759550
:1006100067950A94E2F76170F60180810E94C91A19
:100620002196C830D10549F7C501DF91CF911F91BF
:100630000F91FF90EF90DF90CF90BF90AF900C9410
:1006400096021F93CF93DF93EC01162F642F8C81BA
:100650000E94C91A8D818F3F19F060E00E94C91A6B
:100660008F85612F84FF06C0CE01DF91CF911F914E
:100670000C94EA0270E084E0759567958A95E1F73D
:10068000CE010E94B302612FCE01DF91CF911F9165
:100690000C94B30240E00C94210361E00E944A03F1
:1006A00080ED97E00C94C519CF93DF93CDB7DEB7FB
:1006B00028970FB6F894DEBF0FBECDBF9C0188E02F
:1006C000E7E0F1E0DE01119601900D928A95E1F7E5
:1006D000F9018389481710F04FEF480FFE0131965A
:1006E000E40FF11DE40FF11D9081690F6068C901ED
:1006F00028960FB6F894DEBF0FBECDBFDF91CF9125
:100700000C944A03FC016089262F2460208B6C60C6
:100710000C944A03CF93DF93EC01423018F08F859D
:1007200088608F874B8B1C8A222329F0413019F473
:100730008F8584608F8780E593EC0E94C51960E007
:100740008C810E94C91A60E08E810E94C91A8D8135
:100750008F3F19F060E00E94C91A6F8564FD1DC0CB
:1007600063E0CE010E94B30284E991E10E94C519C1
:1007700063E0CE010E94B30284E991E10E94C519B1
:1007800063E0CE010E94B30286E990E00E94C519A1
:1007900062E0CE010E94B30216C06062CE010E94E8
:1007A0004A0384E991E10E94C5196F856062CE0118
:1007B0000E944A0386E990E00E94C5196F85606235
:1007C000CE010E944A036F856062CE010E944A03F7
:1007D00084E0888BCE010E948203CE010E944D03EB
:1007E00082E0898B66E0CE01DF91CF910C944A03C1
:1007F0006F927F928F92AF92CF92EF920F931F934F
:10080000CF93DF93CDB7DEB73C01162F842F5D85E4
:100810004E853F859889F301848325830683E7828B
:10082000C086A1868286538744873587968761E094
:100830000E948D1AF30185818F3F19F061E00E94BB
:100840008D1A61E0F30186810E948D1A112319F03F
:10085000F301178603C080E1F301878720E041E0C0
:1008600060E1C301DF91CF911F910F91EF90CF9085
:10087000AF908F907F906F900C948A038F92AF927D
:10088000CF92EF920F93DC0113961C921E92129757
:10089000E3E1F1E0ED93FC931F921F921F921F92F0
:1008A0008C2CAE2CC02EE22E042F2FEF462F61E0B1
:1008B0000E94F8030F900F900F900F900F91EF9000
:1008C000CF90AF908F900895CF92DF92EF92FF92EA
:1008D0000F931F93CF93DF9300D0CDB7DEB78C017A
:1008E000677088E0689FB00111246064C801498383
:1008F0005A830E944A034981C42E5A81D52E76011B
:10090000A8E0EA0EF11CF60161916F01D801ED91AA
:10091000FC910190F081E02DC8010995CE14DF040F
:1009200091F70F900F90DF91CF911F910F91FF9052
:10093000EF90DF90CF90089541E00E94210381E085
:1009400090E0089508950F931F93CF93DF9324E9C8
:1009500031E0FC01318320838C01095E1F4F81F05F
:10096000EC01C752DF4FC017D10751F0C156D10972
:10097000E881F9810190F081E02DCE010995F3CF56
:10098000DF91CF911F910F9108952CE931E0FC0187
:1009900021933193CF010C94A304CF93DF93EC0107
:1009A0000E94A304CE01DF91CF910C94711BCF93D1
:1009B000DF93EC010E94C504CE01DF91CF910C942E
:1009C000711B0C94711B8091D1019091D2010C94F8
:1009D0005601FC019C01285D3F4F40E050E060EC77
:1009E0007FE74193519361937193E217F307C9F73E
:1009F00029E030E0FC0131A720A708952AE030E08B
:100A0000FC0133A722A70C94E904CF93DF93EC01F8
:100A10008CE891E0998388831C8A1E8A1D8A188E2F
:100A20001F8A198E1B8E1A8E1C8E81E090E09E8F7D
:100A30008D8F1F8E18A219A21AA21BA28CA31DA211
:100A40001EA21FA218A619A68AAB1CAA1BAACE0119
:100A5000C5960E94FE041A8218861E8683E39BE1D7
:100A6000AAECBEE38AA79BA7ACA7BDA78DEC9FE429
:100A7000AFE2B2E48EA79FA7A8ABB9ABDF91CF914D
:100A80000895EF92FF920F931F93CF93DF93FC0192
:100A9000EA016130710559F4E588F68881E0E416D1
:100AA000F50609F480E084A3D68BC58B2AC0E788BD
:100AB000F08C508F478B1C161D061CF59C01235A89
:100AC0003F4FD9018D919C911197019612966D918E
:100AD0007C910E94FA1FD9018D939C93880F991FD6
:100AE000880F991F8F01080F191FBE010D2E000CD2
:100AF000880B990B0E946C21F80165AB76AB87AB34
:100B000090AF81E0EC16FD0609F480E0DF91CF9113
:100B10001F910F91FF90EF900895CF93DF9300D036
:100B200000D000D0CDB7DEB729833A834B835C83F6
:100B30006D837E83313029F0323031F484B58F7D7E
:100B400002C084B58F7784BD26960FB6F894DEBFB9
:100B50000FBECDBFDF91CF910895CF93DF9300D02B
:100B600000D000D0CDB7DEB7FC0129833A834B8398
:100B70005C836D837E83552361F0332319F0CF01AD
:100B80000E948D05ED81FE8190818B81982381E00B
:100B900009F480E026960FB6F894DEBF0FBECDBFF5
:100BA000DF91CF910895EF92FF920F931F93CF9310
:100BB000DF9300D000D000D0CDB7DEB729833A83D1
:100BC000142F4B835C836D837E83ED80FE80332303
:100BD00019F029810E948D059FB7F894F701808153
:100BE000011103C01095182301C0182B10839FBF5B
:100BF00026960FB6F894DEBF0FBECDBFDF91CF9122
:100C00001F910F91FF90EF9008950F931F93CF9333
:100C1000DF93EC018DA19EA1AFA1B8A58A019B0134
:100C2000081B190B2A0B3B0BD901C801813911E0B4
:100C30009107A105B10550F42C8D222309F454C06D
:100C400086389105A105B10508F44EC04DA35EA3F9
:100C50006FA378A78D8D9E8D81309105B1F01CF426
:100C6000892B39F034C08230910519F10397D1F006
:100C70002EC02E853F85488959896A897B89CE0196
:100C80000E94AD05813019F51DC02E853F8548892C
:100C900059896A897B89CE010E94AD05811117C0EF
:100CA0001F8E15C089A58F5F89A7883068F48130B1
:100CB000B9F32E853F85488959896A897B89CE0198
:100CC0000E94AD058F8F03C08A3009F419A601E098
:100CD0008F8D811100E02E853F85488959896A8969
:100CE0007B89CE010E94D3058F8DDF91CF911F911B
:100CF0000F910895CF93DF9300D000D000D0CDB7EF
:100D0000DEB729833A834B835C836D837E832E30E9
:100D100008F02E502770206420937C0080917A0088
:100D2000806480937A0080917A0086FDFCCF809168
:100D300078002091790090E0922B26960FB6F894D7
:100D4000DEBF0FBECDBFDF91CF9108950F93CF933C
:100D5000DF9300D000D000D0CDB7DEB729833A832F
:100D60004B835C836D837E83002349F00F3F51F4F6
:100D700001E029813A814B815C816D817E810E94F5
:100D8000D3050EC08A81813039F0823049F484B5B0
:100D9000806284BD08BD04C084B5806884BD07BD81
:100DA00026960FB6F894DEBF0FBECDBFDF91CF9170
:100DB0000F910895FF920F931F93CF93DF93EC0150
:100DC000862FF42E122F6A8361E00E948D1A2A81E9
:100DD000622F70E0FB01E05DFE4F34913B83FB012D
:100DE000EC5BFE4F44914C83FB01E85AFE4F54915B
:100DF0005D83E52FF0E0EE0FFF1FEA58FE4F85916F
:100E00009491682F9F838E83098D7F81CE010E94EC
:100E1000A606F88660E08F2D0E948D1A1E8761E07D
:100E2000812F0E948D1A2E85822F90E0FC01E05DBB
:100E3000FE4F34913F87FC01EC5BFE4F4491488BA1
:100E4000FC01E85AFE4F5491598BE52FF0E0EE0F6C
:100E5000FF1FEA58FE4F85919491682F9B8B8A8BD8
:100E600001E07B89CE010E94D305DF91CF911F91D4
:100E70000F91FF9008950F93CF93DF9300D000D090
:100E800000D0CDB7DEB7662359F0FC01018D228179
:100E9000338144815581668177810E94A60612C004
:100EA00026E0FC013296DE01119601900D922A9502
:100EB000E1F700E029813A814B815C816D817E817F
:100EC0000E94D30526960FB6F894DEBF0FBECDBFA5
:100ED000DF91CF910F9108952F923F924F925F92A1
:100EE0007F928F929F92AF92BF92CF92DF92EF92BA
:100EF000FF920F931F93CF93DF9300D000D000D0C9
:100F0000CDB7DEB77C01DC0157968D909C90589749
:100F10005596AD90BC9056975C968C91882359F06D
:100F2000B6E9AB16B10424F046E9A42EB12C03C0F7
:100F300034E6A32EB12CF70183A994A9009719F0E8
:100F400060E00E943B0786E0F7013296DE011196D1
:100F500001900D928A95E1F700E029813A814B8159
:100F60005C816D817E81C7010E94D30564E170E0E0
:100F700080E090E00E949F19D70118962C91189755
:100F800019963C9119971A964C911A971B965C9159
:100F90001B971C966C911C971D967C91C7010E9413
:100FA0007A06F701938F828F018D228133814481EC
:100FB000558166817781C7010E94A606D701D39625
:100FC000ED91FC91D497309751F0018D22813381BE
:100FD0004481558166817781CF010E94A606F70181
:100FE000628D738D77247394613571050CF4712CC7
:100FF000D701D2967C92072E000C880B990B0E9489
:101000006C21F70122A533A544A555A50E942122F4
:10101000D7019E962D913D914D915C91D1970E9463
:1010200051201B012C0120E030E0A9010E941C226C
:1010300020E030E040E05FE387FD05C0C201B10180
:101040000E94512004C0C201B1010E9450200E94A0
:1010500034216B01F701708F678B161617061CF58C
:10106000E35AFF4F808191810196D701A15ABF4F6A
:101070006D917C910E94FA1F91838083880F991F44
:10108000880F991F8701080F191FB6010D2C000C3E
:10109000880B990B0E946C21D801D5966D937D9396
:1010A0008D939C93D897C5018C199D091816190624
:1010B000BCF42AE0289F8001299F100D11240739D4
:1010C000110514F006E910E0843091055CF44FE05E
:1010D000489F9001499F300D1124020F131F02C039
:1010E00000E010E0772021F1F701848D882319F0CA
:1010F00083E090E01AC0F4E0CF16D10404F1C501FA
:101100000397C816D9064CF083E0A80EB11CAC14A6
:10111000BD041CF082E090E00DC081E090E001157C
:10112000110511F080E090E0F701968F858F07C0E0
:1011300081E090E0D7015E969C938E935D97F701D6
:10114000818D082E000C990B8017910751F0018FAB
:10115000228133814481558166817781C7010E9454
:10116000A60681E0D70157962D913C91589782169B
:10117000930609F480E026960FB6F894DEBF0FBE02
:10118000CDBFDF91CF911F910F91FF90EF90DF9036
:10119000CF90BF90AF909F908F907F905F904F9037
:1011A0003F902F900895CF92EF920F93CF93DF93BC
:1011B000EC01E4E9F1E0DC01ED93FD93CD010E9447
:1011C0003E04CE0147960E940505CE0188589F4FE8
:1011D0000E940505FE01E752FF4F81E090E09183F8
:1011E0008083329610821182128213823696108288
:1011F00031961082319610821182128213823496B7
:10120000108211821282138234961082118212820D
:1012100013823496108231961082C152DF4F80E0E3
:1012200092E099838883DF91CF910F91EF90CF90D7
:101230000895BF92CF92DF92EF92FF920F931F9388
:10124000CF93DF93CDB7DEB761970FB6F894DEBFCB
:101250000FBECDBF8C017C0182E0E80EF11CC701FE
:101260000E944D03F801E152FF4F808180FD03C0D1
:101270008CE191E002C087E191E09F938F9383E23C
:1012800091E09F938F938AEE90E09F938F931F92AC
:1012900081E1B82EBF928E010F5F1F4F1F930F93F6
:1012A0000E940F24F80101900020E9F73197E01B1C
:1012B000F10B90E1C92ED12CB6016E1B7F0B7695F8
:1012C000679540E0C7010E945403B801C7010E941E
:1012D000651C1F9286E08F931F9281E08F931F926F
:1012E00086E78F9381EE90E09F938F931F92BF923A
:1012F0001F930F930E940F24F80101900020E9F73B
:101300003197E01BF10BB6016E1B7F0B769567954D
:1013100041E0C7010E945403B801C7010E94651C47
:1013200068EE73E080E090E00E949F19C7010E9480
:101330004D038CE291E09F938F938EED90E09F930D
:101340008F931F92BF921F930F930E940F24F80157
:1013500001900020E9F73197E01BF10BB6016E1BFD
:101360007F0B7695679540E0C7010E945403B80152
:10137000C7010E94651C87E08F9381EE8F938AE3FB
:1013800091E09F938F9382ED90E09F938F931F92B4
:10139000BF921F930F930E940F24F8010190002029
:1013A000E9F73197E01BF10B0FB6F894DEBF0FBEE3
:1013B000CDBFB6016E1B7F0B7695679541E0C701E7
:1013C0000E945403B801C7010E94651C68EE73E0D7
:1013D00080E090E00E949F19C7010E944D03619632
:1013E0000FB6F894DEBF0FBECDBFDF91CF911F9136
:1013F0000F91FF90EF90DF90CF90BF9008950F93E3
:101400001F93CF938C0101511F4FF801C081C1116F
:1014100024C060E070E08BEC91E00E948F028D3080
:10142000D1F461E070E08BEC91E00E948F028E308D
:1014300091F462E070E08BEC91E00E948F028A30C0
:1014400051F463E070E08BEC91E00E948F02C1E008
:101450008D3009F0C0E0F801C083F8018081CF91A0
:101460001F910F9108954DE060E070E08BEC91E0EA
:101470000E9492024EE061E070E08BEC91E00E94ED
:1014800092024AE062E070E08BEC91E00E949202EE
:101490004DE063E070E08BEC91E00C949202FB0174
:1014A00080E06CE8415088F0519198E0752F7827E2
:1014B000282F30E035952795822F70FF02C0862FA8
:1014C00082275695915091F7EDCF0895BF92CF9214
:1014D000DF92EF92FF920F931F93CF93DF9300D091
:1014E000CDB7DEB76C017B018A01FA01118210824F
:1014F0000E94FF09882399F0B7018BEC91E00E94CC
:101500008F02B82EB7016F5F7F4FF2E0EF0EF11C34
:101510008BEC91E00E948F02F801B0828183C601BA
:101520000E94FF09882339F0B7018BEC91E00E94FB
:101530008F02F82E01C0F12CF801908181819983EE
:101540008A8342E0BE016F5F7F4FC6010E944F0A4F
:1015500091E08F1190E0892F0F900F90DF91CF9144
:101560001F910F91FF90EF90DF90CF90BF90089563
:101570003F924F925F926F927F928F929F92AF9223
:10158000BF92CF92DF92EF92FF920F931F93CF9370
:10159000DF93CDB7DEB760970FB6F894DEBF0FBE0E
:1015A000CDBF5C017B016A013E018DE0680E711CBC
:1015B0008E010F5F1F4F28014B01801A910A94E0A2
:1015C000392E300EB401640D751D8BEC91E00E9434
:1015D0008F02F30181933F01F20181932F013E12AB
:1015E000F1CF2E01F5E04F0E511CCE0109963C01C2
:1015F00084E0382E360CB401640D751D8BEC91E03F
:101600000E948F02F30181933F01F20181932F0128
:101610003610F1CFB701685F7F4F8BEC91E00E94ED
:101620008F02F82E48E0B801C5010E944F0AF81257
:1016300011C089859A85AB85BC854D855E856F8592
:101640007889F60142A753A764A775A786A797A72D
:10165000A0ABB1AB60960FB6F894DEBF0FBECDBFA6
:10166000DF91CF911F910F91FF90EF90DF90CF907E
:10167000BF90AF909F908F907F906F905F904F90B2
:101680003F9008954F925F926F927F928F929F92B8
:10169000AF92BF92CF92DF92EF92FF920F931F9380
:1016A000CF93DF93CDB7DEB760970FB6F894DEBF68
:1016B0000FBECDBF5C018B01FA0186A597A5A0A93D
:1016C000B1A942A553A564A575A54D875E876F870F
:1016D000788B89879A87AB87BC87C5010E94FF09F1
:1016E000882309F445C03E01FDE06F0E711CCE0158
:1016F00001967C016C014801881A990A94E0492EF0
:101700004E0CF30151903F01B4016C0D7D1D452D30
:101710008BEC91E00E949202F60151926F014E1201
:10172000F0CF3E01F5E06F0E711CCE0109966C0101
:1017300084E0482E4C0CF60151906F01B401660D07
:10174000771D452D8BEC91E00E949202F30151929E
:101750003F014C10F0CF48E0B701C5010E944F0A8D
:10176000B801685F7F4F482F8BEC91E00E94920296
:1017700060960FB6F894DEBF0FBECDBFDF91CF915C
:101780001F910F91FF90EF90DF90CF90BF90AF909F
:101790009F908F907F906F905F904F900895CF9320
:1017A000DF93FC01E752FF4F208131812130310569
:1017B00049F4EC010E946D19C552DF4F68837983AB
:1017C0008A839B83DF91CF910895FC01E152FF4F03
:1017D00020813181CB0182239323892B59F4442327
:1017E00019F0262B372B04C06095709526233723DC
:1017F0003183208308950F931F93CF93DF93EC01E0
:101800008C0107521F4FF8018081918171836083A1
:1018100041E08617970709F440E064E070E0CE01EC
:101820000E94E50BF80180819181019719F40E94D3
:101830006D1903C060E070E0CB01C552DF4F6883D3
:1018400079838A839B83DF91CF911F910F910895B4
:101850000F931F93CF93DF93FC01E752FF4F20813B
:10186000318121303105F1F4EC010E946D19FE0146
:10187000E552FF4F0081118122813381DC01CB01D0
:10188000801B910BA20BB30B893B9B40A105B105BB
:1018900048F060E070E0CE01DF91CF911F910F9191
:1018A0000C94FB0BDF91CF911F910F910895FC01D8
:1018B000E152FF4F442329F080819181682B792BDD
:1018C00006C060957095808191816823792371832A
:1018D000608308950F931F93CF93DF93EC018C01E6
:1018E00001521F4FF8018181482F4695469550E0DF
:1018F000F1E04F27417060E074E0CE010E94570C88
:1019000041E060E078E0CE010E94E50BF8019081B3
:10191000818182FB882780F98BAB90FF03C0C85878
:10192000DF4F8C8FDF91CF911F910F910895CF934F
:10193000DF93CDB7DEB760970FB6F894DEBF0FBE6A
:10194000CDBF21E6269FF001279FF00D11248E0FB9
:101950009F1FFC01EF5BFF4F88E0DE0111960190B5
:101960000D928A95E1F788E0FE013196DE01199625
:1019700001900D928A95E1F729853A854B855C8522
:101980006D857E858F85988960960FB6F894DEBF49
:101990000FBECDBFDF91CF9108950F931F93CF93CB
:1019A000DF93EC01AC01495E5F4F6FE070E00E9495
:1019B000B80A8E0101521F4FF801808180FF08C0D4
:1019C000AE0148585F4F68E170E0CE010E94B80A4E
:1019D000F8012081318135FF1EC080E090E0A0E851
:1019E000BFE3FE01EF5BFF4F80839183A283B3834C
:1019F0003496108211821282138220FF0CC0E35AA7
:101A0000FF4F80839183A283B383CA55DF4F18822F
:101A100019821A821B82DF91CF911F910F91089535
:101A20002F923F924F925F926F927F928F929F92EE
:101A3000AF92BF92CF92DF92EF92FF920F931F93DC
:101A4000CF93DF93CDB7DEB728970FB6F894DEBFFC
:101A50000FBECDBF3C01122FFA2CFC01EF51FF4FFE
:101A60006083319640832C0182E0480E511C20E0B7
:101A7000C2010E948A03212C312CD12C88E0982E9F
:101A8000FE0131965F01F501892D11928A95E9F7E2
:101A9000D50180E090E0FC01E20DF31DE051FF4F25
:101AA000E491ED93019688309105A9F7A5016D2D7C
:101AB000C2010E946404D39498E0290E311CE8E02E
:101AC000DE12E1CF85E085BDC3010E94FF098111CF
:101AD00003C0C3010E94330A2301F7E14F0E511CDA
:101AE0002E2D402F612FC2010E94DA0681E0F30102
:101AF00083A7830101521F4FF8018081918195FFD7
:101B000003C044E650E016C0A50169E070E0C301DF
:101B10000E94660A882361F049815A814436510542
:101B200080F3433CF1E05F0728F042EC51E002C053
:101B300046E950E061E070E0C2010E944105F30116
:101B400013AE60E08C2D0E948D1A8C2D0E94F91A24
:101B50008C2D0E94F91A019731F4F801808191814E
:101B6000816091838083F8018081918195FF03C01A
:101B7000816091838083F801808180FF60C0C30110
:101B80000E94FF09882341F066E070E08BEC91E051
:101B90000E948F02E82E01C0E12C1301F8E72F0EFE
:101BA000311C2D8D482D6F2DC1010E94DA06F301E5
:101BB000E65BFF4F31822082F10154AA43AAF8016B
:101BC0008081918195FF03C044E650E016C0A501D5
:101BD0006CE070E0C3010E94660A882361F04981CD
:101BE0005A814436510580F3433CF1E05F0728F009
:101BF00042EC51E002C046E950E061E070E0C10112
:101C00000E944105EE20D1F1F30144A555A5F10153
:101C1000858996894817590789F161E070E0C1010B
:101C20000E944105F8018081918195FD02C04E2DF1
:101C300001C040E062E070E0C3010E94570CC301A4
:101C40000E94CD0CC3010E94190928960FB6F89482
:101C5000DEBF0FBECDBFDF91CF911F910F91FF90DF
:101C6000EF90DF90CF90BF90AF909F908F907F903C
:101C70006F905F904F903F902F900895F10114A2C4
:101C8000D1CF21E6269FA001279F500D1124495E48
:101C90005F4F480F591F672B19F068E170E002C0D1
:101CA0006FE070E00C94420B1F93CF93DF93EC0135
:101CB000162F462F60E070E20E94570C111107C0EA
:101CC000C152DF4F88819981926099838883DF9127
:101CD000CF911F910895FC01E152FF4F2081318186
:101CE00032FD0C946A0C0895CF93DF93EC010E94AF
:101CF0006B0EFE01E152FF4F808180FF19C081FD14
:101D000017C09BA581E098279BA7E756F109948906
:101D10008927848B41E060E072E0CE010E94E50BF0
:101D200041E060E070E1CE01DF91CF910C94E50BD2
:101D3000DF91CF910895AF92BF92CF92EF920F9320
:101D4000CF93DF93EC018CE991E0FE0181939193B5
:101D50005F018CE0C82E9BE0E92E0AE029E048E014
:101D600067E0CF010E94D308E12C04E024E043E0C7
:101D700062E0CE018D509F4F0E940F01FE01EC5B8F
:101D8000FE4F1082CB5BDE4F188219821A821B82B3
:101D900084E00E94F91A892B59F461E0C501DF91B2
:101DA000CF910F91EF90CF90BF90AF900C94540EC5
:101DB000DF91CF910F91EF90CF90BF90AF900895AA
:101DC0008F92AF92CF92EF920F931F93CF93DF93A7
:101DD000EC0111E11F932EE0822E36E0A32E4DE0A0
:101DE000C42E50E1E52E0FE025E042E060E10296CE
:101DF0000E94100DCD50DF4FD093D201C093D1017E
:101E0000E1E8F0E080E180831092800081E080933F
:101E1000CE0120EA3FE03093D0012093CF013093F0
:101E2000870020938600108323EE34E03093CD01A9
:101E30002093CC0180936F000F90DF91CF911F9181
:101E40000F91EF90CF90AF908F9008954F925F9247
:101E50006F927F928F929F92AF92BF92CF92DF92BA
:101E6000EF92FF920F931F93CF93DF93FC0182A415
:101E700093A48C01A12CB12C412C512C3201C0E037
:101E8000D0E0A814B90471F0F801C190D190E190AC
:101E9000F1908F01A7019601C701B6010E948E2221
:101EA0008823B9F0209759F1BE0180E090E00E94AC
:101EB0006A219B01AC01C301B2010E94C22020E053
:101EC00030E040E05FE30E9451200E943421CB01CA
:101ED00018C020E030E0A901C701B6010E941C2211
:101EE00018164CF4A7019601C301B2010E945120BB
:101EF0002B013C012196FFEFAF1ABF0AC2CF80E051
:101F000090E0DF91CF911F910F91FF90EF90DF90C4
:101F1000CF90BF90AF909F908F907F906F905F9089
:101F20004F900895672B19F4C5960C94260FFC0169
:101F30008589968908955F926F927F928F929F9282
:101F4000AF92BF92CF92DF92EF92FF920F931F93C7
:101F5000CF93DF93EC018B016C0129EDC20ED11CF4
:101F6000F60180819181892BB9F461E070E0CE01A6
:101F70000E94FB0BCE01DF91CF911F910F91FF903B
:101F8000EF90DF90CF90BF90AF909F908F907F9019
:101F90006F905F900C946B0ECE010E946B0E0E94AE
:101FA0006D19FE01E551FF4F608371838283938336
:101FB000359610827197808091805401F1E0AF22B4
:101FC000BB2480FE02C081FE3BC0E12CF12C81E6E7
:101FD000582EAE14BF040CF482C05E9C40015F9C7E
:101FE000900C112427E1820E911C8C0E9D1EF6018F
:101FF00060807180B301C4010E94920F800F911F15
:10200000843691053CF0AC01833C91402CF042ECCD
:1020100051E002C044E650E0B301C4010E94410512
:10202000E114F10419F468E070E002C060E470E0CB
:10203000482FCE010E94E50B2FEFE21AF20AC9CF1A
:102040008BA5FE0177965F01882311F07F0104C004
:102050007E01F8E7EF0EF11CF601C080D180B601D9
:10206000C7010E94920FAC01400F511F4436510529
:1020700094F094012227307295FC03C082EC91E029
:1020800002C087EE93E08417950754F4232B31F4B4
:1020900042EC51E005C044E650E002C047EE53E098
:1020A000B601C7010E944105EA14FB0419F060E47F
:1020B00070E002C068E070E0482FCE01DF91CF9160
:1020C0001F910F91FF90EF90DF90CF90BF90AF9056
:1020D0009F908F907F906F905F900C94E50BDF91B5
:1020E000CF911F910F91FF90EF90DF90CF90BF9015
:1020F000AF909F908F907F906F905F900895EF9238
:10210000FF920F931F93CF93DF931F92CDB7DEB74C
:10211000072F7A0169830E94FF09182F698188239C
:10212000D1F0F701808191819C012F5F3F4F318376
:102130002083462FBC018BEC91E00E949202F701B4
:1021400060817181CB01019691838083402F8BEC5C
:1021500091E00E949202812F0F90DF91CF911F9109
:102160000F91FF90EF900895EF92FF920F931F93BE
:10217000CF93DF9300D0CDB7DEB78C010E946B0EFA
:1021800078018FEDE80EF11CF7018081918195FDBA
:1021900044C080FF42C0F80123A5C80188589F4F62
:1021A000222329F044A555A561E070E007C0FC0199
:1021B0004589568961E070E0C80147960E94410553
:1021C000F7014081518156954795F1E04F274170C5
:1021D00062E070E0C8010E94570CF7018081918194
:1021E0009260918380830E946D19F801E551FF4F41
:1021F00060837183828393833596108286E090E0BA
:102200009A838983F7016081718162707727AE01BB
:102210004F5F5F4FC8010E947F100F900F90DF91BA
:10222000CF911F910F91FF90EF9008950F931F93FF
:10223000CF93DF9300D000D01F92CDB7DEB78C01D3
:102240009B01BA013C832B8349837A83AE014D5FA6
:102250005F4F0E947F1042E0BE016F5F7F4FC80159
:102260000E944F0A482FC8014D830E94FF094D81EB
:10227000882351F06B817C81CB0101969C838B83F9
:102280008BEC91E00E9492020F900F900F900F90B4
:102290000F90DF91CF911F910F910895AF92BF9250
:1022A000CF92DF92EF92FF920F931F93CF93DF9322
:1022B000C62F440F440F142F120F02967C0140E0EA
:1022C000612F0E94540383E0C89F50011124C12C48
:1022D000D12CD0E0F601EA0DFB1DEC59FE4F6081D8
:1022E000C7010E949C048FEFC81AD80A83E0C81661
:1022F000D10481F741E0612FC7010E945403CE0150
:10230000880F991FC80FD91F00E010E0F801EC0FEB
:10231000FD1FE05CFE4F6081C7010E949C040F5FBF
:102320001F4F0330110591F7DF91CF911F910F914E
:10233000FF90EF90DF90CF90BF90AF9008959F9265
:10234000AF92BF92CF92DF92EF92FF920F931F93C3
:10235000CF93DF9300D000D01F92CDB7DEB77C01C2
:102360006B01942E022F77FD19C06436710554F469
:102370008AE389836A3071054CF48A83BE016D5FFC
:102380007F4F07C0BE016F5F7F4F03C0BE016E5F0E
:102390007F4F4AE0C6010E94EA2305C08BE3898390
:1023A0008A838B831C82FE0131965F0110E0F50168
:1023B00061915F01662351F0412F490D6053202F39
:1023C000C7010E944E111F5F143089F7F2E0EF0E33
:1023D000F11C190D110F110F612F600F40E0C701A3
:1023E0000E945403D7FE02C060E201C06FEDC70136
:1023F0000E949C040F900F900F900F900F90DF9110
:10240000CF911F910F91FF90EF90DF90CF90BF90F1
:10241000AF909F900895EF92FF921F93CF93DF9319
:10242000EA0102967C01462F62E00E94540312E00A
:102430002996812F90E0C817D90734F060E2C701D0
:102440000E949C041F5FF5CFDF91CF911F91FF90F9
:10245000EF9008959F92AF92BF92CF92DF92EF924A
:10246000FF920F931F93CF93DF93CDB7DEB76097A3
:102470000FB6F894DEBF0FBECDBF7C015B016A01D1
:10248000922E40E050E0622F0E940B1287010E5FF7
:102490001F4F8FEFC816D80679F4AB2811F065E00E
:1024A00001C062E0492DC8010E9454036EEC70E047
:1024B000C8010E94421C34C0A114B104C1F0DF92D3
:1024C000CF928BEC90E09F938F931F928FE08F932E
:1024D000CE0101969F938F930E940F2498E0692F5D
:1024E000681B0FB6F894DEBF0FBECDBF01C062E01F
:1024F000492DC8010E9454034AE050E0B601C801CA
:102500000E940E1DF701E152FF4F8081918195FFDE
:1025100003C0AA94AB2821F46FEDC8010E949C046B
:1025200060960FB6F894DEBF0FBECDBFDF91CF919E
:102530001F910F91FF90EF90DF90CF90BF90AF90E1
:102540009F9008956F927F928F929F92AF92BF92C9
:10255000CF92DF92FF920F931F93CF93DF938C0163
:102560000E946D19680129EDC20ED11CF60120816F
:102570003181E801C152DF4F3A9621303105C9F06F
:102580002881398120723171232B99F480809180C8
:10259000A280B3809B01AC01281939094A095B0963
:1025A00049015A0139EC83169104A104B10408F4DD
:1025B000F5C16083718382839383888199819C01B3
:1025C0002470332780FF02C081FFA6C0232B31F087
:1025D0008B7F99838883FF24F39401C0F12C888139
:1025E000998191FD02C0FF2049F09D7F99838883E6
:1025F000C80102960E944D03FF24F394F801E75BA3
:10260000FF4F7080888199814C0141E08422992498
:1026100080FF03C0BF9662A801C0612CF601A080B4
:10262000B180F1E0AF16B10419F020E130E002C052
:1026300028E030E028233923232BA1F481149104CE
:1026400069F021E0A216B10419F020E830E002C0E0
:1026500028E030E082239323892B79F4F11002C023
:10266000F12C57C1772019F1C801845B9F4F0E945C
:10267000260F892891F04C0105C07110F5CF8824F0
:102680008A94982C662009F484C1C80183559F4F11
:102690000E94260F772079F005C0662061F04C017A
:1026A0008FEF9FEF880D991D9595879504C0892818
:1026B00031F78FEF9FEFA114B10441F0B501C801CC
:1026C00047960E94920FAA94AB2811F020E001C017
:1026D00022E040E0BC01C8010E949F11F601408148
:1026E00051814130510519F080E190E002C088E04D
:1026F00090E08095909528813981282339234130B5
:10270000510519F080E890E002C080E490E08095E7
:10271000909582239323FBC0232B31F08B7F9983E9
:102720008883FF24F39401C0F12C8881998191FD65
:1027300002C0FF2049F09D7F99838883C8010296DB
:102740000E944D03FF24F3948881998195FF10C066
:10275000FF2071F040E06BE05801F2E0AF0EB11CD9
:10276000C5010E94540367EC70E0C5010E94421C41
:1027700028813981F601A080B180F1E0AF16B10463
:1027800019F080E190E002C088E090E0822393237A
:10279000892B11F4FF20C1F14901882440E29422E1
:1027A00035FF07C0A114B10421F4F80141A952A9D1
:1027B00014C0B501C80147960E94920FA114B1043C
:1027C00041F4892831F4F801E75BFF4F208122238F
:1027D00011F0AC0102C04FEF5FEF20E0B501C8017E
:1027E0000E942A12F60180819181019719F080E1FF
:1027F00090E002C088E090E0809590952881398132
:10280000822393239983888328813981F601A080CC
:10281000B180F1E0AF16B10419F080E890E002C099
:1028200080E490E082239323892B11F4FF20C9F1E7
:10283000A80148585F4F3A014901882450E2952287
:1028400035FF07C0A114B10421F4F301428D538D6B
:1028500011C0B501C3010E94920FA114B10431F45B
:10286000892821F4F30122A9222311F0AC0102C02E
:102870004FEF5FEF21E0B501C8010E942A12F60177
:1028800080819181019719F080E890E002C080E496
:1028900090E08095909528813981822393239983B4
:1028A00088838881998194FD03C0FF2009F4D8CEE4
:1028B000F80193A4492D60E05801F2E0AF0EB11C7D
:1028C000C5010E94540360E2C5010E949C04492D89
:1028D0006AE0C5010E94540360E2C5010E949C04A5
:1028E00081E09826492D60E0C5010E9454036BE504
:1028F000C5010E949C04492D6AE0C5010E94540351
:102900006DE5C5010E949C04888199819F7E998311
:1029100088838881998193FD02C0FF2029F181FF7E
:1029200005C0F60180819181892BF1F46801F2E004
:10293000CF0ED11CF801EF51FF4F6081645041E090
:10294000C6010E9454038881998192FD03C06DEBFA
:1029500070E002C062EC70E0C6010E94421C8881F7
:102960009981977F998388838881998185FD02C0A9
:10297000FF2019F08F7D998388838881998180FF5A
:102980000DC090FD02C0FF2049F09E7F998388838F
:1029900005C0772009F48DCEC4018DCEDF91CF9193
:1029A0001F910F91FF90DF90CF90BF90AF909F90BD
:1029B0008F907F906F9008956F927F928F929F92E9
:1029C000AF92BF92CF92DF92EF92FF920F931F933D
:1029D000CF93DF93EC017C0120EFE20EF11CF701B5
:1029E00080818111AFC00E946D19FE01E551FF4F3A
:1029F0000081118122813381DC01CB01801B910B8D
:102A0000A20BB30B81339547A105B10508F49AC019
:102A1000772473940E946D194B015C01FE01E9510A
:102A2000FF4F80819181A281B381A5019401281B70
:102A3000390B4A0B5B0BDA01C901AE01495E5F4FEE
:102A40006A018E0101521F4F893C9105A105B10514
:102A500000F180829182A282B382B501A401C601F5
:102A60000E946C07482F60E170E0CE010E94E50BE8
:102A7000F801808180FF0DC0B501A401CE01885806
:102A80009F4F0E946C07482F60E870E0CE010E94C3
:102A9000E50B6EA8B501A401C6010E9405066816E3
:102AA00031F0F80180819181806291838083F80107
:102AB000808180FF11C0CE0188589F4FFC01D78CC8
:102AC000B501A4010E940506D81631F0F8018081F5
:102AD0009181916091838083772019F1F801808141
:102AE000918195FD1BC08BAD882341F04CA55DA560
:102AF00069E070E0CE010E9416111BAE8E010858ED
:102B00001F4FF80184A1882349F0458956896CE05C
:102B100070E0CE010E941611F80114A281E0F701C5
:102B20008083CE01DF91CF911F910F91FF90EF90A5
:102B3000DF90CF90BF90AF909F908F907F906F90DD
:102B40000C94A212712C66CF2F923F924F925F92FB
:102B50006F927F928F929F92AF92BF92CF92DF92AD
:102B6000EF92FF920F931F93CF93DF93CDB7DEB712
:102B7000C05ED1090FB6F894DEBF0FBECDBF8C0189
:102B80002DB73EB7C152DF4F39832883CF5DD04088
:102B90008FEE91E00E94BD1F882309F4A3C28FEE3F
:102BA00091E00E941D1E181619060CF09BC2180118
:102BB000FCEB2F1AFEEF3F0A8FEE91E00E941D1EE4
:102BC000181619060CF08EC2F101E080F12C8FEE80
:102BD00091E00E94491EE00EF11EF701EC5FFE4FEE
:102BE0008083F10180819801280F311DF901EC5F8C
:102BF000FE4F90819A3031F08F3321F08F5FF101D9
:102C00008083DACFF901EC5FFE4F10828330B0F0A1
:102C10006AE370E0C8018C5F9E4F0E94DF236C0165
:102C2000009761F04C012FEF821A920A6AE370E07C
:102C3000C4010E94DF237C01009779F480E0F10158
:102C40001082811103C068E670E002C060E770E0A6
:102C50008FEE91E00E94421C45C22DB73EB7C5528F
:102C6000DF4F39832883CB5DD0408C199D096C01DF
:102C700031E0C31AD108EDB7FEB7E81BF90B0FB668
:102C8000F894FEBF0FBEEDBF2DB73EB72F5F3F4F8D
:102C90005901A601B401C9010E94D623F501EC0D2A
:102CA000FD1D10826AE38FEE91E00E94671C69EBC4
:102CB00070E0C5010E94CD23892B09F09FC13FEF31
:102CC000E31AF30A65EB70E0C7010E94CD23892B5C
:102CD00051F40E5F1F4F60E0C8010E94540EC801FE
:102CE0000E94CD0C79C160EB70E0C7010E94CD233A
:102CF000892B89F40E5F1F4F60E0C8010E94540EBB
:102D000060E070E0C8010E94410E61E070E0C8011F
:102D10000E94410E61C16BEA70E0C7010E94CD23A1
:102D2000892B09F05BC1CE0101960E940505CE01F9
:102D30008E599F4F0E9405050E5F1F4FAE014F5FDA
:102D40005F4F6FE070E0C8010E94B80A88E0FE01A2
:102D5000BB96DE01A553BF4F01900D928A95E1F716
:102D6000C553DF4F88809980AA80BB80CB5CD04060
:102D7000C153DF4FC880D980EA80FB80CF5CD04050
:102D800063EA70E08FEE91E00E94421C60EA70E01E
:102D90008FEE91E00E94421C29E030E0B501A401D1
:102DA0008FEE91E00E940E1E6EE970E08FEE91E0D2
:102DB0000E94421C29E030E0B701A6018FEE91E0AD
:102DC0000E940E1EAE014E595F4F68E170E0C801CF
:102DD0000E94B80A88E0FE01E457FF4FDE01AD53C0
:102DE000BF4F01900D928A95E1F7CD53DF4F888058
:102DF0009980AA80BB80C35CD040C953DF4FC88094
:102E0000D980EA80FB80C75CD0406AE970E08FEE31
:102E100091E00E94421C29E030E0B501A4018FEE50
:102E200091E00E940E1E68E970E08FEE91E00E9432
:102E3000421C29E030E0B701A6018FEE91E00E942C
:102E40000E1E6EE870E08FEE91E00E94421C60E082
:102E500070E0C8010E94970CCD52DF4F2883C35DFC
:102E6000D040CC52DF4F3883C45DD040CB52DF4FCF
:102E70004883C55DD040CA52DF4F5883C65DD040FD
:102E8000C952DF4F6883C75DD040C852DF4F788397
:102E9000C85DD040C752DF4F8883C95DD040C6525D
:102EA000DF4F9883CA5DD040CD52DF4F8880998034
:102EB000AA80BB80C35DD040C952DF4FC880D98093
:102EC000EA80FB80C75DD0406BE870E08FEE91E058
:102ED0000E94421C29E030E0B501A4018FEE91E090
:102EE0000E940E1E69E870E08FEE91E00E94421C85
:102EF00029E030E0B701A6018FEE91E00E940E1E9E
:102F000061E070E0C8010E94970CCD52DF4F28832A
:102F1000C35DD040CC52DF4F3883C45DD040CB522C
:102F2000DF4F4883C55DD040CA52DF4F5883C65D2E
:102F3000D040C952DF4F6883C75DD040C852DF4FD1
:102F40007883C85DD040C752DF4F8883C95DD040C9
:102F5000C652DF4F9883CA5DD040CD52DF4F888084
:102F60009980AA80BB80C35DD040C952DF4FC88022
:102F7000D980EA80FB80C75DD04065E870E08FEEC5
:102F800091E00E94421C29E030E0B501A4018FEEDF
:102F900091E00E940E1E63E870E08FEE91E00E94C7
:102FA000421C29E030E0B701A6018FEE91E00E94BB
:102FB0000E1EA496EEADFFADA4970190F081E02D1A
:102FC000CE018E599F4F0995E981FA810190F081D8
:102FD000E02DCE010196099581E017C06AE370E00B
:102FE000C7010E94DF235C01009771F06CE270E082
:102FF0000E94DF236C01892BA1F406C067E770E013
:103000008FEE91E00E94421C80E0C552DF4FE881C4
:10301000F981CB5DD0400FB6F894FEBF0FBEEDBF77
:103020000ECE2DB73EB7C352DF4F39832883CD5D17
:10303000D0403FEFA31AB30AC5018E199F093C0186
:10304000E1E06E1A71082DB73EB7281B390B0FB699
:10305000F8943EBF0FBE2DBF8DB79EB701964C01B1
:10306000A301B7010E94D623F401E60DF71D1082DB
:10307000F60111926F01C5010E94C0232B013C0192
:10308000C6010E94C0236B017C0161E870E0C401AD
:103090000E94CD23892B21F4F801ED5BFF4F0AC07C
:1030A0006FE770E0C4010E94CD23892B71F4F80111
:1030B000EC55FF4F40825182628273823496C08207
:1030C000D182E282F38281E001C080E0C352DF4F0F
:1030D00028813981CD5DD0400FB6F8943EBF0FBE38
:1030E0002DBF93CFC152DF4F28813981CF5DD040B2
:1030F0000FB6F8943EBF0FBE2DBFC052DF4F0FB6C4
:10310000F894DEBF0FBECDBFDF91CF911F910F911D
:10311000FF90EF90DF90CF90BF90AF909F908F90F7
:103120007F906F905F904F903F902F9008958C010B
:10313000EC012296CE010E94CF0B780123EFE20E24
:10314000F11C580131EEA30EB11C68014BEBC41AFF
:103150004EEFD40AC7010E9425024C01CE010E9405
:10316000280C8114910439F0B401CE010E949B0F08
:10317000CE010E94CF0BC7010E945D020097E1F0D3
:103180008530910549F08630910551F00397A1F4FF
:10319000CE010E94B41008C0CE010E94740E0CC073
:1031A000CE010E946A0C08C0CE010E94DC14C70147
:1031B0000E945D020397C1F3CE010E94DC14F50169
:1031C0008081918195FFC6CF0E946D19F6014080E4
:1031D0005180628073809B01AC0124193509460936
:1031E000570929013A013DE2431631E053066104D3
:1031F000710408F4AFCF6083718382839383C80125
:103200000E94A415A7CFCF93DF9340E051EE60E07A
:1032100070E08FEE91E00E94351F8DE491E00E94F6
:103220006F1BEC010E949B0ED093D401C093D3017D
:10323000CE01DF91CF910C94E00E8091D30190915B
:10324000D4010C9497181F920F920FB60F9211246D
:103250002F933F938F939F93AF93BF938091D6010A
:103260009091D701A091D801B091D9013091D501A9
:1032700020E3230F2D3720F44096A11DB11D05C07A
:1032800023EB230F4196A11DB11D2093D5018093FF
:10329000D6019093D701A093D801B093D901809122
:1032A000DA019091DB01A091DC01B091DD01019682
:1032B000A11DB11D8093DA019093DB01A093DC0185
:1032C000B093DD01BF91AF919F918F913F912F916D
:1032D0000F900FBE0F901F9018952FB7F894609124
:1032E000D6017091D7018091D8019091D9012FBF5B
:1032F00008953FB7F8948091DA019091DB01A09195
:10330000DC01B091DD0126B5A89B02C02F3F99F4E6
:103310003FBFBA2FA92F982F8827820F911DA11D7B
:10332000B11DBC01CD0146E0660F771F881F991FB4
:103330004A95D1F708950196A11DB11DE9CFCF920D
:10334000DF92EF92FF92CF93DF936B017C010E949B
:103350007919EB01C114D104E104F10479F00E9460
:1033600079196C1B7D0B683E7340A0F381E0C81A8D
:10337000D108E108F108C851DC4FECCFDF91CF91C3
:10338000FF90EF90DF90CF900895019739F0880F6C
:10339000991F880F991F02970197F1F70895789464
:1033A00084B5826084BD84B5816084BD85B582604A
:1033B00085BD85B5816085BDEEE6F0E080818160E8
:1033C0008083E1E8F0E010828081826080838081E8
:1033D00081608083E0E8F0E0808181608083E1EBC0
:1033E000F0E0808184608083E0EBF0E080818160A8
:1033F0008083EAE7F0E0808184608083808182605E
:103400008083808181608083808180688083109246
:10341000C10008951F920F920FB60F9211242F939F
:103420003F934F935F936F937F938F939F93AF934C
:10343000BF93EF93FF938091DE019091DF01892B81
:1034400029F0E091DE01F091DF010995FF91EF9104
:10345000BF91AF919F918F917F916F915F914F91AC
:103460003F912F910F900FBE0F901F9018951F92B4
:103470000F920FB60F9211242F933F934F935F93A8
:103480006F937F938F939F93AF93BF93EF93FF932C
:103490008091E0019091E101892B29F0E091E00118
:1034A000F091E1010995FF91EF91BF91AF919F914B
:1034B0008F917F916F915F914F913F912F910F90DD
:1034C0000FBE0F901F901895833081F028F4813043
:1034D00099F08230A1F008958630A9F08730B9F0D4
:1034E0008430D1F4809180008F7D03C08091800072
:1034F0008F7780938000089584B58F7702C084B55C
:103500008F7D84BD08958091B0008F7703C0809136
:10351000B0008F7D8093B0000895CF93DF9390E04B
:10352000FC01EC5BFE4F2491FC01E85AFE4F8491B4
:10353000882361F190E0880F991FFC01E058FE4F4D
:10354000C591D491FC01EA58FE4FA591B491611147
:1035500009C09FB7F8948881209582238883EC91D5
:103560002E230BC0623061F49FB7F8943881822F0C
:10357000809583238883EC912E2B2C939FBF06C0CC
:103580008FB7F894E8812E2B28838FBFDF91CF91DE
:1035900008951F93CF93DF93282F30E0F901E05D6A
:1035A000FE4F8491F901EC5BFE4FD491F901E85A8A
:1035B000FE4FC491CC23C9F0162F81110E94641ACA
:1035C000EC2FF0E0EE0FFF1FEA58FE4FA591B491EB
:1035D0008FB7F894111105C09C91ED2FE095E92368
:1035E00002C0EC91ED2BEC938FBFDF91CF911F9137
:1035F0000895CF93DF93282F30E0F901E05DFE4F6F
:103600008491F901EC5BFE4FD491F901E85AFE4F29
:10361000C491CC2391F081110E94641AEC2FF0E048
:10362000EE0FFF1FE459FE4FA591B491EC91ED23ED
:1036300081E090E021F480E002C080E090E0DF9142
:10364000CF9108958F929F92AF92BF92CF92DF92C7
:10365000EF92FF920F931F93CF93DF937C018B0127
:103660006C0182E0C80ED11C4701E5E08E0E911C72
:10367000C0E0D0E0F60161916F014AE050E0C8017E
:103680000E94221D5C016EE2C8010E94671C8A0D27
:103690009B1DC80FD91FC814D90461F74AE050E038
:1036A000F7016581C8010E94221D8C0F9D1FDF91CB
:1036B000CF911F910F91FF90EF90DF90CF90BF902F
:1036C000AF909F908F900895E2EEF1E084EA91E050
:1036D00091838083128213821482158208950C9440
:1036E00093220C942823813039F018F0823051F065
:1036F000089510926E00089580916F008D7F8093E1
:103700006F000895809170008D7F8093700081E03C
:103710008093B0008091B100887F84608093B10075
:103720001092B3000895CF93C82F809106018C1397
:1037300007C0EAE8F1E0E4918FEF8093060101C051
:10374000EFEF8E2F0E94731B60E08C2FCF910C94B3
:10375000C91A1F920F920FB60F9211242F933F9305
:103760004F935F936F937F938F939F93AF93BF9389
:10377000EF93FF938091EB019091EC01A091ED010B
:10378000B091EE01892B8A2B8B2B51F18091E801AE
:10379000E091E901F091EA0190818927808380918D
:1037A000EB019091EC01A091ED01B091EE011816A2
:1037B00019061A061B06C4F48091EB019091EC01E6
:1037C000A091ED01B091EE010197A109B10980939B
:1037D000EB019093EC01A093ED01B093EE0104C0D6
:1037E000809106010E94931BFF91EF91BF91AF91D1
:1037F0009F918F917F916F915F914F913F912F9109
:103800000F900FBE0F901F901895CF92DF92EF92FE
:10381000FF920F931F93CF93DF936C01EB017B011A
:10382000E40EF51E00E010E0CE15DF0561F06991B1
:10383000D601ED91FC910190F081E02DC601099532
:10384000080F191FF1CFC801DF91CF911F910F9180
:10385000FF90EF90DF90CF9008956115710579F09A
:10386000FB0101900020E9F73197AF01461B570B90
:10387000DC01ED91FC910280F381E02D099480E060
:1038800090E00895EF92FF920F931F93CF93DF93F1
:103890007C01FB0100E010E06491EF0121966623BA
:1038A00061F0D701ED91FC910190F081E02DC7010D
:1038B0000995080F191FFE01EFCFC801DF91CF91C5
:1038C0001F910F91FF90EF9008950C942D1CDC0137
:1038D000ED91FC910190F081E02D09948F929F92DF
:1038E000AF92BF92CF92DF92EF92FF920F931F930E
:1038F000CF93DF93CDB7DEB7A1970FB6F894DEBFB5
:103900000FBECDBF6C01142FE52FCB01022F19A2E2
:10391000223008F40AE07E0121E2E20EF11C802E42
:10392000912CA12CB12C612F7E2FA50194010E9416
:103930000E20029F1019112481E0E81AF1081A30B4
:1039400014F4105D01C0195CF7011083122FE32FEE
:10395000CA01232B242B252B31F7B701C6010E9466
:103960002D1CA1960FB6F894DEBF0FBECDBFDF9120
:10397000CF911F910F91FF90EF90DF90CF90BF906C
:10398000AF909F908F900895CF92DF92EF92FF9229
:103990000F931F93CF93DF93EC016A017B012115F5
:1039A000310579F4E881F9810190F081E02D642FEF
:1039B000DF91CF911F910F91FF90EF90DF90CF900B
:1039C00009942A303105E9F477FF1AC06DE20E94AC
:1039D000671C8C0144275527BA014C195D096E09F3
:1039E0007F092AE0CE010E946E1C800F911FDF919B
:1039F000CF911F910F91FF90EF90DF90CF9008959E
:103A00002AE0B701A601CE01DF91CF911F910F915E
:103A1000FF90EF90DF90CF900C946E1C9A01AB0159
:103A2000770F660B770B0C94C41C2115310541F4FC
:103A3000DC01ED91FC910190F081E02D642F09945F
:103A40000C946E1C9A01462F50E060E070E00C94DC
:103A5000151D4F925F926F927F928F929F92AF92BD
:103A6000BF92CF92DF92EF92FF92CF93DF93EC0160
:103A70006A017B01B22E9A01AB01C701B6010E9417
:103A80008E22882319F066EA71E027C026013701EB
:103A9000E89477F82FEF3FEF4FE75FE7C301B201FC
:103AA0000E948E2281110DC02FEF3FEF4FE75FE79D
:103AB000C301B2010E94BD2018161CF46AEA71E02D
:103AC0000CC02FEF3FEF4FE75FE4C701B6010E9444
:103AD0001C2218169CF46EEA71E0CE01DF91CF91A2
:103AE000FF90EF90DF90CF90BF90AF909F908F901E
:103AF0007F906F905F904F900C942D1C2FEF3FEFB5
:103B00004FE75FECC701B6010E94BD2087FDE3CF00
:103B100020E030E0A901C701B6010E94BD2087FF67
:103B20000AC06DE2CE010E94671C4C01F7FAF094C6
:103B3000F7F8F09402C0812C912CA12C60E070E089
:103B400080E09FE3AB1441F020E030E040E251E43C
:103B50000E94C220A394F6CF9B01AC01C701B6011D
:103B60000E9451202B013C010E943B216B017C01F2
:103B70000E946A219B01AC01C301B2010E94502046
:103B80002B013C012AE0B701A601CE010E946E1C68
:103B90007C01E80CF91CBB2039F062EB71E0CE012E
:103BA0000E942D1CE80EF91EDB2CDD2039F120E0EF
:103BB00030E040E251E4C301B2010E9421222B0116
:103BC0003C010E9434214B01770FAA08BB082AE070
:103BD00030E0B501A401CE010E94C41CE80EF91E1C
:103BE000C501B4010E946C219B01AC01C301B2016B
:103BF0000E9450202B013C01DA94D7CFC701DF91FE
:103C0000CF91FF90EF90DF90CF90BF90AF909F90BB
:103C10008F907F906F905F904F9008950C94291D26
:103C20000E94CF190E940319C1EFDEE10E941D1905
:103C30002097E1F30E94F11EF9CFFC012485358520
:103C4000F901E05CFF4F80819181329620813181C2
:103C5000821B930B8F7399270895DC011C96ED91BD
:103C6000FC911D97DF01A05CBF4F2D913C911197F6
:103C700012968D919C9111972817390739F08D91E3
:103C80009C91E80FF91F808190E008958FEF9FEFDE
:103C90000895FC01A485B585FD01E05CFF4F2081FE
:103CA00031813296808191812817390779F080819E
:103CB0009181A80FB91F8C91208131812F5F3F4FD7
:103CC0002F7333273183208390E008958FEF9FEF88
:103CD0000895FC0181A1882329F0A489B5898C91DC
:103CE00086FFFBCF11A208950F931F93CF93DF930D
:103CF000FC01A685B7858D01005C1F4FE801888116
:103D0000998101968F739927AD014E5B5F4FEA0150
:103D10002881398182179307D1F3E80128813981FD
:103D2000A20FB31F6C93A685B785A05CBF4F1196F9
:103D30009C938E93A689B7892C9181E090E0078CA3
:103D400002C0880F991F0A94E2F7822B8C9381E0BE
:103D500081A30488F589E02D80818064808381E0DF
:103D600090E0DF91CF911F910F91089508951F92D8
:103D70000F920FB60F9211242F934F935F938F934F
:103D80009F93EF93FF938091C00082FD1CC0209110
:103D9000C600809195029091960201968F739927A3
:103DA00040919702509198028417950771F0E09125
:103DB0009502F0919602EB5AFD4F20839093960264
:103DC0008093950202C08091C600FF91EF919F9170
:103DD0008F915F914F912F910F900FBE0F901F9079
:103DE00018958FEE91E00E941D1E892B11F00C9406
:103DF000B61E08951F920F920FB60F9211242F93A3
:103E00003F938F939F93EF93FF93209151023091B3
:103E1000520280915302909154022817390731F4CD
:103E20008091C1008F7D8093C10014C0E091530246
:103E3000F0915402EF5EFD4F2081809153029091EA
:103E4000540201968F7399279093540280935302E2
:103E50002093C600FF91EF919F918F913F912F91F9
:103E60000F900FBE0F901F901895CF92DF92EF9298
:103E7000FF920F931F93CF93DF93EC016A017B01B5
:103E80004115514E6105710509F1EC89FD8981E00B
:103E900090E008A002C0880F991F0A94E2F780837F
:103EA00060E079E08DE390E0A70196010E940E208A
:103EB00089019A0101501109210931093695279587
:103EC00017950795980101151041A8F0EC89FD8917
:103ED000108260E874E88EE190E0A70196010E94EC
:103EE0000E20DA01C9010197A109B109B695A7957C
:103EF000979587959C01E889F9893083EA89FB8940
:103F0000208319A2EE89FF89408181E090E09C0125
:103F10000C8C02C0220F331F0A94E2F7242B20835B
:103F2000EE89FF8940819C010D8C02C0220F331F56
:103F30000A94E2F7242B2083EE89FF8940819C01BB
:103F40000E8C02C0220F331F0A94E2F7242B208329
:103F5000EE89FF8920810F8C02C0880F991F0A9477
:103F6000E2F7809582238083DF91CF911F910F919B
:103F7000FF90EF90DF90CF90089581E00895EFEEED
:103F8000F1E01382128288EE93E0A0E0B0E0848337
:103F90009583A683B78388EB91E09183808385E541
:103FA00092E09587848781E192E09787868785EC08
:103FB00090E0918B808B84EC90E0938B828B80ECF3
:103FC00090E0958B848B81EC90E0978B868B82ECD4
:103FD00090E0918F808F86EC90E0938F828F84E0C9
:103FE000848F83E0858F87E0868F85E0878F81E0EF
:103FF00080A30895AA1BBB1B51E107C0AA1FBB1FCA
:10400000A617B70710F0A61BB70B881F991F5A9564
:10401000A9F780959095BC01CD010895A1E21A2ED3
:10402000AA1BBB1BFD010DC0AA1FBB1FEE1FFF1F5C
:10403000A217B307E407F50720F0A21BB30BE40BAC
:10404000F50B661F771F881F991F1A9469F76095F3
:104050007095809590959B01AC01BD01CF010895AD
:104060000E944120A59F900DB49F900DA49F800DAC
:10407000911D11240895EE0FFF1F0590F491E02D7E
:104080000994A29FB001B39FC001A39F700D811D31
:104090001124911DB29F700D811D1124911D089551
:1040A0005058BB27AA270E9468200C94E2210E9446
:1040B000D42138F00E94DB2120F039F49F3F19F41D
:1040C00026F40C94D1210EF4E095E7FB0C94CB215F
:1040D000E92F0E94F32158F3BA1762077307840788
:1040E000950720F079F4A6F50C9415220EF4E095CE
:1040F0000B2EBA2FA02D0B01B90190010C01CA01A2
:10410000A0011124FF27591B99F0593F50F4503E4C
:1041100068F11A16F040A22F232F342F4427585F3E
:10412000F3CF469537952795A795F0405395C9F756
:104130007EF41F16BA0B620B730B840BBAF091500E
:10414000A1F0FF0FBB1F661F771F881FC2F70EC0AD
:10415000BA0F621F731F841F48F487957795679580
:10416000B795F7959E3F08F0B0CF9395880F08F06C
:104170009927EE0F9795879508950E94A72108F437
:1041800081E008950E94D6200C94E2210E94DB2158
:1041900058F00E94D42140F029F45F3F29F00C949C
:1041A000CB2151110C9416220C94D1210E94F321A1
:1041B00068F39923B1F3552391F3951B550BBB2756
:1041C000AA2762177307840738F09F5F5F4F220F9B
:1041D000331F441FAA1FA9F335D00E2E3AF0E0E892
:1041E00032D091505040E695001CCAF72BD0FE2FDC
:1041F00029D0660F771F881FBB1F26173707480770
:10420000AB07B0E809F0BB0B802DBF01FF27935827
:104210005F4F3AF09E3F510578F00C94CB210C94FF
:1042200016225F3FE4F3983ED4F386957795679521
:10423000B795F7959F5FC9F7880F911D969587955C
:1042400097F90895E1E0660F771F881FBB1F62177B
:1042500073078407BA0720F0621B730B840BBA0B39
:10426000EE1F88F7E09508950E943B216894B111F4
:104270000C94162208950E94FB2188F09F5798F015
:10428000B92F9927B751B0F0E1F0660F771F881F5B
:10429000991F1AF0BA95C9F714C0B13091F00E9475
:1042A0001522B1E008950C941522672F782F8827E6
:1042B000B85F39F0B93FCCF3869577956795B3959C
:1042C000D9F73EF490958095709561957F4F8F4F0B
:1042D0009F4F0895E89409C097FB3EF49095809510
:1042E000709561957F4F8F4F9F4F9923A9F0F92FBC
:1042F00096E9BB279395F695879577956795B7953A
:10430000F111F8CFFAF4BB0F11F460FF1BC06F5F1F
:104310007F4F8F4F9F4F16C0882311F096E911C031
:10432000772321F09EE8872F762F05C0662371F052
:1043300096E8862F70E060E02AF09A95660F771F66
:10434000881FDAF7880F9695879597F90895990F42
:104350000008550FAA0BE0E8FEEF16161706E8074F
:10436000F907C0F012161306E407F50798F0621B70
:10437000730B840B950B39F40A2661F0232B242B45
:10438000252B21F408950A2609F4A140A6958FEF64
:10439000811D811D089597F99F6780E870E060E0B6
:1043A00008959FEF80EC089500240A9416161706CE
:1043B00018060906089500240A9412161306140616
:1043C00005060895092E0394000C11F4882352F079
:1043D000BB0F40F4BF2B11F460FF04C06F5F7F4F31
:1043E0008F4F9F4F089557FD9058440F551F59F018
:1043F0005F3F71F04795880F97FB991F61F09F3FD2
:1044000079F087950895121613061406551FF2CFFA
:104410004695F1DF08C0161617061806991FF1CF4A
:1044200086957105610508940895E894BB27662771
:104430007727CB0197F908950E94A72108F48FEF01
:1044400008950E9434220C94E2210E94D42138F075
:104450000E94DB2120F0952311F00C94CB210C94C9
:10446000D12111240C9416220E94F32170F3959F00
:10447000C1F3950F50E0551F629FF001729FBB275B
:10448000F00DB11D639FAA27F00DB11DAA1F649FF7
:104490006627B00DA11D661F829F2227B00DA11DAA
:1044A000621F739FB00DA11D621F839FA00D611D30
:1044B000221F749F3327A00D611D231F849F600D51
:1044C000211D822F762F6A2F11249F5750409AF07A
:1044D000F1F088234AF0EE0FFF1FBB1F661F771F06
:1044E000881F91505040A9F79E3F510580F00C94D1
:1044F000CB210C9416225F3FE4F3983ED4F38695CB
:1045000077956795B795F795E7959F5FC1F7FE2B70
:10451000880F911D9695879597F908950E94A72178
:10452000880B990B0895CF93DF938230910510F497
:1045300082E090E0E0919B02F0919C0220E030E06C
:10454000C0E0D0E0309711F1408151814817590700
:10455000C0F04817590761F482819381209719F0C0
:104560009B838A832BC090939C0280939B0226C0DE
:104570002115310519F04217530718F49A01BE01AD
:10458000DF01EF010280F381E02DDCCF2115310541
:1045900009F1281B390B2430310590F412968D91C6
:1045A0009C9113976115710521F0FB019383828320
:1045B00004C090939C0280939B02FD01329644C0FC
:1045C000FD01E20FF31F81939193225031092D9346
:1045D0003C933AC02091990230919A02232B41F4E6
:1045E000209102013091030130939A0220939902A5
:1045F00020910001309101012115310541F42DB7C1
:104600003EB74091040150910501241B350BE09108
:104610009902F0919A02E217F307A0F42E1B3F0BC8
:104620002817390778F0AC014E5F5F4F2417350724
:1046300048F04E0F5F1F50939A0240939902819366
:10464000919302C0E0E0F0E0CF01DF91CF910895B7
:104650000F931F93CF93DF93009709F48CC0FC0155
:1046600032971382128200919B0210919C020115D5
:10467000110581F420813181820F931F20919902CD
:1046800030919A022817390779F5F0939A02E0934E
:10469000990271C0D80140E050E0AE17BF0750F456
:1046A00012962D913C911397AD012115310509F119
:1046B000D901F3CF9D01DA013383228360817181B7
:1046C000860F971F8217930769F4EC0128813981BF
:1046D000260F371F2E5F3F4F318320838A819B81B6
:1046E00093838283452B29F4F0939C02E0939B02F1
:1046F00042C01396FC93EE931297ED0149915991A4
:104700009E01240F351FE217F30771F48081918118
:10471000840F951F029611969C938E9382819381AC
:1047200013969C938E931297E0E0F0E0D8011296D6
:104730008D919C911397009719F0F8018C01F6CF99
:104740008D919C9198012E5F3F4F820F931F209176
:10475000990230919A022817390769F4309729F4A1
:1047600010929C0210929B0202C01382128210933C
:104770009A0200939902DF91CF911F910F910895B2
:10478000662777270C94112691110C946E2780329E
:1047900019F089508550C8F70895FB01DC018D910F
:1047A000059080190110D9F3990B0895FB01DC01E4
:1047B00002C001900D9241505040D8F70895FC017D
:1047C0008191861721F08823D9F799270895319789
:1047D000CF010895BB274A3031F4992322F4BDE27A
:1047E000909581959F4F0C94F623BB27FB0155278D
:1047F000AA27880F991FAA1FA41710F0A41B83953E
:104800005051B9F7A05DAA3308F0A95DA1930097B4
:1048100079F7B111B1931192CB010C949F27AEE0BF
:10482000B0E0E5E1F4E20C9469280D891E898F89D6
:10483000988D2EE02C831A83098397FF02C080E0B5
:1048400090E801979E838D83AE01455E5F4F698D31
:104850007A8DCE0101960E943F244D815E8157FDE5
:104860000AC02F813885421753070CF49A01F801CA
:10487000E20FF31F10822E96E4E00C948528ACE042
:10488000B0E0E5E4F4E20C945B287C016B018A0162
:10489000FC0117821682838181FFBDC1CE01019682
:1048A0004C01F7019381F60193FD859193FF81916E
:1048B0006F01882309F4ABC1853239F493FD8591EA
:1048C00093FF81916F01853229F4B70190E00E9436
:1048D000AF27E7CF512C312C20E02032A0F48B32CF
:1048E00069F030F4803259F0833269F420612CC0D1
:1048F0008D3239F0803339F4216026C02260246083
:1049000023C0286021C027FD27C030ED380F3A3082
:1049100078F426FF06C0FAE05F9E300D1124532E76
:1049200013C08AE0389E300D1124332E20620CC053
:104930008E3221F426FD6BC1206406C08C3611F442
:10494000206802C0883641F4F60193FD859193FFFB
:1049500081916F018111C1CF982F9F7D9554933024
:1049600028F40C5F1F4FFFE3F9830DC0833631F04D
:10497000833771F0833509F05BC022C0F801808174
:1049800089830E5F1F4F44244394512C540115C05A
:104990003801F2E06F0E711CF801A080B18026FF93
:1049A00003C0652D70E002C06FEF7FEFC5012C875B
:1049B0000E9494272C0183012C852F77222E17C06B
:1049C0003801F2E06F0E711CF801A080B18026FF63
:1049D00003C0652D70E002C06FEF7FEFC5012C872B
:1049E0000E9489272C012C852068222E830123FC1C
:1049F0001BC0832D90E048165906B0F4B70180E241
:104A000090E00E94AF273A94F4CFF50127FC8591FE
:104A100027FE81915F01B70190E00E94AF2731101E
:104A20003A94F1E04F1A51084114510471F7E5C06E
:104A3000843611F0893639F5F80127FF07C0608107
:104A40007181828193810C5F1F4F08C060817181E9
:104A5000072E000C880B990B0E5F1F4F2F76722EBE
:104A600097FF09C090958095709561957F4F8F4F06
:104A70009F4F2068722E2AE030E0A4010E94E727B1
:104A8000A82EA81844C0853729F42F7EB22E2AE01C
:104A900030E025C0F22FF97FBF2E8F36C1F018F419
:104AA000883579F0B4C0803719F0883721F0AFC06D
:104AB0002F2F2061B22EB4FE0DC08B2D8460B82E36
:104AC00009C024FF0AC09F2F9660B92E06C028E0B7
:104AD00030E005C020E130E002C020E132E0F80122
:104AE000B7FE07C060817181828193810C5F1F4F87
:104AF00006C06081718180E090E00E5F1F4FA401CD
:104B00000E94E727A82EA818FB2DFF777F2E76FEA0
:104B10000BC0372D3E7FA51450F474FE0AC072FC02
:104B200008C0372D3E7E05C0BA2C372D03C0BA2CE5
:104B300001C0B52C34FF0DC0FE01EA0DF11D8081CE
:104B4000803311F4397E09C032FF06C0B394B394A8
:104B500004C0832F867809F0B39433FD13C030FF6F
:104B600006C05A2CB31418F4530C5B18B32CB314AE
:104B700068F4B70180E290E03C870E94AF27B394CD
:104B80003C85F5CFB31410F43B1801C0312C34FF31
:104B900012C0B70180E390E03C870E94AF273C85BC
:104BA00032FF17C031FD03C088E790E002C088E5FE
:104BB00090E0B7010CC0832F867859F031FF02C016
:104BC0008BE201C080E237FD8DE2B70190E00E94E8
:104BD000AF27A51438F4B70180E390E00E94AF2717
:104BE0005A94F7CFAA94F401EA0DF11D8081B70120
:104BF00090E00E94AF27A110F5CF332009F451CEE9
:104C0000B70180E290E00E94AF273A94F6CFF70117
:104C10008681978102C08FEF9FEF2C96E2E10C9482
:104C20007728A0E0B0E0E7E1F6E20C945F28EC0121
:104C30007B016115710519F0DB018D939C938E0149
:104C40000F5F1F4F7880872D90E00E94C423892B2F
:104C500011F0E801F4CFBDE27B1205C00F5F1F4FDA
:104C60007980C1E008C0EBE27E1204C08E010E5FC5
:104C70001F4F7980C0E06801F1E0CF1AD10843E00E
:104C800050E063E971E0C6010E947127892BF1F4BD
:104C9000680122E0C20ED11C45E050E06EE871E0F0
:104CA000C6010E947127892B21F4680187E0C80E94
:104CB000D11CE114F10419F0D701CD92DC92C1119D
:104CC000FFC060E070E080E89FE703C143E050E090
:104CD0006BE871E0C6010E947127892B51F4E11441
:104CE000F10409F4F2C00E5F1F4FF7011183008336
:104CF000ECC0680160E070E0CB0100E010E0F6017C
:104D0000D0EDD70DDA3058F52C2F2260622E2C2FE3
:104D10002870C2FF05C0211128C00F5F1F4F25C09A
:104D2000222311F001501109A5E0B0E09B01AC0174
:104D30000E9430204B015C01880C991CAA1CBB1CF2
:104D4000C501B4016D0F711D811D911D6839A9E95F
:104D50007A078A07A9E19A0740F0C66005C0DE3FDE
:104D600051F4C3FD44C0C8606C2EBFEFCB1ADB0A00
:104D70007080C62DC4CF2D2F2F7D2531C1F54081E8
:104D80004D3211F4C06106C04B3221F0319621E062
:104D900030E006C03296D60111964C9122E030E008
:104DA000A0EDA40FAA3018F0E21BF30B20C040E0E6
:104DB00050E04038BCE05B075CF49A01220F331FDF
:104DC000220F331F420F531F440F551F4A0F511D0F
:104DD0003196DF0111972C91A0EDA20FAA3048F374
:104DE000C4FF03C0519541955109040F151FC1FF20
:104DF00007C0E114F10421F03197D701ED93FC9342
:104E00000E946A21C370C33019F06B017C0106C097
:104E10006B017C01F7FAF094F7F8F09420E030E0B1
:104E2000A901C701B6010E94BD20882309F445C02D
:104E300017FF06C0119501951109CAEAD1E002C019
:104E4000C2ECD1E05E01B8E1AB1AB1084601BE2D5B
:104E5000AF2D90E2E92EF12C0E151F0584F0FE0116
:104E60002591359145915491B4018B2F9A2F0E9431
:104E700021224B01B82FA92F0E191F09EDCF24971E
:104E8000F594E794CA15DB0539F76401EB2EFA2E89
:104E90008E2D880F8F2D881F8F3F49F020E030E046
:104EA000A901C701B6010E94BD20811106C082E29E
:104EB00090E090939E0280939D02C701B60109C0C5
:104EC00060E070E080E89FEF04C060E070E080EC9C
:104ED0009FE7CDB7DEB7EEE00C947B2899278827B3
:104EE0000895FB01DC014150504088F08D918134E0
:104EF0001CF08B350CF4805E659161341CF06B35D1
:104F00000CF4605E861B611171F3990B0895881B88
:104F1000FCCFFC010590615070400110D8F78095DE
:104F200090958E0F9F1F0895FC0161507040019075
:104F30000110D8F7809590958E0F9F1F0895DC0182
:104F4000FC01672F71917723E1F7329704C07C91C0
:104F50006D9370836291AE17BF07C8F308950F93E6
:104F60001F93CF93DF93FB01238121FD03C08FEFBC
:104F70009FEF28C022FF16C04681578124813581CA
:104F80004217530744F4A081B1819D012F5F3F4F29
:104F9000318320838C93268137812F5F3F4F378366
:104FA000268310C0EB01092F182F0084F185E02D16
:104FB0000995892BE1F68E819F8101969F838E83CF
:104FC000812F902FDF91CF911F910F910895FA01BA
:104FD000AA27283051F1203181F1E8946F936E7F38
:104FE0006E5F7F4F8F4F9F4FAF4FB1E03ED0B4E029
:104FF0003CD0670F781F891F9A1FA11D680F791F6A
:105000008A1F911DA11D6A0F711D811D911DA11D7A
:1050100020D009F468943F912AE0269F112430198A
:10502000305D3193DEF6CF010895462F4770405D25
:105030004193B3E00FD0C9F7F6CF462F4F70405DD4
:105040004A3318F0495D31FD4052419302D0A9F72F
:10505000EACFB4E0A6959795879577956795BA9529
:10506000C9F700976105710508959B01AC010A2EEF
:1050700006945795479537952795BA95C9F7620FC6
:10508000731F841F951FA01D0895F999FECF92BD2F
:1050900081BDF89A992780B50895262FF999FECFFA
:1050A0001FBA92BD81BD20BD0FB6F894FA9AF99A45
:1050B0000FBE019608952F923F924F925F926F928A
:1050C0007F928F929F92AF92BF92CF92DF92EF9298
:1050D000FF920F931F93CF93DF93CDB7DEB7CA1B19
:1050E000DB0B0FB6F894DEBF0FBECDBF09942A8844
:1050F000398848885F846E847D848C849B84AA84EC
:10510000B984C884DF80EE80FD800C811B81AA8178
:10511000B981CE0FD11D0FB6F894DEBF0FBECDBF43
:08512000ED010895F894FFCFA2
:1051280000009F022000FF0000400014005400000F
:105138000000009C04051C4475616C0053696E678F
:105148006C650061575849726F6E7300464F535330
:1051580020202D2020464F5348004631524D420012
:1051680003010301030103010101010320200301DD
:10517800010303010320200303010301010320208D
:1051880020000000030003000320020203000203C2
:1051980003010303020203020200000303020303E4
:1051A800020320202001010100000000A204E10404
:1051B80000000000A304CD0400000000C504D704CB
:1051C80000000000221B6E616E00696E66006F763B
:1051D80066002E0000000000741E051C1D1E491EDE
:0451E8002D1E691EF1
:00000001FF
