:100000000C94AD000C946D150C949A150C94D500BD
:100010000C94D5000C94D5000C94D5000C94041CC1
:100020000C94D5000C94D5000C94D5000C94D500FC
:100030000C94D5000C9432020C94D5000C94D5008D
:100040000C94C7150C94D5000C9406180C94491800
:100050000C94D5000C94D5000C94D5000C94D500CC
:100060000C94D5000C94D5003B00323D003B003190
:100070003D002020202000537462790043414C0051
:100080001F1F0000000000000000000000001F1FF4
:100090001F1F000000001F1F1F1F1F1F1F1F1F1FEC
:1000A00000000000000E0E0E00000303030300001A
:1000B0000000181818180000000E1317171F0E0064
:1000C0000000000700020100000304060000000019
:1000D0000000000001020408102040800102040812
:1000E0001020010204081020040404040404040481
:1000F00002020202020203030303030300000000E2
:1001000023002600290000000000250028002B0005
:1001100000000000240027002A00024E414E494EF4
:10012000495459494E46CDCCCC3D0AD7233C17B74C
:10013000D13877CC2B329595E6241FB14F0A0000B9
:1001400020410000C84200401C4620BCBE4CCA1BD7
:100150000E5AAEC59D740719971911241FBECFEF13
:10016000D8E0DEBFCDBF11E0A0E0B1E0EEE9F9E4F8
:1001700002C005900D92AA3EB107D9F712E0AAEE8F
:10018000B1E001C01D92A53CB107E1F711E0CAE55D
:10019000D1E004C02297FE010E949E1CC635D10703
:1001A000C9F70E94A6190C94CD240C940000EF927C
:1001B0000F931F93CF93DF93EC01862F68834983BE
:1001C0002A83EB821D821C821F821E8208871A8668
:1001D00019861C861B8691E09D879E87E11002C0D0
:1001E00012E001C010E0612F0E94D616612F8981B4
:1001F0000E94D616612F8A810E94D61688810E949D
:1002000045172B8130E08217930721F483E090E0BB
:100210009F838E8389810E9445172B8130E082174E
:10022000930731F48E819F8121E082279F838E8303
:10023000DF91CF911F910F91EF900895CF92DF92B0
:10024000EF92FF921F93CF93DF93EC010E94111660
:100250006B017C018E85882359F089859A850297E8
:100260009A87898789859A8597FF02C01A86198699
:1002700088810E9445172B8130E08217930711F087
:1002800010E001C013E089810E9445172B8130E006
:100290008217930711F481E018272E813F81211BDB
:1002A00020FF14C0812F992787FD90959F838E830F
:1002B0008C819D812270332727FD30952150310993
:1002C000820F931F9D838C8381E001C080E09E8517
:1002D000992361F0882351F089859A85883E9B4057
:1002E00028F489859A8549969A8789878091ED01B6
:1002F0009091EE01A091EF01B091F001B701A6013C
:10030000481B590B6A0B7B0B4A305105610571057F
:1003100008F45DC0C092ED01D092EE01E092EF01D1
:10032000F092F0018A810E9445172B8130E08217FC
:10033000930781F48091EB019091EC0101969093E9
:10034000EC018093EB018937910520F083E090E088
:100350009C878B878A810E9445172B8131E0232758
:1003600030E08217930731F58091EB019091EC0119
:10037000892BE1F08B859C85039719F484E090E04C
:1003800008C08091EA01823048F08C3378F486E02E
:1003900090E09C878B871092EA0108C08D858823A6
:1003A00011F08CE301C081E08093EA011092EC012E
:1003B0001092EB018091EA01882349F082508093EA
:1003C000EA01811104C085E090E09C878B87DF9172
:1003D000CF911F91FF90EF90DF90CF900895FC0197
:1003E000F894248135818085823021F4C90181709F
:1003F000992705C0843031F4C9018370992795830A
:10040000848302C01582148278948085843029F414
:10041000359527953595279504C0823011F435958B
:1004200027958685882329F081859285892F9927AC
:1004300002C080E090E037FF03C08095909508955A
:10044000232B11F00196089580E090E00895FC01BF
:1004500083859485238534852330310511F01486F6
:10046000138608951F920F920FB60F9211242F93A7
:100470003F934F935F936F937F938F939F93AF932C
:10048000BF93EF93FF93E091F201F091F30109958F
:10049000FF91EF91BF91AF919F918F917F916F915C
:1004A0005F914F913F912F910F900FBE0F901F9032
:1004B0001895CB010C943422CB01642F0C943C2270
:1004C000CF93DF93EC0160E08E810E940F1781E0F3
:1004D00090E00E94671661E08E810E940F1781E014
:1004E00090E00E94671660E08E810E940F1784E6FC
:1004F00090E0DF91CF910C946716CF92DF92EF924C
:10050000FF920F931F93CF93DF937C01C0E0D0E065
:10051000C62ED12C87010C0F1D1F61E0F8018781C9
:100520000E94D616B6010C2E02C0759567950A94E6
:10053000E2F76170F80187810E940F172196C4309D
:10054000D10541F7C701DF91CF911F910F91FF9026
:10055000EF90DF90CF900C946002CF92DF92EF92F9
:10056000FF920F931F93CF93DF937C01C0E0D0E005
:10057000C62ED12C87010C0F1D1F61E0F801878169
:100580000E94D616B6010C2E02C0759567950A9486
:10059000E2F76170F80187810E940F172196C83039
:1005A000D10541F7C701DF91CF911F910F91FF90C6
:1005B000EF90DF90CF900C9460021F93CF93DF9366
:1005C000EC01162F642F8C810E940F178D818F3FB5
:1005D00019F060E00E940F178F85612F84FF06C01D
:1005E000CE01DF91CF911F910C94AD0270E0E4E059
:1005F00075956795EA95E1F7CE010E947D02612F1E
:10060000CE01DF91CF911F910C947D0240E00C94BC
:10061000DD0261E00E94060380ED97E00C9467160E
:10062000CF93DF93CDB7DEB728970FB6F894DEBF30
:100630000FBECDBF28E0EBE0F1E0DE0111960190A6
:100640000D922A95E1F7FC012389421710F04FEF34
:10065000420FFE013196E40FF11DE40FF11D2081E0
:10066000260F2068622F28960FB6F894DEBF0FBEC3
:10067000CDBFDF91CF910C940603FC016089262F3A
:100680002460208B6C600C940603CF93DF93EC0105
:10069000423018F08F8588608F874B8B1C8A22230D
:1006A00029F0413019F48F8584608F8780E593ECC1
:1006B0000E94671660E08C810E940F1760E08E81B7
:1006C0000E940F178D818F3F19F060E00E940F1775
:1006D0006F8564FD1DC063E0CE010E947D0284E948
:1006E00091E10E94671663E0CE010E947D0284E9D9
:1006F00091E10E94671663E0CE010E947D0286E9C7
:1007000090E00E94671662E0CE010E947D0216C052
:100710006062CE010E94060384E991E10E9467169F
:100720006F856062CE010E94060386E990E00E9418
:1007300067166F856062CE010E9406036F85606256
:10074000CE010E94060384E0888BCE010E943D0307
:10075000CE010E94090382E0898B66E0CE01DF9121
:10076000CF910C9406036F927F928F92AF92CF92AB
:10077000EF920F931F93CF93DF93CDB7DEB73C017A
:10078000162F842F5D854E853F859889F3018483DC
:1007900025830683E782C086A186828653874487A5
:1007A0003587968761E00E94D616F30185818F3FD9
:1007B00019F061E00E94D61661E0F30186810E9483
:1007C000D616112319F0F301178603C080E1F30157
:1007D000878720E041E060E1C301DF91CF911F9165
:1007E0000F91EF90CF90AF908F907F906F900C947F
:1007F00045038F92AF92CF92EF920F93DC01139645
:100800001C921E921297E7E1F1E0ED93FC931F9288
:100810001F921F921F928C2CAE2CC02EE22E042F02
:100820002FEF462F61E00E94B3030F900F900F90BF
:100830000F900F91EF90CF90AF908F900895CF923F
:10084000DF92EF92FF920F931F93CF93DF9300D02D
:10085000CDB7DEB78C01677088E0689FB0011124C6
:100860006064C80149835A830E9406034981C42EEB
:100870005A81D52EE12CF12CD6016D916D01D80154
:10088000ED91FC910190F081E02DC8010995BFEF39
:10089000EB1AFB0AE8E0EE16F10471F70F900F90E7
:1008A000DF91CF911F910F91FF90EF90DF90CF904C
:1008B000089541E00E94DD0281E090E0089522EB7E
:1008C00031E0FC013183208308950F931F93CF9370
:1008D000DF932AEB31E0FC01318320838C01095E38
:1008E0001F4F0115110579F0EC01C157DF4FC017FB
:1008F000D10749F0EC97E881F9810190F081E02D72
:10090000CE010995F4CFDF91CF911F910F910895FA
:1009100022EC31E0FC0121933193CF010C9465046A
:1009200022EB31E0FC01318320830C94B519CF9385
:10093000DF93EC010E946504CE01DF91CF910C940E
:10094000B519CF93DF93EC010E948804CE01DF91AB
:10095000CF910C94B5198091F7019091F8010C9406
:100960001E01FC0182EB91E091838083148A168A38
:10097000158A108E178A118E138E128E148E81E0B6
:1009800090E0968F858F178E10A211A212A213A24B
:1009900081E084A315A216A217A210A611A614AA7C
:1009A00015AA16AA17AA10AE11AE12AE13AE128275
:1009B0001086168643E35BE16AEC7EE343A754A707
:1009C00065A776A74DEC5FE46FE272E447A750ABF2
:1009D00061AB72AB0895FC016130710559F4258952
:1009E000368981E02417350709F480E084A3568B0B
:1009F000458B04C02789308D508F478B81E02417A9
:100A0000350709F480E00895CF93DF9300D000D03C
:100A100000D0CDB7DEB729833A834B835C836D83E7
:100A20007E83313029F0323031F484B58F7D02C0BD
:100A300084B58F7784BD26960FB6F894DEBF0FBEBF
:100A4000CDBFDF91CF910895CF93DF9300D000D039
:100A500000D0CDB7DEB729833A834B835C836D83A7
:100A60007E83552351F029810E940405ED81FE818A
:100A700090818B81982381E009F480E026960FB65F
:100A8000F894DEBF0FBECDBFDF91CF910895EF92F6
:100A9000FF920F931F93CF93DF9300D000D000D02D
:100AA000CDB7DEB729833A83142F4B835C836D83E4
:100AB0007E83ED80FE80332319F029810E94040596
:100AC0009FB7F894F7018081011104C01095182395
:100AD000108302C0812B80839FBF26960FB6F894A7
:100AE000DEBF0FBECDBFDF91CF911F910F91FF9061
:100AF000EF9008950F931F93CF93DF93EC010DA117
:100B00001EA12FA138A5DB01CA01801B910BA20BEE
:100B1000B30B8C019D01013991E0190721053105C5
:100B200050F48C8D882309F455C006381105210531
:100B3000310508F44FC04DA35EA36FA378A78D8D38
:100B40009E8D81309105B1F01CF4892B39F035C0B0
:100B50008230910511F10397C9F02FC02E853F8592
:100B6000488959896A897B89CE010E942405813090
:100B700021F51CC02E853F85488959896A897B8962
:100B8000CE010E942405811118C012C089A58F5F73
:100B900089A7883078F4813059F02E853F854889BF
:100BA00059896A897B89CE010E9424058F8F05C0EF
:100BB0001F8E03C08A3009F419A601E08F8D8111C0
:100BC00000E02E853F85488959896A897B89CE0155
:100BD0000E9447058F8DDF91CF911F910F9108954E
:100BE000CF93DF9300D000D000D0CDB7DEB72983FC
:100BF0003A834B835C836D837E832E3008F02E50C6
:100C00002770206420937C0080917A008064809318
:100C10007A0080917A0086FDFCCF80917800209147
:100C2000790090E0922B26960FB6F894DEBF0FBEA7
:100C3000CDBFDF91CF9108950F93CF93DF9300D075
:100C400000D000D0CDB7DEB729833A834B835C83D5
:100C50006D837E83002349F00F3F51F401E0298129
:100C60003A814B815C816D817E810E9447050EC077
:100C70008A81813039F0823049F484B5806284BD44
:100C800008BD04C084B5806884BD07BD26960FB634
:100C9000F894DEBF0FBECDBFDF91CF910F910895C5
:100CA000FF920F931F93CF93DF93EC01862FF42EC7
:100CB000122F91E09AA76A8361E00E94D6162A81DA
:100CC000622F70E0FB01E054FF4F34913B83FB0146
:100CD000EC52FF4F44914C83FB01E851FF4F54917C
:100CE0005D83E52FF0E0EE0FFF1FEA5FFE4FA59159
:100CF000B4916A2FBF83AE83098D7F81CE010E949C
:100D00001C06F88660E08F2D0E94D6161E8761E0D3
:100D1000812F0E94D6162E85822F90E0FC01E05490
:100D2000FF4F34913F87FC01EC52FF4F4491488BB9
:100D3000FC01E851FF4F5491598BE52FF0E0EE0F85
:100D4000FF1FEA5FFE4FA591B4916A2FBB8BAA8B60
:100D500001E07B89CE010E944705DF91CF911F9171
:100D60000F91FF9008954F925F926F927F92AF9292
:100D7000BF92CF92DF92EF92FF920F931F93CF9388
:100D8000DF9300D000D000D0CDB7DEB77C012A01C0
:100D90003B01FC01A788B08CC588D688848D882348
:100DA00059F0F6E9CF16D10424F43AE0C32ED12C41
:100DB00003C026E9C22ED12C86E0F7013296DE016F
:100DC000119601900D928A95E1F700E029813A8110
:100DD0004B815C816D817E81C7010E94470562E382
:100DE00070E080E090E00E944116F7012085318597
:100DF0004285538564857585C7010E94F005F7011A
:100E0000938F828F018D2281338144815581668148
:100E10007781C7010E941C06F7012789308DC60122
:100E2000821B930B1816190664F44AE0489F800150
:100E3000499F100D11240739110524F006E910E02F
:100E400001C000E0F701848D882319F083E090E071
:100E500017C024303105B4F0C601039728173907AD
:100E600044F0C6010396821793071CF082E090E0DD
:100E700006C081E090E0002311F080E090E0F701EF
:100E8000968F858FF70184A995A9A6A9B7A9B30163
:100E9000A201481B590B6A0B7B0BDB01CA0181398C
:100EA0009140A105B10590F144AA55AA66AA77AA76
:100EB000C216D3061CF42150310906C02C153D057D
:100EC0002CF42F5F3F4FF701308F278BF701858D73
:100ED000968D02970297D0F480AD91ADA2ADB3ADDF
:100EE000A3019201281B390B4A0B5B0BDA01C901E4
:100EF0008D3D9540A105B10548F040AE51AE62AEC2
:100F000073AE8789908D0297908F878BF701818DC3
:100F1000801751F0018F2281338144815581668190
:100F20007781C7010E941C0681E0F7012789308D77
:100F3000A216B30609F480E026960FB6F894DEBF39
:100F40000FBECDBFDF91CF911F910F91FF90EF901A
:100F5000DF90CF90BF90AF907F906F905F904F9059
:100F60000895CF92EF920F93CF93DF93EC01EAEBCA
:100F7000F1E0DC01ED93FD93CD010E94F903CE0178
:100F800047960E94B104CE018D5A9F4F0E94B10432
:100F9000FE01E157FF4F11821082FE01EF56FF4F15
:100FA0001082118212821382FE01E956FF4F1082D5
:100FB000FE01E856FF4F1082FE01E756FF4F1082F8
:100FC000118212821382FE01E356FF4F10821182BA
:100FD00012821382FE01EF55FF4F1082118212829E
:100FE0001382FE01EB55FF4F1082FE01EA55FF4FC1
:100FF0001082CB56DF4F80E092E099838883DF91A7
:10100000CF910F91EF90CF900895BF92CF92DF9242
:10101000EF92FF920F931F93CF93DF93CDB7DEB77D
:1010200061970FB6F894DEBF0FBECDBF8C017C0177
:1010300082E0E80EF11CC7010E940903F801EB569B
:10104000FF4F808180FF03C08BE191E002C080E20E
:1010500091E09F938F9387E291E09F938F9380E33A
:1010600091E09F938F931F9241E1B42EBF928E0126
:101070000F5F1F4F1F930F930E943220F8010190C2
:101080000020E9F73197E01BF10B50E1C52ED12C80
:10109000B6016E1B7F0B7695679540E0C7010E94F5
:1010A0001003B801C7010E941A1A1F9282E08F93A1
:1010B0001F9281E08F931F9286E78F9386E391E0E2
:1010C0009F938F931F92BF921F930F930E94322082
:1010D000F80101900020E9F73197E01BF10BB60110
:1010E0006E1B7F0B7695679541E0C7010E94100348
:1010F000B801C7010E941A1A60ED77E080E090E025
:101100000E944116C7010E9409030FB6F894DEBF82
:101110000FBECDBF61960FB6F894DEBF0FBECDBF38
:10112000DF91CF911F910F91FF90EF90DF90CF90C3
:10113000BF900895CF93DF93EC01CB55DF4F8881AB
:10114000811123C060E070E081EF91E00E945902BC
:101150008D30C9F461E070E081EF91E00E945902A6
:101160008E3089F462E070E081EF91E00E945902D4
:101170008A3049F463E070E081EF91E00E94590207
:1011800091E08D3009F090E098838881DF91CF91D4
:1011900008954DE060E070E081EF91E00E945C0214
:1011A0004EE061E070E081EF91E00E945C024AE075
:1011B00062E070E081EF91E00E945C024DE063E04C
:1011C00070E081EF91E00C945C02FB0180E06CE840
:1011D000415088F0519198E0752F7827282F30E002
:1011E00035952795822F70FF02C0862F822756954E
:1011F000915091F7EDCF0895BF92CF92DF92EF9289
:10120000FF920F931F93CF93DF9300D0CDB7DEB73C
:101210006C018B017A01FA01118210820E949A08F6
:10122000882391F0B80181EF91E00E945902B82E15
:10123000B8016F5F7F4F0E5F1F4F81EF91E00E94FB
:101240005902F701B0828183C6010E949A08811178
:1012500012C010E0F7019081818199838A8342E076
:10126000BE016F5F7F4FC6010E94E50891E08117C4
:1012700049F090E007C0B80181EF91E00E94590267
:10128000182FE8CF892F0F900F90DF91CF911F91EA
:101290000F91FF90EF90DF90CF90BF900895DF9275
:1012A000EF92FF920F931F93CF93DF9300D01F9283
:1012B000CDB7DEB77C018B01D52E49835A834B8392
:1012C0000E949A084B81882379F0B80181EF91E060
:1012D0000E945C024D2DB8016F5F7F4F0E5F1F4F64
:1012E00081EF91E00E945C0242E0BE016F5F7F4FA0
:1012F000C7010E94E508482FC7014B830E949A0846
:101300004B81882329F0B80181EF91E00E945C02B3
:101310000F900F900F90DF91CF911F910F91FF9041
:10132000EF90DF9008952F923F924F925F926F92CD
:101330007F928F929F92AF92BF92CF92DF92EF9265
:10134000FF920F931F93CF93DF93CDB7DEB76297D2
:101350000FB6F894DEBF0FBECDBF4C017B016A0112
:101360008E01035F1F4FCE0101962C011E0191E1FA
:10137000290E311C1A8B098B52013B01601A710A2C
:10138000B301600F711F81EF91E00E945902F801D3
:1013900081938F01F20181932F010215130581F7CB
:1013A0008E01075F1F4F2E01F5E04F0E511C3701D4
:1013B0006A187B08B301640D751D81EF91E00E94EE
:1013C0005902F80181938F01F20181932F018989DC
:1013D0009A890817190771F7B701685F7F4F81EF86
:1013E00091E00E945902182F48E0B501C4010E9403
:1013F000E508181311C089859A85AB85BC854D8594
:101400005E856F857889F60143A754A765A776A7FF
:1014100087A790ABA1ABB2AB62960FB6F894DEBFD4
:101420000FBECDBFDF91CF911F910F91FF90EF9035
:10143000DF90CF90BF90AF909F908F907F906F90F4
:101440005F904F903F902F9008952F923F924F9230
:101450005F926F927F928F929F92AF92BF92CF9244
:10146000DF92EF92FF920F931F93CF93DF93CDB74D
:10147000DEB763970FB6F894DEBF0FBECDBF5C0139
:101480006B01FA0187A590A9A1A9B2A943A554A50A
:1014900065A576A54D875E876F87788B89879A8744
:1014A000AB87BC87C5010E949A08882309F44BC00A
:1014B0007E01FDE0EF0EF11C8E010F5F1F4F280132
:1014C0004E0185E0880E911C1701098B1A8B36019D
:1014D0006E187F08B3016E0D7F1DF70121917F010A
:1014E000422F81EF91E02B8B0E945C022B89F80147
:1014F00021938F01E815F90569F77E01F9E0EF0EF8
:10150000F11C460184189508F70171907F01B40120
:10151000600F711F472D81EF91E00E945C02F8017E
:1015200071928F01E214F30479F748E069897A89AE
:10153000C5010E94E508B601685F7F4F482F81EF23
:1015400091E00E945C0263960FB6F894DEBF0FBE76
:10155000CDBFDF91CF911F910F91FF90EF90DF9062
:10156000CF90BF90AF909F908F907F906F905F9043
:101570004F903F902F900895CF93DF93EC01FC01A3
:10158000E157FF4F80819181019741F40E9411162C
:10159000CF56DF4F688379838A839B83DF91CF9116
:1015A0000895FC01EB56FF4F808191819B01282318
:1015B0003923232B59F4442319F0682B792B04C0C9
:1015C00060957095682379237183608308950F93E4
:1015D0001F93CF93DF93EC018C0101571F4FF8014C
:1015E000808191817183608341E08617970709F4B8
:1015F00040E064E070E0CE010E94D10AF8018081F1
:101600009181019719F40E94111603C060E070E007
:10161000CB01CF56DF4F688379838A839B83DF9129
:10162000CF911F910F9108950F931F93CF93DF9345
:10163000EC01FC01E157FF4F808191810197D9F4C2
:101640000E941116FE01EF56FF4F00811181228189
:101650003381601B710B820B930B693B7B408105CF
:10166000910548F060E070E0CE01DF91CF911F91CD
:101670000F910C94E70ADF91CF911F910F9108957C
:10168000FC01EB56FF4F442339F080819181862B7A
:10169000972B9183808308956095709580819181C7
:1016A000682379237183608308950F931F93CF93E9
:1016B000DF93EC018C010B561F4FF8018181482FFD
:1016C0004695469550E0F1E04F27417060E074E0A8
:1016D000CE010E94400B41E060E078E0CE010E9424
:1016E000D10AF8019081818182FB882780F98BAB38
:1016F00090FF03C0CD5ADF4F8C8FDF91CF911F91A8
:101700000F910895CF93DF93CDB7DEB760970FB6F3
:10171000F894DEBF0FBECDBF2CE3269FF001279FBC
:10172000F00D1124E80FF91F88E0EE5BFF4FDE019A
:10173000119601900D928A95E1F788E0FE013196AD
:10174000DE01199601900D928A95E1F729853A8577
:101750004B855C856D857E858F85988960960FB6F3
:10176000F894DEBF0FBECDBFDF91CF910895CF9328
:10177000DF93EC01AC01495E5F4F6FE070E00E94C7
:101780009309FE01EB56FF4F808180FF0AC0AE0136
:101790004D5A5F4F68E170E0CE01DF91CF910C941C
:1017A0009309DF91CF9108952F923F924F925F92CC
:1017B0006F927F928F929F92AF92BF92CF92DF9261
:1017C000EF92FF920F931F93CF93DF93CDB7DEB7C6
:1017D00028970FB6F894DEBF0FBECDBF3C01122F85
:1017E0003A2CD82CFC01E956FF4F6083FC01E856E7
:1017F000FF4F40832C0122E0420E511C20E0C20129
:101800000E944503812C912CF12CB8E02B2ECE01A7
:1018100001965C01F501222D11922A95E9F7C50187
:10182000A0E0B0E0940120583F4FF901EA0FFB1F00
:101830004491FC014193CF011196A830B105A9F75D
:10184000A5016F2DC2010E941F04F394F8E08F0ED2
:10185000911C28E0F212DECF85E085BDC3010E9415
:101860009A08811103C0C3010E94C908430187E19E
:10187000880E911C2E2D402F612FC4010E9450060E
:1018800081E0F30183A7A50169E070E0C3010E9434
:10189000FC08882369F089819A818A30910550F08B
:1018A000833CF1E09F0710F082EC91E0AC0104C0B2
:1018B00046E901C04AE050E061E070E0C4010E94E6
:1018C000EB04F30113AE60E08C2D0E94D6168C2D34
:1018D0000E9445178C2D0E94451783010B561F4F00
:1018E000019731F4F8018081918181609183808337
:1018F000F8018081918195FF03C08160918380838D
:10190000F801808180FF4BC0C3010E949A088111B9
:1019100068C0C12C7301F3E5EF0EF11C2D8D4D2D28
:10192000632DC7010E945006A5016CE070E0C30161
:101930000E94FC08882369F029813A812A30310508
:1019400050F0233C81E0380710F022EC31E0A9018F
:1019500004C046E901C04AE050E061E070E0C70120
:101960000E94EB04CC20D1F1F30144A555A5F70169
:10197000858996894817590789F161E070E0C701A8
:101980000E94EB04F8018081918195FF02C040E044
:1019900001C04C2D62E070E0C3010E94400BC30106
:1019A0000E94B70BC3010E94050828960FB6F89451
:1019B000DEBF0FBECDBFDF91CF911F910F91FF9082
:1019C000EF90DF90CF90BF90AF909F908F907F90DF
:1019D0006F905F904F903F902F900895F70114A261
:1019E000D1CF66E070E081EF91E00E945902C82EED
:1019F00091CF2CE3269FA001279F500D1124495E13
:101A00005F4F480F591F672B19F46FE070E002C059
:101A100068E170E00C94250A1F93CF93DF93EC01EB
:101A2000162F462F60E070E20E94400B111107C094
:101A3000CB56DF4F28813981326039832883DF918B
:101A4000CF911F910895FC01EB56FF4F208131810A
:101A500032FD0C94550B08959F92AF92BF92CF9296
:101A6000DF92EF92FF920F931F93CF93DF93EC01DE
:101A70007B018C0101571F4FF80180819181892BD7
:101A800099F461E070E0CE010E94E70ACE01DF9197
:101A9000CF911F910F91FF90EF90DF90CF90BF906B
:101AA000AF909F900C94230DCE010E94230D0E94B5
:101AB0001116FE01EF55FF4F60837183828393837C
:101AC000FE01EA55FF4F1082FE01EB56FF4F808169
:101AD00091815C01F1E0AF22BB2480FD05C0C12CE7
:101AE000D12C3CE3932E2DC081FDF9CF37C09C9CB7
:101AF000C0019D9C900D112447968C0F9D1FF801ED
:101B000060817181FC0161157105F9F44789508D7F
:101B10004E0D5F1D4A305105DCF0433CF1E05F079C
:101B200014F042EC51E00E94EB04C114D10499F48A
:101B300068E070E0482FCE010E94D10A2FEFC21A50
:101B4000D20AAC14BD049CF64CC045895689E0CF3E
:101B50004AE050E0E8CF60E470E0ECCF8BA5FE01F6
:101B600077965F01882311F06F0104C06E01F3E5E1
:101B7000CF0ED11CF80160817181F60161157105EC
:101B800019F44789508D02C045895689E40EF51E27
:101B9000FAE0EF16F1044CF0A70123ECE21621E085
:101BA000F2062CF042EC51E002C04AE050E0C601DF
:101BB0000E94EB04CA14DB0419F468E070E002C070
:101BC00060E470E0482FCE01DF91CF911F910F911B
:101BD000FF90EF90DF90CF90BF90AF909F900C94CC
:101BE000D10ADF91CF911F910F91FF90EF90DF907D
:101BF000CF90BF90AF909F900895CF93DF93EC016B
:101C00000E94230DFE01EB56FF4F808180FF1AC01A
:101C100081FD18C08BA591E089278BA7FE01ED5AA5
:101C2000FF4F84898927848B41E060E072E0CE0118
:101C30000E94D10A41E060E070E1CE01DF91CF91D6
:101C40000C94D10ADF91CF9108950F931F93CF93F6
:101C5000DF93EC010E94230D8E010B561F4FF801FC
:101C60008081918195FD53C080FF51C02BA5CE018D
:101C70008D5A9F4F222329F04CA55DA561E070E0AD
:101C800007C0FC014589568961E070E0CE014796A6
:101C90000E94EB04F8014081518156954795F1E08F
:101CA0004F27417062E070E0CE010E94400BF801C6
:101CB000808191819260918380830E941116FE0140
:101CC000EF55FF4F6083718382839383FE01EA5552
:101CD000FF4F1082F80100811181CE010E949A0805
:101CE0008823A9F0E801C270DD274C2F66E070E080
:101CF00081EF91E00E945C024D2F67E070E081EF80
:101D000091E0DF91CF911F910F910C945C02DF91D4
:101D1000CF911F910F910895AF92BF92CF92EF9202
:101D20000F93CF93DF93EC0182EC91E0FE0181935E
:101D300091935F017CE0C72EEBE0EE2E0AE029E0F4
:101D400048E067E0C5010E94B107E12C04E024E00F
:101D500043E062E0CE0187559F4F0E94D700FE010D
:101D6000E650FF4F1082C550DF4F188219821A8249
:101D70001B8284E00E944517892B59F461E0C5015C
:101D8000DF91CF910F91EF90CF90BF90AF900C94D7
:101D90000C0DDF91CF910F91EF90CF90BF90AF904E
:101DA00008958F92AF92CF92EF920F931F93CF939C
:101DB000DF93EC0111E11F93FEE08F2EA6E0AA2E27
:101DC000BDE0CB2E00E1E02E0FE025E042E060E137
:101DD00002960E94D40BC755DF4FD093F801C093F1
:101DE000F701E1E8F0E080E180831092800021E0DB
:101DF0002093F40180EA9FE09093F6018093F5012F
:101E0000909387008093860010838BEA94E09093F0
:101E1000F3018093F20120936F000F90DF91CF9137
:101E20001F910F91EF90CF90AF908F900895BF9238
:101E3000CF92DF92EF92FF920F931F93CF93DF9396
:101E4000C62EB42EBB0CBB0CB20E8C010E5F1F4F06
:101E500040E06B2DC8010E94100383E0C89E700112
:101E60001124C70183579E4F7C01C0E0D0E0D12CE4
:101E7000F701EC0FFD1F6081C8010E9459042196F3
:101E8000C330D105A9F741E06B2DC8010E941003B2
:101E9000E601CC0FDD1FCC0DDD1DC459DE4FE12C5A
:101EA000F12CFE01EE0DFF1D6081C8010E94590456
:101EB0009FEFE91AF90A83E0E816F10491F7DF9140
:101EC000CF911F910F91FF90EF90DF90CF90BF9037
:101ED0000895BF92CF92DF92EF92FF920F931F93DC
:101EE000CF93DF9300D000D01F92CDB7DEB78C0127
:101EF000FB01B42EC22E6436710550F48AE3898347
:101F00006A30710548F48A83BE016D5F7F4F07C058
:101F1000BE016F5F7F4F03C0BE016E5F7F4F4AE01F
:101F200050E0CF010E941120CE0101967C01D12CFE
:101F3000F70161917F01662359F04D2D4B0D6053E0
:101F40002C2DC8010E94170FD394F4E0DF12F0CFBC
:101F50000E5F1F4F6B2D6D0D660F660F6C0D40E011
:101F6000C8010E9410036FEDC8010E9459040F9030
:101F70000F900F900F900F90DF91CF911F910F91C5
:101F8000FF90EF90DF90CF90BF900895FF920F9356
:101F90001F93CF93DF93EA018C010E5F1F4F462FF3
:101FA00062E0C8010E94100392E0F92E29968F2D5D
:101FB00090E0C817D90734F060E2C8010E945904C4
:101FC000F394F5CFDF91CF911F910F91FF9008957A
:101FD0009F92AF92BF92CF92DF92EF92FF920F93B8
:101FE0001F93CF93DF93CDB7DEB760970FB6F8940A
:101FF000DEBF0FBECDBF7C016B015A01922E40E0C7
:1020000050E0622F0E94C60FC114D104B9F0BF92F4
:10201000AF928CE391E09F938F931F928FE08F9309
:10202000CE0101969F938F930E94322068E0681B37
:102030000FB6F894DEBF0FBECDBF01C062E08701CE
:102040000E5F1F4F492DC8010E9410034AE050E067
:10205000B501C8010E94C61AF701EB56FF4F8081F7
:10206000918195FF03C0CA94CD2821F46FEDC8017A
:102070000E94590460960FB6F894DEBF0FBECDBF24
:10208000DF91CF911F910F91FF90EF90DF90CF9054
:10209000BF90AF909F9008958F929F92AF92BF9202
:1020A000DF92EF92FF920F931F93CF93DF938C01F8
:1020B0000E94111678012FE8E20EF11CF701208131
:1020C0003181E801CB56DF4FF801E756FF4F213051
:1020D0003105D9F02881398134FD17C02072317063
:1020E000232B99F480809180A280B3809B01AC0166
:1020F000281939094A095B0949015A0139EC831643
:102100009104A104B10408F490C1608371838283B7
:102110009383888199819C012470332780FF02C0BA
:1021200081FF67C0232B31F08B7F998388839924AB
:10213000939401C0912C8881998191FD02C09920CE
:1021400049F09D7F99838883C80102960E94090304
:102150009924939428813981F7018081918181307C
:10216000910519F448E050E002C040E150E04223FC
:102170005323452B21F4911002C0912C17C1F80173
:10218000009779F486A597A520FF09C0ED5AFF4F67
:102190006789708D680F791F7695679506C0BC01B9
:1021A00004C064A575A5019711F020E001C022E0EC
:1021B00040E0C8010E94690FF70180819181813060
:1021C000910519F428E030E002C020E130E02095CC
:1021D00030954881598124233523019719F480E4EF
:1021E00090E002C080E890E0809590958223932350
:1021F000DBC0232B31F08B7F9983888399249394C0
:1022000001C0912C8881998191FD02C0992049F0EB
:102210009D7F99838883C80102960E9409039924AF
:1022200093948881998195FF10C0992071F040E0C6
:102230006BE05801F2E0AF0EB11CC5010E94100323
:102240006CE770E0C5010E94F51988819981F7015A
:10225000608171816130710519F428E030E002C0BD
:1022600020E130E028233923232B11F4992049F170
:1022700095FF07C06115710559F4F80141A952A9EC
:102280000AC06115710521F4F80146A557A503C0E0
:10229000F80144A555A520E0C8010E94E80FF70108
:1022A00080819181019719F488E090E002C080E17B
:1022B00090E080959095288139818223932399839A
:1022C000888388819981F70160817181613071050E
:1022D00019F420E430E002C020E830E0282339235C
:1022E000232B11F4992049F1F801ED5AFF4F95FF86
:1022F00006C06115710549F4428D538D08C0611502
:10230000710519F44789508D02C04589568921E02D
:10231000C8010E94E80FF70180819181019719F4AB
:1023200080E490E002C080E890E08095909528815C
:10233000398182239323998388838881998194FDAD
:1023400003C0992009F419CFF801D3A44D2D60E002
:102350005801F2E0AF0EB11CC5010E94100360E20B
:10236000C5010E9459044D2D6AE0C5010E94100369
:1023700060E2C5010E945904882483948D24482D6D
:1023800060E0C5010E9410036BE5C5010E9459047D
:10239000482D6AE0C5010E9410036DE5C5010E9449
:1023A0005904888199819F7E998388838881998146
:1023B00093FD02C0992029F181FF05C0F7018081BA
:1023C0009181892BF1F47801F2E0EF0EF11CF80114
:1023D000E956FF4F6081645041E0C7010E9410033D
:1023E0008881998192FF03C067E770E002C062E7CD
:1023F00070E0C7010E94F51988819981977F9983C0
:1024000088838881998185FD02C0992019F08F7D8C
:10241000998388838881998180FF07C090FD02C0DD
:10242000992019F09E7F99838883DF91CF911F9126
:102430000F91FF90EF90DF90BF90AF909F908F90A3
:1024400008956F927F928F929F92AF92BF92CF9298
:10245000DF92EF92FF920F931F93CF93DF93EC01E4
:102460007C0126EAE20EF11CF70180818111A8C0EF
:102470000E941116FE01EF55FF4F0081118122814C
:102480003381601B710B820B930B61367A4E810591
:10249000910508F495C0772473940E9411164B019E
:1024A0005C01FE01E356FF4F80819181A281B381DF
:1024B000A5019401281B390B4A0B5B0BDA01C901FA
:1024C000AE01495E5F4F6A018E010B561F4F893C7A
:1024D0009105A105B10500F180829182A282B382AB
:1024E000B501A401C6010E94B306482F60E170E067
:1024F000CE010E94D10AF801808180FF0DC0B50194
:10250000A401CE018D5A9F4F0E94B306482F60E868
:1025100070E0CE010E94D10A6EA8B501A401C601E7
:102520000E947A05681631F0F801808191818062FD
:1025300091838083F801808180FF11C0CE018D5A84
:102540009F4FFC01D78CB501A4010E947A05D816D3
:1025500031F0F801808191819160918380837720AF
:10256000F1F08BAD882341F04CA55DA569E070E0EA
:10257000CE010E944F091BAE8E010D5A1F4FF8016C
:1025800084A1882349F0458956896CE070E0CE012A
:102590000E944F09F80114A281E0F7018083CE0167
:1025A000DF91CF911F910F91FF90EF90DF90CF902F
:1025B000BF90AF909F908F907F906F900C944C1035
:1025C000712C6BCF2F923F924F925F926F927F92BE
:1025D0008F929F92AF92BF92CF92DF92EF92FF9233
:1025E0000F931F93CF93DF93CDB7DEB72C970FB622
:1025F000F894DEBF0FBECDBF8C01EDB6FEB688E00D
:1026000092E00E940519882309F4BEC188E092E097
:102610000E946E17181619060CF0B6C118012AEFA1
:10262000220E311C88E092E00E946E1718161906DF
:102630000CF0AAC1F101C080D12C88E092E00E9488
:102640009B17C00ED11EF601E654FF4F8083F101A7
:102650002081C801820F911DFC01E654FF4F30819B
:102660003A3031F02F3321F02F5FF1012083DACFA0
:10267000FC01E654FF4F10822330B0F06AE370E0B3
:10268000C80186549F4F0E94FD1F6C01009761F0A6
:102690004C01FFEF8F1A9F0A6AE370E0C4010E94A9
:1026A000FD1F7C01009731F580E0F1011082882345
:1026B00019F06FE371E002C066E471E088E092E037
:1026C0002C960FB6F894DEBF0FBECDBFDF91CF9131
:1026D0001F910F91FF90EF90DF90CF90BF90AF9040
:1026E0009F908F907F906F905F904F903F902F9032
:1026F0000C941A1A2DB73EB73A8729878C199D0971
:102700005C0131E0A31AB108EDB7FEB7E81BF90B85
:102710000FB6F894FEBF0FBEEDBF2DB73EB72F5FCB
:102720003F4F6901A501B401C9010E94F41FF601E0
:10273000EA0DFB1D10826AE388E092E00E941C1AF9
:1027400066E671E0C6010E940820892B09F0AAC044
:102750002FEFE21AF20A6EE471E0C7010E9408202E
:10276000892B51F40E5F1F4F60E0C8010E940C0DD1
:10277000C8010E94B70B84C062E571E0C7010E94E6
:102780000820892B89F40E5F1F4F60E0C8010E946A
:102790000C0D60E070E0C8010E94F90C61E070E08F
:1027A000C8010E94F90C6CC067E571E0C7010E9486
:1027B0000820892B09F066C00E5F1F4F60E070E0B3
:1027C000C8010E94820B29833A834B835C836D830B
:1027D0007E838F83988789809A80AB80BC80CD80F0
:1027E000DE80EF80F8846FE670E088E092E00E947F
:1027F000F51929E030E0B501A40188E092E00E94DB
:10280000CD1B6DE670E088E092E00E94F51929E0AA
:1028100030E0B701A60188E092E00E94CD1B61E0A4
:1028200070E0C8010E94820B29833A834B835C834A
:102830006D837E838F83988789809A80AB80BC80EC
:10284000CD80DE80EF80F8846AE670E088E092E078
:102850000E94F51929E030E0B501A40188E092E07A
:102860000E94CD1B68E670E088E092E00E94F519B6
:1028700029E030E0B701A60188E092E00E94CD1B7C
:1028800081E017C06AE370E0C7010E94FD1F5C0190
:10289000009771F06CE270E00E94FD1F4C01009700
:1028A00081F406C06EE571E088E092E00E941A1A99
:1028B00080E0E985FA850FB6F894FEBF0FBEEDBF44
:1028C000F4CE2DB73EB73C872B873FEFA31AB30A50
:1028D000C5018E199F093C01E1E06E1A71082DB700
:1028E0003EB7281B390B0FB6F8943EBF0FBE2DBF65
:1028F0008DB79EB701966C01A301B7010E94F41F2A
:10290000F601E60DF71D1082F40111924F01C50189
:102910000E94E81F2B013C01C4010E94E81F4B01EB
:102920005C016AE671E0C6010E940820892B79F4F7
:10293000F801EC5BFF4F4082518262827382F801A2
:10294000E85BFF4F80829182A282B38212C06CE565
:1029500071E0C6010E940820892B69F4F801EB5A46
:10296000FF4F43A654A665A676A687A690AAA1AA5D
:10297000B2AA81E001C080E02B853C850FB6F894B7
:102980003EBF0FBE2DBF95CF0FB6F894FEBE0FBE53
:10299000EDBE2C960FB6F894DEBF0FBECDBFDF9113
:1029A000CF911F910F91FF90EF90DF90CF90BF904C
:1029B000AF909F908F907F906F905F904F903F90DF
:1029C0002F9008958C01EC012296CE010E94BC0A42
:1029D000780129EAE20EF11C580137E9A30EB11C77
:1029E00068014BEFC40ED11CC7010E94EF013C01EE
:1029F000CE010E94140B6114710439F0B301CE01B1
:102A00000E942C0DCE010E94BC0AC7010E94270221
:102A10000097E1F08530910549F08630910551F03D
:102A20000397A1F4CE010E94250E08C0CE010E949A
:102A3000FD0D0CC0CE010E94550B08C0CE010E94B6
:102A40002112C7010E9427020397C1F3CE010E9401
:102A50002112F5018081918195FFC6CF0E94111648
:102A6000F60140805180628073809B01AC01241983
:102A700035094609570929013A013DE2431631E07B
:102A800053066104710408F4AFCF608371838283BD
:102A90009383C8010E94E212A7CFCF93DF9340E057
:102AA00051EE60E070E088E092E00E9484188FEFC1
:102AB00090E00E94B319EC010E948C0ED093FA01B1
:102AC000C093F901CE01DF91CF910C94D10E80918A
:102AD000F9019091FA010C94E2141F920F920FB633
:102AE0000F9211242F933F934F935F936F937F9394
:102AF0008F939F93AF93BF93EF93FF938091FB01CD
:102B00009091FC01892B29F0E091FB01F091FC01EF
:102B10000995FF91EF91BF91AF919F918F917F9117
:102B20006F915F914F913F912F910F900FBE0F903A
:102B30001F9018951F920F920FB60F9211242F938A
:102B40003F934F935F936F937F938F939F93AF9335
:102B5000BF93EF93FF938091FD019091FE01892B2C
:102B600029F0E091FD01F091FE010995FF91EF91AF
:102B7000BF91AF919F918F917F916F915F914F9195
:102B80003F912F910F900FBE0F901F9018951F929D
:102B90000F920FB60F9211242F933F938F939F9311
:102BA000AF93BF938091000290910102A091020225
:102BB000B09103023091FF0123E0230F2D3720F461
:102BC0000196A11DB11D05C026E8230F0296A11D87
:102BD000B11D2093FF018093000290930102A09306
:102BE0000202B09303028091040290910502A09129
:102BF0000602B09107020196A11DB11D8093040247
:102C000090930502A0930602B0930702BF91AF9183
:102C10009F918F913F912F910F900FBE0F901F901A
:102C200018952FB7F894609100027091010280917D
:102C30000202909103022FBF08953FB7F89480914C
:102C4000040290910502A0910602B091070226B5F8
:102C5000A89B02C02F3F89F43FBF6627782F892F9A
:102C60009A2F620F711D811D911D42E0660F771F23
:102C7000881F991F4A95D1F708950196A11DB11D8E
:102C8000EBCFCF92DF92EF92FF92CF93DF936B0166
:102C90007C010E941D16EB01C114D104E104F10472
:102CA00079F00E941D166C1B7D0B683E7340A0F3EB
:102CB00081E0C81AD108E108F108C851DC4FECCF17
:102CC000DF91CF91FF90EF90DF90CF900895019723
:102CD000009739F0880F991F880F991F0297019765
:102CE000F1F70895789484B5826084BD84B58160DD
:102CF00084BD85B5826085BD85B5816085BDEEE604
:102D0000F0E0808181608083E1E8F0E010828081E2
:102D100082608083808181608083E0E8F0E0808150
:102D200081608083E1EBF0E0808184608083E0EB70
:102D3000F0E0808181608083EAE7F0E08081846058
:102D400080838081826080838081816080838081B4
:102D5000806880831092C1000895833081F028F448
:102D6000813099F08230A1F008958630A9F0873043
:102D7000B9F08430D1F4809180008F7D03C08091C0
:102D800080008F7780938000089584B58F7702C08C
:102D900084B58F7D84BD08958091B0008F7703C086
:102DA0008091B0008F7D8093B0000895CF93DF9322
:102DB00090E0FC01EC52FF4F2491FC01E851FF4FE1
:102DC0008491882349F190E0880F991FFC01E05F0E
:102DD000FE4FA591B4918A5F9E4FFC01C591D4919D
:102DE0009FB7611108C0F8948C91209582238C9331
:102DF000888182230AC0623051F4F8948C91322F7A
:102E0000309583238C938881822B888304C0F89427
:102E10008C91822B8C939FBFDF91CF9108950F935C
:102E20001F93CF93DF931F92CDB7DEB7282F30E0EB
:102E3000F901E054FF4F8491F901EC52FF4F1491D6
:102E4000F901E851FF4F04910023C9F0882321F0D4
:102E500069830E94AD166981E02FF0E0EE0FFF1F3D
:102E6000EA5FFE4FA591B4919FB7F8948C916111E0
:102E700003C01095812301C0812B8C939FBF0F90BD
:102E8000DF91CF911F910F910895CF93DF93282F5A
:102E900030E0F901E054FF4F8491F901EC52FF4F0B
:102EA000D491F901E851FF4FC491CC2391F08111E5
:102EB0000E94AD16EC2FF0E0EE0FFF1FE450FF4F25
:102EC000A591B4912C912D2381E090E021F480E034
:102ED00002C080E090E0DF91CF910895FC0124854D
:102EE0003585F901E05CFF4F80819181F901EE5B4E
:102EF000FF4F20813181821B930B8F739927089597
:102F0000FC0184859585FC01E05CFF4F4081518187
:102F1000FC01EE5BFF4F208131814217530741F0E6
:102F20000190F081E02DE80FF91F808190E0089575
:102F30008FEF9FEF0895FC0184859585FC01E05C8F
:102F4000FF4F40815181FC01EE5BFF4F20813181B9
:102F50004217530779F0A081B181A80FB91F8C9156
:102F6000208131812F5F3F4F2F733327318320839F
:102F700090E008958FEF9FEF0895FC0181A18823D1
:102F800029F0A489B5898C9186FFFBCF11A2089501
:102F9000CF93DF93FC0126853785D901A05CBF4F15
:102FA0008D919C91119701968F739927E901CE5BC2
:102FB000DF4F4881598184179507D9F30D90BC9153
:102FC000A02DA20FB31F6C93A685B785A05CBF4F41
:102FD00011969C938E93A689B7892C9181E090E0FD
:102FE000078C02C0880F991F0A94E2F7282B2C93B4
:102FF00081E081A30488F589E02D8081806480834D
:1030000081E090E0DF91CF91089508951F920F9293
:103010000FB60F9211242F933F934F938F939F934B
:10302000EF93FF938091C00082FD1CC04091C600C9
:103030008091AE029091AF0201968F7399272091F3
:10304000B0023091B1028217930771F0E091AE02A5
:10305000F091AF02E259FD4F40839093AF0280930D
:10306000AE0202C08091C600FF91EF919F918F91B7
:103070004F913F912F910F900FBE0F901F90189579
:1030800088E092E00E946E17892B11F00C940518CD
:1030900008951F920F920FB60F9211242F933F9312
:1030A0008F939F93EF93FF9320916A0230916B026D
:1030B00080916C0290916D022817390731F480914C
:1030C000C1008F7D8093C10014C0E0916C02F0912B
:1030D0006D02E65DFD4F208180916C0290916D0242
:1030E00001968F73992790936D0280936C022093C1
:1030F000C600FF91EF919F918F913F912F910F907B
:103100000FBE0F901F901895CF92DF92EF92FF9213
:10311000CF93DF93EC016A017B01411581EE5807E3
:1031200061057105F9F0EC89FD8981E090E008A066
:1031300002C0880F991F0A94E2F7808360E079E06B
:103140008DE390E0A70196010E946B1C215031098C
:10315000410951095695479537952795211580E1E5
:10316000380798F0EC89FD89108260E874E88EE1F8
:1031700090E0A70196010E946B1C21503109410982
:1031800051095695479537952795E889F9893083F0
:10319000EA89FB89208319A2EE89FF89408181E0B9
:1031A00090E09C010C8C02C0220F331F0A94E2F7BE
:1031B000422B4083EE89FF8940819C010D8C02C027
:1031C000220F331F0A94E2F7422B4083EE89FF89D6
:1031D00040819C010E8C02C0220F331F0A94E2F73B
:1031E000422B4083EE89FF8920810F8C02C0880F1B
:1031F000991F0A94E2F7809582238083DF91CF9113
:10320000FF90EF90DF90CF90089581E008951092A5
:103210000B0210920A0288EE93E0A0E0B0E08093E7
:103220000C0290930D02A0930E02B0930F028AEC51
:1032300091E090930902809308028EE692E09093C9
:103240001502809314028AE292E090931702809311
:10325000160285EC90E0909319028093180284EC9A
:1032600090E090931B0280931A0280EC90E0909380
:103270001D0280931C0281EC90E090931F028093CA
:103280001E0282EC90E0909321028093200286EC53
:1032900090E0909323028093220284E080932402A2
:1032A00083E08093250287E08093260285E0809367
:1032B000270281E0809328020895AF92BF92CF92B7
:1032C000DF92EF92FF920F931F93CF93DF936C01E6
:1032D0007B01C0E0D0E000E010E0F601EC0FFD1F44
:1032E0004AE050E06281C7010E94DB1A5C016EE295
:1032F000C7010E941C1A8A0D9B1D080F191F2196D9
:10330000C330D10551F74AE050E0F6016581C701AD
:103310000E94DB1A800F911FDF91CF911F910F91B7
:10332000FF90EF90DF90CF90BF90AF9008958AED1F
:1033300091E09093B3028093B2021092B402109283
:10334000B5021092B6021092B70208950E9472164A
:103350000E944D15C0E4D8E10E9467152097E1F363
:103360000E944018F9CF0C94C11E0C94591FCF92A3
:10337000DF92EF92FF920F931F93CF93DF936C0135
:103380007A01EB01E60EF71E00E010E0CE15DF0536
:1033900061F06991D601ED91FC910190F081E02DF1
:1033A000C6010995080F191FF1CFC801DF91CF9110
:1033B0001F910F91FF90EF90DF90CF9008956115CE
:1033C000710581F0DB010D900020E9F7AD0141505E
:1033D0005109461B570BDC01ED91FC910280F381F2
:1033E000E02D099480E090E00895EF92FF920F9312
:1033F0001F93CF93DF938C01FB01C0E0D0E0649179
:103400007F018FEFE81AF80A662361F0D801ED9189
:10341000FC910190F081E02DC8010995C80FD91FDA
:10342000F701EDCFCE01DF91CF911F910F91FF906A
:10343000EF9008950C94DF19DC01ED91FC9101905F
:10344000F081E02D09948F929F92AF92BF92CF921C
:10345000DF92EF92FF920F931F93CF93DF93CDB73D
:10346000DEB7A1970FB6F894DEBF0FBECDBF7C01CB
:10347000C42EE52FCB01D22E19A221E02D1510F07C
:103480002AE0D22E8E010F5D1F4F8D2C912CA12C86
:10349000B12C6C2D7E2FA50194010E946B1C8C2DEC
:1034A000D29E80191124015011098A3014F4805DD4
:1034B00001C0895CF8018083211531054105510562
:1034C00021F0C22EE32FCA01E4CFB801C7010E9448
:1034D000DF19A1960FB6F894DEBF0FBECDBFDF9106
:1034E000CF911F910F91FF90EF90DF90CF90BF9001
:1034F000AF909F908F900895CF92DF92EF92FF92BE
:103500000F931F93CF93DF93EC016A017B01211589
:10351000310579F4E881F9810190F081E02D642F83
:10352000DF91CF911F910F91FF90EF90DF90CF909F
:1035300009942A303105E9F477FF1AC06DE20E9440
:103540001C1A8C0144275527BA014C195D096E09D4
:103550007F092AE0CE010E94231A800F911FDF917C
:10356000CF911F910F91FF90EF90DF90CF90089532
:103570002AE0B701A601CE01DF91CF911F910F91F3
:10358000FF90EF90DF90CF900C94231A9A01AB013B
:10359000662757FD6095762F0C947C1A211531050E
:1035A00041F4DC01ED91FC910190F081E02D642F5C
:1035B00009940C94231A9A01462F50E060E070E0C1
:1035C0000C94CE1A4F925F926F927F928F929F923D
:1035D000AF92BF92CF92DF92EF92FF920F931F9321
:1035E000CF93DF93EC016A017B01B22E9A01AB010C
:1035F000C701B6010E94BD1E882319F06CED71E071
:1036000027C026013701E89477F82FEF3FEF4FE707
:103610005FE7C301B2010E94BD1E81110DC02FEFF3
:103620003FEF4FE75FE7C301B2010E94071D181685
:103630001CF460EE71E00CC02FEF3FEF4FE75FE44A
:10364000C701B6010E94561E1816ACF464EE71E074
:10365000CE01DF91CF911F910F91FF90EF90DF90FE
:10366000CF90BF90AF909F908F907F906F905F9022
:103670004F900C94DF192FEF3FEF4FE75FECC7013E
:10368000B6010E94071D87FDE1CF20E030E0A901CF
:10369000C701B6010E94071D87FF0AC06DE2CE0177
:1036A0000E941C1A8C01F7FAF094F7F8F09402C00B
:1036B00000E010E0A12C60E070E080E09FE3AB143C
:1036C00041F020E030E040E251E40E940B1DA39461
:1036D000F6CF9B01AC01C701B6010E94A31C6B0190
:1036E0007C010E94781D2B013C010E94A41D9B01BE
:1036F000AC01C701B6010E94A21C6B017C012AE04B
:10370000B301A201CE010E94231A080F191FBB208A
:1037100039F068EE71E0CE010E94DF19080F191F21
:103720007B2C772041F120E030E040E251E4C701FA
:10373000B6010E945A1E6B017C010E94731D4B0151
:10374000AA2497FCA094BA2C2AE030E0B501A40189
:10375000CE010E947C1A080F191FC501B4010E94F6
:10376000A61D9B01AC01C701B6010E94A21C6B0102
:103770007C017A94D6CFC801DF91CF911F910F9130
:10378000FF90EF90DF90CF90BF90AF909F908F9081
:103790007F906F905F904F9008950C94E21A813063
:1037A00039F018F0823051F0089510926E000895AB
:1037B00080916F008D7F80936F00089580917000DD
:1037C0008D7F8093700081E08093B0008091B10084
:1037D000887F84608093B1001092B3000895CF93E6
:1037E000C82F80910A018C1307C0EAE1F1E08491AF
:1037F0009FEF90930A0101C08FEF0E94CF1B60E002
:103800008C2FCF910C940F171F920F920FB60F921F
:1038100011242F933F934F935F936F937F938F93D5
:103820009F93AF93BF93EF93FF938091BB029091CF
:10383000BC02A091BD02B091BE02892B8A2B8B2BBA
:1038400051F19091B802E091B902F091BA028081F1
:10385000892780838091BB029091BC02A091BD0218
:10386000B091BE02181619061A061B06C4F4809100
:10387000BB029091BC02A091BD02B091BE02019723
:10388000A109B1098093BB029093BC02A093BD0231
:10389000B093BE0204C080910A010E94EF1BFF9109
:1038A000EF91BF91AF919F918F917F916F915F91B8
:1038B0004F913F912F910F900FBE0F901F90189531
:1038C0000E948D1CA59F900DB49F900DA49F800D0C
:1038D000911D11240895A1E21A2EAA1BBB1BFD0104
:1038E0000DC0AA1FBB1FEE1FFF1FA217B307E407DF
:1038F000F50720F0A21BB30BE40BF50B661F771F37
:10390000881F991F1A9469F7609570958095909516
:103910009B01AC01BD01CF010895A29FB001B39FEF
:10392000C001A39F700D811D1124911DB29F700DC8
:10393000811D1124911D0895EE0FFF1F0590F49134
:10394000E02D09945058BB27AA270ED075C166D127
:1039500030F06BD120F031F49F3F11F41EF45BC1C5
:103960000EF4E095E7FB51C1E92F77D180F3BA1748
:10397000620773078407950718F071F49EF58FC1ED
:103980000EF4E0950B2EBA2FA02D0B01B90190017A
:103990000C01CA01A0011124FF27591B99F0593FBE
:1039A00050F4503E68F11A16F040A22F232F342F06
:1039B0004427585FF3CF469537952795A795F04054
:1039C0005395C9F77EF41F16BA0B620B730B840B69
:1039D000BAF09150A1F0FF0FBB1F661F771F881F21
:1039E000C2F70EC0BA0F621F731F841F48F4879579
:1039F00077956795B795F7959E3F08F0B3CF939568
:103A0000880F08F09927EE0F979587950895D9D0DC
:103A100008F481E008950CD00FC107D140F0FED02A
:103A200030F021F45F3F19F0F0C0511139C1F3C0FB
:103A300014D198F39923C9F35523B1F3951B550B72
:103A4000BB27AA2762177307840738F09F5F5F4F71
:103A5000220F331F441FAA1FA9F333D00E2E3AF0B2
:103A6000E0E830D091505040E695001CCAF729D0CC
:103A7000FE2F27D0660F771F881FBB1F261737071B
:103A80004807AB07B0E809F0BB0B802DBF01FF274B
:103A900093585F4F2AF09E3F510568F0B6C000C1B1
:103AA0005F3FECF3983EDCF3869577956795B79585
:103AB000F7959F5FC9F7880F911D9695879597F9A0
:103AC0000895E1E0660F771F881FBB1F6217730719
:103AD0008407BA0720F0621B730B840BBA0BEE1F2E
:103AE00088F7E095089504D06894B111D9C008957D
:103AF000BCD088F09F5790F0B92F9927B751A0F00C
:103B0000D1F0660F771F881F991F1AF0BA95C9F771
:103B100012C0B13081F0C3D0B1E00895C0C0672FAA
:103B2000782F8827B85F39F0B93FCCF38695779521
:103B30006795B395D9F73EF490958095709561950A
:103B40007F4F8F4F9F4F0895E89409C097FB3EF435
:103B500090958095709561957F4F8F4F9F4F9923DA
:103B6000A9F0F92F96E9BB279395F6958795779558
:103B70006795B795F111F8CFFAF4BB0F11F460FF18
:103B80001BC06F5F7F4F8F4F9F4F16C0882311F070
:103B900096E911C0772321F09EE8872F762F05C084
:103BA000662371F096E8862F70E060E02AF09A951F
:103BB000660F771F881FDAF7880F9695879597F914
:103BC0000895990F0008550FAA0BE0E8FEEF1616AE
:103BD0001706E807F907C0F012161306E407F50701
:103BE00098F0621B730B840B950B39F40A2661F075
:103BF000232B242B252B21F408950A2609F4A14018
:103C0000A6958FEF811D811D089597F99F6780E824
:103C100070E060E008959FEF80EC089500240A941E
:103C20001616170618060906089500240A94121697
:103C30001306140605060895092E0394000C11F4CA
:103C4000882352F0BB0F40F4BF2B11F460FF04C077
:103C50006F5F7F4F8F4F9F4F089557FD9058440FD0
:103C6000551F59F05F3F71F04795880F97FB991FDB
:103C700061F09F3F79F08795089512161306140698
:103C8000551FF2CF4695F1DF08C016161706180625
:103C9000991FF1CF86957105610508940895E89400
:103CA000BB2766277727CB0197F908958ADF08F4A9
:103CB0008FEF08950BD0C0CFB1DF28F0B6DF18F03A
:103CC000952309F0A2CFA7CF1124EACFC6DFA0F336
:103CD000959FD1F3950F50E0551F629FF001729FA1
:103CE000BB27F00DB11D639FAA27F00DB11DAA1FC0
:103CF000649F6627B00DA11D661F829F2227B00D0D
:103D0000A11D621F739FB00DA11D621F839FA00D97
:103D1000611D221F749F3327A00D611D231F849FE7
:103D2000600D211D822F762F6A2F11249F5750403E
:103D30008AF0E1F088234AF0EE0FFF1FBB1F661FD9
:103D4000771F881F91505040A9F79E3F510570F092
:103D50005CCFA6CF5F3FECF3983EDCF3869577957A
:103D60006795B795F795E7959F5FC1F7FE2B880F8D
:103D7000911D9695879597F9089523DF880B990BE8
:103D80000895CF93DF938230910510F482E090E0A4
:103D9000E091C102F091C20220E030E0A0E0B0E08A
:103DA000309739F14081518148175907B8F04817C9
:103DB000590771F482819381109729F013969C938F
:103DC0008E9312972CC09093C2028093C10227C099
:103DD0002115310531F04217530718F0A901DB0115
:103DE00001C0EF019A01BD01DF010280F381E02DE6
:103DF000D7CF21153105F9F0281B390B24303105B7
:103E000080F48A819B816115710521F0FB01938308
:103E1000828304C09093C2028093C102FE01329655
:103E200044C0FE01E20FF31F8193919322503109A8
:103E3000398328833AC02091BF023091C002232BDE
:103E400041F420910201309103013093C00220938C
:103E5000BF0220910001309101012115310541F48B
:103E60002DB73EB74091040150910501241B350B3D
:103E7000E091BF02F091C002E217F307A0F42E1BFD
:103E80003F0B2817390778F0AC014E5F5F4F2417BE
:103E9000350748F04E0F5F1F5093C0024093BF029A
:103EA0008193919302C0E0E0F0E0CF01DF91CF91E8
:103EB0000895CF93DF93009709F487C0FC013297F0
:103EC00013821282C091C102D091C202209781F464
:103ED00020813181280F391F8091BF029091C0024B
:103EE0008217930779F5F093C002E093BF026DC08B
:103EF000DE0120E030E0AE17BF0750F412964D917E
:103F00005C9113979D014115510509F1DA01F3CF39
:103F1000B383A28340815181840F951F8A179B0729
:103F200071F48D919C911197840F951F0296918346
:103F3000808312968D919C91139793838283211590
:103F4000310529F4F093C202E093C1023EC0D901C9
:103F50001396FC93EE9312974D915D91A40FB51FAC
:103F6000EA17FB0779F480819181840F951F0296EF
:103F7000D90111969C938E938281938113969C9381
:103F80008E931297E0E0F0E08A819B81009719F010
:103F9000FE01EC01F9CFCE01029628813981820F12
:103FA000931F2091BF023091C0022817390769F48E
:103FB000309729F41092C2021092C10202C01382FB
:103FC0001282D093C002C093BF02DF91CF910895B7
:103FD000662777270C944A229111C3C3803219F0C7
:103FE00089508550D0F70895FB01DC0102C0019093
:103FF0000D9241505040D8F70895FC0181918617E9
:1040000021F08823D9F7992708953197CF01089592
:10401000FB01DC018D91019080190110D9F3990BFE
:104020000895FB019F01E8944230C4F04532B4F496
:104030004A3029F497FB1EF4909581959F4F642F89
:1040400077270E948224805D8A330CF0895D8193FA
:10405000CB010097A1F716F45DE251931082C901DC
:104060000C94E223AEE0B0E0E8E3F0E20C94A42488
:104070000D891E898F89988D26E02C831A830983E8
:1040800097FF02C080E090E801979E838D83AE0188
:10409000455E5F4F698D7A8DCE0101960E94622048
:1040A0004D815E8157FD0AC02F8138854217530725
:1040B0000CF49A01F801E20FF31F10822E96E4E04F
:1040C0000C94C024ACE0B0E0E8E6F0E20C94962456
:1040D0007C016B018A01FC0117821682838181FFBA
:1040E000BDC1CE0101964C01F7019381F60193FD0C
:1040F000859193FF81916F01882309F4ABC18532CB
:1041000039F493FD859193FF81916F01853229F4F4
:10411000B70190E00E94F223E7CF512C312C20E030
:104120002032A0F48B3269F030F4803259F08332BF
:1041300069F420612CC08D3239F0803339F421606C
:1041400026C02260246023C0286021C027FD27C02C
:1041500030ED380F3A3078F426FF06C0FAE05F9E63
:10416000300D1124532E13C08AE0389E300D1124D7
:10417000332E20620CC08E3221F426FD6BC12064E8
:1041800006C08C3611F4206802C0883641F4F6016E
:1041900093FD859193FF81916F018111C1CF982F7C
:1041A0009F7D9554933028F40C5F1F4FFFE3F983F4
:1041B0000DC0833631F0833771F0833509F05BC071
:1041C00022C0F801808189830E5F1F4F44244394ED
:1041D000512C540115C03801F2E06F0E711CF8012A
:1041E000A080B18026FF03C0652D70E002C06FEF94
:1041F0007FEFC5012C870E94D7232C0183012C85DA
:104200002F77222E17C03801F2E06F0E711CF801D3
:10421000A080B18026FF03C0652D70E002C06FEF63
:104220007FEFC5012C870E94CC232C012C852068B0
:10423000222E830123FC1BC0832D90E048165906D3
:10424000B0F4B70180E290E00E94F2233A94F4CFF8
:10425000F50127FC859127FE81915F01B70190E070
:104260000E94F22331103A94F1E04F1A51084114A0
:10427000510471F7E5C0843611F0893639F5F8013B
:1042800027FF07C060817181828193810C5F1F4F7E
:1042900008C060817181882777FD8095982F0E5F17
:1042A0001F4F2F76B22E97FF09C09095809570957D
:1042B00061957F4F8F4F9F4F2068B22E2AE030E0EC
:1042C000A4010E942424A82EA81844C0853729F4EC
:1042D0002F7EB22E2AE030E025C0F22FF97FBF2ECC
:1042E0008F36C1F018F4883579F0B4C0803719F0F2
:1042F000883721F0AFC02F2F2061B22EB4FE0DC041
:104300008B2D8460B82E09C024FF0AC09F2F9660B1
:10431000B92E06C028E030E005C020E130E002C040
:1043200020E132E0F801B7FE07C06081718182812F
:1043300093810C5F1F4F06C06081718180E090E027
:104340000E5F1F4FA4010E942424A82EA818FB2D45
:10435000FF77BF2EB6FE0BC02B2D2E7FA51450F479
:10436000B4FE0AC0B2FC08C02B2D2E7E05C07A2CEC
:104370002B2D03C07A2C01C0752C24FF0DC0FE012B
:10438000EA0DF11D8081803311F4297E09C022FFDE
:1043900006C07394739404C0822F867809F07394D6
:1043A00023FD13C020FF06C05A2C731418F4530CBD
:1043B0005718732C731468F4B70180E290E02C87CF
:1043C0000E94F22373942C85F5CF731410F43718E0
:1043D00001C0312C24FF12C0B70180E390E02C878C
:1043E0000E94F2232C8522FF17C021FF03C088E51D
:1043F00090E002C088E790E0B7010CC0822F867879
:1044000059F021FD02C080E201C08BE227FD8DE260
:10441000B70190E00E94F223A51438F4B70180E3BD
:1044200090E00E94F2235A94F7CFAA94F401EA0D87
:10443000F11D8081B70190E00E94F223A110F5CF19
:10444000332009F451CEB70180E290E00E94F223BC
:104450003A94F6CFF7018681978102C08FEF9FEFE4
:104460002C96E2E10C94B224F999FECF92BD81BD65
:10447000F89A992780B50895262FF999FECF1FBA8B
:1044800092BD81BD20BD0FB6F894FA9AF99A0FBE7D
:1044900001960895A0E0B0E0E0E5F2E20C949824E3
:1044A0008B016115710521F0DB018C9311969C93B2
:1044B000EC015E01BFEFAB1ABB0A7501C8808C2D01
:1044C00090E00E94EC1F892B11F0E501F2CFEDE2A4
:1044D000CE1208C07E01F2E0EF0EF11CC980DD248F
:1044E000D39409C02BE2C21205C07E0142E0E40E63
:1044F000F11CC980D12CE701219743E050E063E231
:1045000071E0CE010E94B423892BD1F4E7012296F9
:1045100045E050E06EE171E0CE010E94B423892BAA
:1045200011F4E70127960115110519F0D801CD9373
:10453000DC93D11008C160E070E080E89FE70CC117
:1045400043E050E06BE171E0CE010E94B423892B7F
:1045500059F40115110509F4FBC0B2E0EB0EF11C92
:10456000F801F182E082F4C0F70160E070E0CB0175
:10457000C0E0D0E07F01A0EDAA2EAC0C29E02A1506
:1045800030F14D2D4260B42E2D2D2870D2FE04C086
:10459000211125C0219623C021112197A5E0B0E06B
:1045A0009B01AC010E94601C660F771F881F991F3A
:1045B0006A0D711D811D911D6839A9E97A078A0765
:1045C000A9E19A0760F0BD2DB660BB2E08C02EEFA2
:1045D000A2120AC0D3FC50C04D2D4860B42E3196B3
:1045E000D701CC90DB2CC6CF2C2D2F7D253409F0A4
:1045F00043C0A081AD3241F4BD2DB061DB2E7F01FF
:1046000022E0E20EF11C0CC07F01AB3231F04FEF23
:10461000E41AF40A21E030E006C0A2E0EA0EF11C40
:10462000A18122E030E0A053AA3018F0E21AF30A88
:1046300023C0F70120E030E02038BCE03B075CF409
:10464000A901440F551F440F551F240F351F220F7A
:10465000331F2A0F311DAF014F5F5F4F7A01A081D9
:10466000A053AA3010F4FA01E7CFD4FE03C031956D
:1046700021953109C20FD31FD1FE09C001151105C3
:1046800031F0E1E0EE1AF108D801ED92FC920E94BF
:10469000A41D2D2D2370233019F06B017C0106C061
:1046A0006B017C01F7FAF094F7F8F09420E030E029
:1046B000A901C701B6010E94071D882309F440C063
:1046C000D7FF06C0D195C195D1090AE311E002C018
:1046D00002E511E04801B8E18B1A910890E2A92E99
:1046E000B12CF8014590559065907490CA15DB0582
:1046F0005CF0A3019201C701B6010E945A1E6B0132
:104700007C01CA19DB09F2CF04501109B594A794B2
:104710000815190531F78E2D880F8F2D881F8F3FB3
:1047200049F020E030E0A901C701B6010E94071D51
:10473000811106C082E290E09093C4028093C3028C
:10474000C701B60109C060E070E080E89FEF04C0D7
:1047500060E070E080EC9FE7CDB7DEB7E0E10C945D
:10476000B424992788270895FB01DC01415050406B
:1047700088F08D9181341CF08B350CF4805E65914E
:1047800061341CF06B350CF4605E861B611171F3B3
:10479000990B0895881BFCCFFC0105906150704077
:1047A0000110D8F7809590958E0F9F1F0895FC01FA
:1047B0006150704001900110D8F7809590958E0F50
:1047C0009F1F0895DC01FC01672F71917723E1F7AA
:1047D000329704C07C916D9370836291AE17BF07CE
:1047E000C8F308950F931F93CF93DF93182F092FCA
:1047F000EB018B8181FD03C08FEF9FEF20C082FF13
:1048000010C04E815F812C813D81421753077CF49B
:10481000E881F9819F012F5F3F4F398328831083FF
:1048200006C0E885F985812F0995892B29F72E8106
:104830003F812F5F3F4F3F832E83812F902FDF914A
:10484000CF911F910F910895FA01AA27283051F1B5
:10485000203181F1E8946F936E7F6E5F7F4F8F4FB1
:104860009F4FAF4FB1E03ED0B4E03CD0670F781F10
:10487000891F9A1FA11D680F791F8A1F911DA11DF5
:104880006A0F711D811D911DA11D20D009F468942E
:104890003F912AE0269F11243019305D3193DEF6D6
:1048A000CF010895462F4770405D4193B3E00FD08C
:1048B000C9F7F6CF462F4F70405D4A3318F0495D77
:1048C00031FD4052419302D0A9F7EACFB4E0A6955A
:1048D0009795879577956795BA95C9F7009761057C
:1048E000710508959B01AC010A2E069457954795D2
:1048F00037952795BA95C9F7620F731F841F951FC7
:10490000A01D0895AA1BBB1B51E107C0AA1FBB1F16
:10491000A617B70710F0A61BB70B881F991F5A954B
:10492000A9F780959095BC01CD0108952F923F92F3
:104930004F925F926F927F928F929F92AF92BF92AF
:10494000CF92DF92EF92FF920F931F93CF93DF935B
:10495000CDB7DEB7CA1BDB0B0FB6F894DEBF0FBEB8
:10496000CDBF09942A88398848885F846E847D8405
:104970008C849B84AA84B984C884DF80EE80FD8007
:104980000C811B81AA81B981CE0FD11D0FB6F8947D
:0E499000DEBF0FBECDBFED010895F894FFCF3E
:10499E000000C502200001000000FF0000400014CE
:1049AE00005400000000005904B7194475616C00F2
:1049BE0053696E676C650061575849726F6E73006C
:1049CE0025732025730025632025642E2564003A67
:1049DE004F4B3A0D0A003A4552523A0D0A004F46D5
:1049EE004600534156450044554D50003200494E45
:1049FE0056414C49440043414C0031000301030130
:104A0E00030103010101010320200301010303013E
:104A1E0003202003030103010103202020030003D0
:104A2E000003200202030002030301030302020338
:104A3E0002020000030302030302032020200000F1
:104A4E0000005F049004000000006504970400005D
:104A5E0000008804A10400000000C817B7196E17E3
:104A6E009B178017BD17000000005D196E616E0068
:0A4A7E00696E66006F7666002E0078
:00000001FF
