:100000000C94BE000C94D9190C94061A0C94E600BA
:100010000C94E6000C94E6000C94E6000C94781B1B
:100020000C94E6000C94E6000C94E6000C94E600B8
:100030000C94E6000C9441020C94E6000C94E6004B
:100040000C94F2180C94E6000C94861E0C94C91EB5
:100050000C94E6000C94E6000C94E6000C94E60088
:100060000C94E6000C94E6002C003B323D002C0082
:10007000313D003A43555252454E543A002C00311E
:100080003D002C00313D0053544F5245443A00206E
:1000900020202000537462790043414C002D2D2D07
:1000A000001F1F0000000000000000000000001FF3
:1000B0001F1F1F000000001F1F1F1F1F1F1F1F1FCC
:1000C0001F00000000000E0E0E00000303030300DB
:1000D000000000181818180000000E1317171F0E44
:1000E00000000000070002010000030406000000F9
:1000F00000000000000102040810204080010204FA
:10010000081020010204081020040404040404045C
:1001100004020202020202030303030303000000BD
:100120000023002600290000000000250028002BE5
:100130000000000000240027002A00024E414E4922
:100140004E495459494E46CDCCCC3D0AD7233C1795
:10015000B7D13877CC2B329595E6241FB14F0A00E2
:100160000020410000C84200401C4620BCBE4CCAD2
:100170001B0E5AAEC59D7400331B8E1F11241FBE6B
:10018000CFEFD8E0DEBFCDBF12E0A0E0B1E0E4EDFC
:10019000F0E502C005900D92A830B107D9F722E032
:1001A000A8E0B2E001C01D92A43EB207E1F710E062
:1001B000CEEBD0E004C02197FE010E940A20CC3B88
:1001C000D107C9F70E94DF1D0C9468280C94000029
:1001D000EF920F931F93CF93DF93EC01862F6883E9
:1001E00049832A83EB821D821C821F821E8208871C
:1001F0001A8619861C861B8691E09D879E87EE20B5
:1002000011F010E001C012E0612F0E945C1A612F12
:1002100089810E945C1A612F8A810E945C1A888100
:100220000E94C81A2B8130E08217930721F483E0E3
:1002300090E09F838E8389810E94C81A2B8130E0D1
:100240008217930731F48E819F8121E082279F835B
:100250008E83DF91CF911F910F91EF900895CF92F0
:10026000DF92EF92FF921F93CF93DF93EC010E94F6
:100270003C196B017C018E85882359F089859A850C
:1002800002979A87898789859A8597FF02C01A867F
:10029000198688810E94C81A2B8130E08217930743
:1002A00011F413E001C010E089810E94C81A2B816B
:1002B00030E08217930711F481E018278E819F8127
:1002C000811B80FF12C0212F110F330B3F832E8320
:1002D0002C813D818270082E000C990B0197820FB2
:1002E000931F9D838C8381E001C080E09E859923CC
:1002F00061F0882351F089859A85883E9B4028F4D7
:1003000089859A8549969A87898780910B02909171
:100310000C02A0910D02B0910E02A7019601281BBC
:10032000390B4A0B5B0B2A3031054105510508F4A6
:100330005DC0C0920B02D0920C02E0920D02F092CE
:100340000E028A810E94C81A2B8130E0821793071F
:1003500081F48091090290910A02019690930A0219
:10036000809309028937910520F083E090E09C8713
:100370008B878A810E94C81A3B8121E0232730E0C5
:100380008217930731F58091090290910A02892B17
:10039000E1F08B859C85039719F484E090E008C018
:1003A00080910802823048F08C3378F486E090E047
:1003B0009C878B871092080208C08D85811102C02E
:1003C00081E001C08CE38093080210920A0210922F
:1003D000090280910802882349F082508093080224
:1003E000811104C085E090E09C878B87DF91CF91DD
:1003F0001F91FF90EF90DF90CF900895FC01F8944B
:10040000248135818085823021F4C901817099274A
:1004100005C0843031F4C9018370992795838483A2
:1004200002C01582148278948085843029F4359531
:1004300027953595279504C0823011F43595279579
:100440008685882329F081859285892F992702C086
:1004500080E090E037FF03C0809590950895232BAE
:1004600011F00196089580E090E00895FC018385E5
:100470009485238534852330310511F01486138645
:1004800008951F920F920FB60F9211242F933F934E
:100490004F935F936F937F938F939F93AF93BF938C
:1004A000EF93FF93E0911002F09111020995FF91F3
:1004B000EF91BF91AF919F918F917F916F915F91DC
:1004C0004F913F912F910F900FBE0F901F90189555
:1004D000CB010C941B28CB01642F0C942328CF93C1
:1004E000DF93EC0160E08E810E94981A81E090E039
:1004F0000E94941961E08E810E94981A81E090E038
:100500000E94941960E08E810E94981A84E690E01F
:10051000DF91CF910C949419AF92BF92CF92DF925A
:10052000EF92FF920F931F93CF93DF935C017C01B7
:1005300087E0E80EF11CC0E0D0E0062F10E0670174
:1005400061E0F70181917F010E945C1AB8010C2ED5
:1005500002C0759567950A94E2F76170F601808193
:100560000E94981A2196C430D10549F7C501DF9140
:10057000CF911F910F91FF90EF90DF90CF90BF90A0
:10058000AF900C946F02AF92BF92CF92DF92EF9236
:10059000FF920F931F93CF93DF935C017C0187E061
:1005A000E80EF11CC0E0D0E0062F10E0670161E02A
:1005B000F70181917F010E945C1AB8010C2E02C0E4
:1005C000759567950A94E2F76170F60180810E9443
:1005D000981A2196C830D10549F7C501DF91CF910E
:1005E0001F910F91FF90EF90DF90CF90BF90AF9051
:1005F0000C946F021F93CF93DF93EC01162F642F9F
:100600008C810E94981A8D818F3F19F060E00E94C2
:10061000981A8F85612F84FF06C0CE01DF91CF919C
:100620001F910C94C30270E084E0759567958A95DC
:10063000E1F7CE010E948C02612FCE01DF91CF91B4
:100640001F910C948C0240E00C94FA0261E00E942D
:10065000230380ED97E00C949419CF93DF93CDB7EB
:10066000DEB728970FB6F894DEBF0FBECDBF9C0152
:1006700088E0E7E0F1E0DE01119601900D928A95A5
:10068000E1F7F9018389481710F04FEF480FFE0199
:100690003196E40FF11DE40FF11D9081690F606840
:1006A000C90128960FB6F894DEBF0FBECDBFDF910B
:1006B000CF910C942303FC016089262F2460208BAA
:1006C0006C600C942303CF93DF93EC01423018F05D
:1006D0008F8588608F874B8B1C8A222329F04130BD
:1006E00019F48F8584608F8780E593EC0E949419BC
:1006F00060E08C810E94981A60E08E810E94981AB6
:100700008D818F3F19F060E00E94981A6F8564FD1B
:100710001DC063E0CE010E948C0284E991E10E9439
:10072000941963E0CE010E948C0284E991E10E9459
:10073000941963E0CE010E948C0286E990E00E9449
:10074000941962E0CE010E948C0216C06062CE0154
:100750000E94230384E991E10E9494196F856062ED
:10076000CE010E94230386E990E00E9494196F85D0
:100770006062CE010E9423036F856062CE010E94F9
:10078000230384E0888BCE010E945B03CE010E948C
:10079000260382E0898B66E0CE01DF91CF910C9435
:1007A00023036F927F928F92AF92CF92EF920F932B
:1007B0001F93CF93DF93CDB7DEB73C01162F842F65
:1007C0005D854E853F859889F30184832583068363
:1007D000E782C086A18682865387448735879687BD
:1007E00061E00E945C1AF30185818F3F19F061E09E
:1007F0000E945C1A61E0F30186810E945C1A112359
:1008000019F0F301178603C080E1F301878720E028
:1008100041E060E1C301DF91CF911F910F91EF9013
:10082000CF90AF908F907F906F900C9463038F92D6
:10083000AF92CF92EF920F93DC0113961C921E920F
:100840001297E3E1F1E0ED93FC931F921F921F9248
:100850001F928C2CAE2CC02EE22E042F2FEF462F91
:1008600061E00E94D1030F900F900F900F900F91B5
:10087000EF90CF90AF908F900895CF92DF92EF924C
:10088000FF920F931F93CF93DF9300D0CDB7DEB7C6
:100890008C01677088E0689FB00111246064C80112
:1008A00049835A830E9423034981C42E5A81D52E3D
:1008B0007601A8E0EA0EF11CF60161916F01D80102
:1008C000ED91FC910190F081E02DC8010995CE14C5
:1008D000DF0491F70F900F90DF91CF911F910F914F
:1008E000FF90EF90DF90CF90089541E00E94FA02D0
:1008F00081E090E0089508950F931F93CF93DF93C5
:1009000027ED31E0FC01318320838C01095E1F4F0C
:1009100081F0EC01C352DF4FC017D10751F0C3562D
:10092000D109E881F9810190F081E02DCE0109958E
:10093000F3CFDF91CF911F910F9108952FED31E00B
:10094000FC0121933193CF010C947C04CF93DF936E
:10095000EC010E947C04CE01DF91CF910C94401BEE
:10096000CF93DF93EC010E949E04CE01DF91CF91E3
:100970000C94401B0C94401B80911602909117021E
:100980000C942F01FC019C01285D3F4F40E050E09A
:1009900060EC7FE74193519361937193E217F30702
:1009A000C9F729E030E0FC0131A720A708952AE02B
:1009B00030E0FC0133A722A70C94C204CF93DF934D
:1009C000EC018FEC91E0998388831C8A1E8A1D8A32
:1009D000188E1F8A198E1B8E1A8E1C8E81E090E055
:1009E0009E8F8D8F1F8E18A219A21AA21BA28CA3F4
:1009F0001DA21EA21FA218A619A69091150221E001
:100A0000290F209315029BAB8CAB1EAA1DAACE0109
:100A1000C7960E94D7041A8218861E8683E39BE13C
:100A2000AAECBEE38BA79CA7ADA7BEA78DEC9FE465
:100A3000AFE2B2E48FA798ABA9ABBAABDF91CF918D
:100A40000895EF92FF920F931F93CF93DF93FC01D2
:100A5000EA016130710559F4E588F68881E0E41611
:100A6000F50609F480E084A3D68BC58B2AC0E788FD
:100A7000F08C508F478B1C161D061CF59C01215ACB
:100A80003F4FD9018D919C911197019612966D91CE
:100A90007C910E94C91FD9018D939C93880F991F47
:100AA000880F991F8F01080F191FBE010D2E000C12
:100AB000880B990B0E943B21F80167AB70AF81AFA7
:100AC00092AF81E0EC16FD0609F480E0DF91CF9152
:100AD0001F910F91FF90EF900895CF93DF9300D077
:100AE00000D000D0CDB7DEB729833A834B835C8337
:100AF0006D837E83313029F0323031F484B58F7DBF
:100B000002C084B58F7784BD26960FB6F894DEBFF9
:100B10000FBECDBFDF91CF910895CF93DF9300D06B
:100B200000D000D0CDB7DEB7FC0129833A834B83D8
:100B30005C836D837E83552361F0332319F0CF01ED
:100B40000E946D05ED81FE8190818B81982381E06B
:100B500009F480E026960FB6F894DEBF0FBECDBF35
:100B6000DF91CF910895EF92FF920F931F93CF9350
:100B7000DF9300D000D000D0CDB7DEB729833A8311
:100B8000142F4B835C836D837E83ED80FE80332343
:100B900019F029810E946D059FB7F894F7018081B3
:100BA000011103C01095182301C0182B10839FBF9B
:100BB00026960FB6F894DEBF0FBECDBFDF91CF9162
:100BC0001F910F91FF90EF9008950F931F93CF9374
:100BD000DF93EC018DA19EA1AFA1B8A58A019B0175
:100BE000081B190B2A0B3B0BD901C801813911E0F5
:100BF0009107A105B10550F42C8D222309F454C0AE
:100C000086389105A105B10508F44EC04DA35EA339
:100C10006FA378A78D8D9E8D81309105B1F01CF466
:100C2000892B39F034C08230910519F10397D1F046
:100C30002EC02E853F85488959896A897B89CE01D6
:100C40000E948D05813019F51DC02E853F8548898C
:100C500059896A897B89CE010E948D05811117C04F
:100C60001F8E15C089A58F5F89A7883068F48130F1
:100C7000B9F32E853F85488959896A897B89CE01D8
:100C80000E948D058F8F03C08A3009F419A601E0F8
:100C90008F8D811100E02E853F85488959896A89A9
:100CA0007B89CE010E94B3058F8DDF91CF911F917B
:100CB0000F910895CF93DF9300D000D000D0CDB72F
:100CC000DEB729833A834B835C836D837E832E302A
:100CD00008F02E502770206420937C0080917A00C9
:100CE000806480937A0080917A0086FDFCCF8091A9
:100CF00078002091790090E0922B26960FB6F89418
:100D0000DEBF0FBECDBFDF91CF9108950F93CF937C
:100D1000DF9300D000D000D0CDB7DEB729833A836F
:100D20004B835C836D837E83002349F00F3F51F436
:100D300001E029813A814B815C816D817E810E9435
:100D4000B3050EC08A81813039F0823049F484B510
:100D5000806284BD08BD04C084B5806884BD07BDC1
:100D600026960FB6F894DEBF0FBECDBFDF91CF91B0
:100D70000F910895FF920F931F93CF93DF93EC0190
:100D8000862FF42E122F91E09AA76A8361E00E94C9
:100D90005C1A2A81622F70E0FB01EF51FF4F349102
:100DA0003B83FB01EB50FF4F44914C83FB01E75F1A
:100DB000FE4F54915D83E52FF0E0EE0FFF1FE95DDC
:100DC000FE4F85919491682F9F838E83098D7F813B
:100DD000CE010E948606F88660E08F2D0E945C1A84
:100DE0001E8761E0812F0E945C1A2E85822F90E081
:100DF000FC01EF51FF4F34913F87FC01EB50FF4F57
:100E00004491488BFC01E75FFE4F5491598BE52FCD
:100E1000F0E0EE0FFF1FE95DFE4F85919491682F82
:100E20009B8B8A8B01E07B89CE010E94B305DF9109
:100E3000CF911F910F91FF9008950F93CF93DF9360
:100E400000D000D000D0CDB7DEB7662359F0FC014A
:100E5000018D2281338144815581668177810E9491
:100E6000860612C026E0FC013296DE011196019042
:100E70000D922A95E1F700E029813A814B815C814E
:100E80006D817E810E94B30526960FB6F894DEBF71
:100E90000FBECDBFDF91CF910F9108952F923F925A
:100EA0004F925F927F928F929F92AF92BF92CF921A
:100EB000DF92EF92FF920F931F93CF93DF9300D0B7
:100EC00000D000D0CDB7DEB77C01DC0157968D9005
:100ED0009C9058975596AD90BC9056975C968C9187
:100EE000882359F0B6E9AB16B10424F046E9A42EE4
:100EF000B12C03C034E6A32EB12CF70185A996A925
:100F0000009719F060E00E941D0786E0F701329615
:100F1000DE01119601900D928A95E1F700E029819A
:100F20003A814B815C816D817E81C7010E94B3054E
:100F300064E170E080E090E00E946E19D70118969D
:100F40002C91189719963C9119971A964C911A97CB
:100F50001B965C911B971C966C911C971D967C911F
:100F6000C7010E945A06F701938F828F018D22815B
:100F700033814481558166817781C7010E9486064D
:100F8000D701D596ED91FC91D697309751F0018D10
:100F9000228133814481558166817781CF010E940E
:100FA0008606F701628D738D772473946135710520
:100FB0000CF4712CD701D4967C92072E000C880B70
:100FC000990B0E943B21F70123A534A545A556A501
:100FD0000E94F021D7019F962D913D914D915C91FA
:100FE000D2970E9420201B012C0120E030E0A901B3
:100FF0000E94EB2120E030E040E05FE387FD05C088
:10100000C201B1010E94202004C0C201B1010E94AE
:101010001F200E9403216B01F701708F678B16164A
:1010200017061CF5E15AFF4F808191810196D70187
:10103000AF59BF4F6D917C910E94C91F91838083EE
:10104000880F991F880F991F8701080F191FB60174
:101050000D2C000C880B990B0E943B21D801D796D0
:101060006D937D938D939C93DA97C5018C199D099F
:1010700018161906BCF42AE0289F8001299F100D3C
:1010800011240739110514F006E910E084309105A8
:101090005CF44FE0489F9001499F300D1124020FEE
:1010A000131F02C000E010E0772021F1F701848DCA
:1010B000882319F083E090E01AC0F4E0CF16D10441
:1010C00004F1C5010397C816D9064CF083E0A80EB9
:1010D000B11CAC14BD041CF082E090E00DC081E0B6
:1010E00090E00115110511F080E090E0F701968F76
:1010F000858F07C081E090E0D7015E969C938E9328
:101100005D97F701818D082E000C990B80179107D0
:1011100051F0018F2281338144815581668177812D
:10112000C7010E94860681E0D70157962D913C9118
:1011300058978216930609F480E026960FB6F89425
:10114000DEBF0FBECDBFDF91CF911F910F91FF90FA
:10115000EF90DF90CF90BF90AF909F908F907F9057
:101160005F904F903F902F900895CF92EF920F9302
:10117000CF93DF93EC01E7EDF1E0DC01ED93FD931C
:10118000CD010E941704CE0147960E94DE04CE01D5
:1011900086589F4F0E94DE04FE01E352FF4F81E01C
:1011A00090E09183808332961082118212821382A2
:1011B00036961082319610823196108211821282F8
:1011C0001382349610821182128213823496108216
:1011D0001182128213823496108231961082CD5180
:1011E000DF4F80E092E099838883DF91CF910F9168
:1011F000EF90CF900895BF92CF92DF92EF92FF923F
:101200000F931F93CF93DF93CDB7DEB761970FB6E0
:10121000F894DEBF0FBECDBF8C017C0182E0E80EEA
:10122000F11CC7010E942603F801ED51FF4F808198
:1012300080FD03C08CE191E002C087E191E09F93C3
:101240008F9383E291E09F938F938CE291E09F9341
:101250008F931F9281E1B82EBF928E010F5F1F4FB7
:101260001F930F930E94E523F80101900020E9F7F6
:101270003197E01BF10B90E1C92ED12CB6016E1B0A
:101280007F0B7695679540E0C7010E942D03B8015A
:10129000C7010E94341C1F9286E08F931F9281E049
:1012A0008F931F9286E78F9382E391E09F938F93B2
:1012B0001F92BF921F930F930E94E523F8010190A4
:1012C0000020E9F73197E01BF10BB6016E1B7F0B95
:1012D0007695679541E0C7010E942D03B801C701CB
:1012E0000E94341C68EE73E080E090E00E946E196A
:1012F000C7010E9426036BE371E0C8010E94B92375
:10130000F80101900020E9F73197E01BF10BB601DD
:101310006E1B7F0B7695679540E0C7010E942D03F9
:10132000B801C7010E94341C87E08F938FED8F9323
:1013300089E491E09F938F938FE491E09F938F9343
:101340001F92BF921F930F930E94E523F801019013
:101350000020E9F73197E01BF10B0FB6F894DEBFE0
:101360000FBECDBFB6016E1B7F0B7695679541E032
:10137000C7010E942D03B801C7010E94341C68EE0A
:1013800073E080E090E00E946E19C7010E9426037E
:1013900061960FB6F894DEBF0FBECDBFDF91CF913F
:1013A0001F910F91FF90EF90DF90CF90BF90089525
:1013B0000F931F93CF938C010D501F4FF801C081E5
:1013C000C11124C060E070E08FE092E00E946802EA
:1013D0008D30D1F461E070E08FE092E00E9468020D
:1013E0008E3091F462E070E08FE092E00E9468023B
:1013F0008A3051F463E070E08FE092E00E9468026E
:10140000C1E08D3009F0C0E0F801C083F8018081AF
:10141000CF911F910F9108954DE060E070E08FE053
:1014200092E00E946B024EE061E070E08FE092E09B
:101430000E946B024AE062E070E08FE092E00E945E
:101440006B024DE063E070E08FE092E00C946B0281
:10145000FB0180E06CE8415088F0519198E0752FD5
:101460007827282F30E035952795822F70FF02C00E
:10147000862F82275695915091F7EDCF0895BF9210
:10148000CF92DF92EF92FF920F931F93CF93DF9350
:1014900000D0CDB7DEB76C017B018A01FA01118261
:1014A00010820E94D809882399F0B7018FE092E05A
:1014B0000E946802B82EB7016F5F7F4FF2E0EF0E17
:1014C000F11C8FE092E00E946802F801B0828183F3
:1014D000C6010E94D809882339F0B7018FE092E055
:1014E0000E946802F82E01C0F12CF80190818181E0
:1014F00099838A8342E0BE016F5F7F4FC6010E94DD
:10150000280A91E08F1190E0892F0F900F90DF91C2
:10151000CF911F910F91FF90EF90DF90CF90BF90F0
:1015200008953F924F925F926F927F928F929F9217
:10153000AF92BF92CF92DF92EF92FF920F931F93E1
:10154000CF93DF93CDB7DEB760970FB6F894DEBFC9
:101550000FBECDBF5C017B016A013E018DE0680ECC
:10156000711C8E010F5F1F4F28014B01801A910AD9
:1015700094E0392E300EB401640D751D8FE092E0B9
:101580000E946802F30181933F01F20181932F01D0
:101590003E12F1CF2E01F5E04F0E511CCE010996FF
:1015A0003C0184E0382E360CB401640D751D8FE0CB
:1015B00092E00E946802F30181933F01F20181935E
:1015C0002F013610F1CFB701685F7F4F8FE092E0B7
:1015D0000E946802F82E48E0B801C5010E94280A5E
:1015E000F81211C089859A85AB85BC854D855E85CD
:1015F0006F857889F60143A754A765A776A787A7C3
:1016000090ABA1ABB2AB60960FB6F894DEBF0FBE45
:10161000CDBFDF91CF911F910F91FF90EF90DF90A1
:10162000CF90BF90AF909F908F907F906F905F9082
:101630004F903F9008954F925F926F927F928F925A
:101640009F92AF92BF92CF92DF92EF92FF920F9351
:101650001F93CF93DF93CDB7DEB760970FB6F894A3
:10166000DEBF0FBECDBF5C018B01FA0187A590A93B
:10167000A1A9B2A943A554A565A576A54D875E8706
:101680006F87788B89879A87AB87BC87C5010E9453
:10169000D809882309F445C03E01FDE06F0E711C96
:1016A000CE0101967C016C014801881A990A94E0E8
:1016B000492E4E0CF30151903F01B4016C0D7D1D7C
:1016C000452D8FE092E00E946B02F60151926F016E
:1016D0004E12F0CF3E01F5E06F0E711CCE0109965F
:1016E0006C0184E0482E4C0CF60151906F01B4015E
:1016F000660D771D452D8FE092E00E946B02F3018D
:1017000051923F014C10F0CF48E0B701C5010E9453
:10171000280AB801685F7F4F482F8FE092E00E944F
:101720006B0260960FB6F894DEBF0FBECDBFDF919F
:10173000CF911F910F91FF90EF90DF90CF90BF90CE
:10174000AF909F908F907F906F905F904F90089593
:10175000CF93DF93FC01E352FF4F20813181213091
:10176000310549F4EC010E943C19C152DF4F6883F6
:1017700079838A839B83DF91CF910895FC01ED519A
:10178000FF4F20813181CB0182239323892B59F490
:10179000442319F0262B372B04C06095709526231F
:1017A00037233183208308950F931F93CF93DF93C3
:1017B000EC018C0103521F4FF801808191817183EC
:1017C000608341E08617970709F440E064E070E029
:1017D000CE010E94BE0BF80180819181019719F41E
:1017E0000E943C1903C060E070E0CB01C152DF4FA2
:1017F000688379838A839B83DF91CF911F910F91B7
:1018000008950F931F93CF93DF93FC01E352FF4F93
:101810002081318121303105F1F4EC010E943C1925
:10182000FE01E152FF4F0081118122813381DC01F1
:10183000CB01801B910BA20BB30B893B9B40A105F5
:10184000B10548F060E070E0CE01DF91CF911F91CB
:101850000F910C94D40BDF91CF911F910F910895AC
:10186000FC01ED51FF4F442329F080819181682BC9
:10187000792B06C0609570958081918168237923CA
:101880007183608308950F931F93CF93DF93EC01CF
:101890008C010D511F4FF8018181482F46954695C7
:1018A00050E0F1E04F27417060E074E0CE010E940B
:1018B000300C41E060E078E0CE010E94BE0BF80100
:1018C0009081818182FB882780F98BAB90FF03C0D8
:1018D000C658DF4F8C8FDF91CF911F910F910895E4
:1018E000CF93DF93CDB7DEB760970FB6F894DEBF26
:1018F0000FBECDBF23E6269FF001279FF00D1124D8
:101900008E0F9F1FFC01EE5BFF4F88E0DE011196FA
:1019100001900D928A95E1F788E0FE013196DE0193
:10192000199601900D928A95E1F729853A854B85A4
:101930005C856D857E858F85988960960FB6F89455
:10194000DEBF0FBECDBFDF91CF9108950F931F93E0
:10195000CF93DF93EC01AC01495E5F4F6FE070E025
:101960000E94910A8E010D511F4FF801808180FF66
:1019700008C0AE0146585F4F68E170E0CE010E949A
:10198000910AF8012081318135FF1EC080E090E08E
:10199000A0E8BFE3FE01EE5BFF4F80839183A2834B
:1019A000B3833496108211821282138220FF0CC0FE
:1019B000E15AFF4F80839183A283B383C755DF4FE2
:1019C000188219821A821B82DF91CF911F910F9189
:1019D00008952F923F924F925F926F927F928F92D3
:1019E0009F92AF92BF92CF92DF92EF92FF920F93AE
:1019F0001F93CF93DF93CDB7DEB728970FB6F89438
:101A0000DEBF0FBECDBF3C01122FFA2CFC01EB5103
:101A1000FF4F6083319640832C0182E0480E511CB9
:101A200020E0C2010E946303212C312CD12C88E0DC
:101A3000982EFE0131965F01F501892D11928A954C
:101A4000E9F7D50180E090E0FC01E20DF31DEF55D0
:101A5000FF4FE491ED93019688309105A9F7A50118
:101A60006D2DC2010E943D04D39498E0290E311CD3
:101A7000E8E0DE12E1CF85E085BDC3010E94D80910
:101A8000811103C0C3010E940C0A2301F7E14F0E2C
:101A9000511C2E2D402F612FC2010E94BA0681E0F9
:101AA000F30183A783010D511F4FF80180819181BC
:101AB00095FF03C044E650E016C0A50169E070E060
:101AC000C3010E943F0A882361F049815A8144364C
:101AD000510580F3433CF1E05F0728F042EC51E010
:101AE00002C046E950E061E070E0C2010E942105B9
:101AF000F30113AE60E08C2D0E945C1A8C2D0E94C5
:101B0000C81A8C2D0E94C81A019731F4F8018081FF
:101B10009181816091838083F8018081918195FF1B
:101B200003C0816091838083F801808180FF60C061
:101B3000C3010E94D809882341F066E070E08FE07D
:101B400092E00E946802E82E01C0E12C1301FAE73E
:101B50002F0E311C2D8D482D6F2DC1010E94BA060C
:101B6000F301E45BFF4F31822082F10156AA45AABE
:101B7000F8018081918195FF03C044E650E016C0D2
:101B8000A5016CE070E0C3010E943F0A882361F068
:101B900049815A814436510580F3433CF1E05F07A7
:101BA00028F042EC51E002C046E950E061E070E00C
:101BB000C1010E942105EE20D1F1F30144A555A5F4
:101BC000F101858996894817590789F161E070E02C
:101BD000C1010E942105F8018081918195FD02C01B
:101BE0004E2D01C040E062E070E0C3010E94300C65
:101BF000C3010E94A60CC3010E94FB0828960FB6E1
:101C0000F894DEBF0FBECDBFDF91CF911F910F9132
:101C1000FF90EF90DF90CF90BF90AF909F908F900C
:101C20007F906F905F904F903F902F900895F101BB
:101C300014A2D1CF23E6269FA001279F500D112487
:101C4000495E5F4F480F591F672B19F068E170E03C
:101C500002C06FE070E00C941B0B1F93CF93DF93D7
:101C6000EC01162F462F60E070E20E94300C11113B
:101C700007C0CD51DF4F8881998192609983888315
:101C8000DF91CF911F910895FC01ED51FF4F20810D
:101C9000318132FD0C94430C0895CF93DF93EC0116
:101CA0000E94440EFE01ED51FF4F808180FF19C05C
:101CB00081FD17C09BA581E098279BA7E956F109F4
:101CC00094898927848B41E060E072E0CE010E9414
:101CD000BE0B41E060E070E1CE01DF91CF910C944A
:101CE000BE0BDF91CF910895AF92BF92CF92EF924A
:101CF0000F93CF93DF93EC018FED91E0FE01819381
:101D000091935F018CE0C82E9BE0E92E0AE029E068
:101D100048E067E0CF010E94B508E12C04E024E030
:101D200043E062E0CE0189509F4F0E94E800FE012F
:101D3000E85BFE4F1082C75BDE4F188219821A8261
:101D40001B8284E00E94C81A892B59F461E0C50106
:101D5000DF91CF910F91EF90CF90BF90AF900C9407
:101D60002D0EDF91CF910F91EF90CF90BF90AF905C
:101D700008958F92AF92CF92EF920F931F93CF93CC
:101D8000DF93EC0111E11F932EE0822E36E0A32EAB
:101D90004DE0C42E50E1E52E0FE025E042E060E189
:101DA00002960E94E90CC950DF4FD0931702C093EE
:101DB0001602E1E8F0E080E180831092800081E08B
:101DC0008093120220EA3FE0309314022093130222
:101DD000309387002093860010832CEB34E03093FF
:101DE00011022093100280936F000F90DF91CF912A
:101DF0001F910F91EF90CF90AF908F9008954F92D9
:101E00005F926F927F92AF92BF92CF92DF92EF92EA
:101E1000FF920F931F93CF93DF93FC01A2A4B3A46F
:101E20008C01C12CD12C7601C0E0D0E0CA15DB05B5
:101E300071F0F80141905190619071908F01A30170
:101E40009201C301B2010E945D22882329F02097EC
:101E500069F4C1E0D0E00AC0A3019201C701B60154
:101E60000E9420206B017C012196E0CFBE0180E022
:101E700090E00E9439219B01AC01C701B6010E948C
:101E8000912020E030E040E05FE30E9420200E94AB
:101E90000321CB01DF91CF911F910F91FF90EF9024
:101EA000DF90CF90BF90AF907F906F905F904F90FA
:101EB0000895672B19F4C7960C94FF0EFC018589D1
:101EC000968908955F926F927F928F929F92AF92C0
:101ED000BF92CF92DF92EF92FF920F931F93CF9317
:101EE000DF93EC018B016C012DEDC20ED11CF601CC
:101EF00080819181892BB9F461E070E0CE010E946C
:101F0000D40BCE01DF91CF911F910F91FF90EF90F5
:101F1000DF90CF90BF90AF909F908F907F906F9009
:101F20005F900C94440ECE010E94440E0E943C1916
:101F3000FE01E151FF4F6083718382839383359665
:101F400010827197808091805401F1E0AF22BB2410
:101F500080FE02C081FE3BC0E12CF12C83E6582EAE
:101F6000AE14BF040CF482C05E9C40015F9C900CD8
:101F7000112427E1820E911C8C0E9D1EF6016080BB
:101F80007180B301C4010E94590F800F911F8436E4
:101F900091053CF0AC01833C91402CF042EC51E0C7
:101FA00002C044E650E0B301C4010E942105E114DF
:101FB000F10419F468E070E002C060E470E0482FBA
:101FC000CE010E94BE0B2FEFE21AF20AC9CF8BA5F9
:101FD000FE0177965F01882311F07F0104C07E0126
:101FE000FAE7EF0EF11CF601C080D180B601C701FF
:101FF0000E94590FAC01400F511F4436510594F017
:1020000094012227307295FC03C082EC91E002C05B
:1020100087EE93E08417950754F4232B31F442ECB8
:1020200051E005C044E650E002C047EE53E0B6017F
:10203000C7010E942105EA14FB0419F060E470E076
:1020400002C068E070E0482FCE01DF91CF911F9170
:102050000F91FF90EF90DF90CF90BF90AF909F9047
:102060008F907F906F905F900C94BE0BDF91CF911B
:102070001F910F91FF90EF90DF90CF90BF90AF90A6
:102080009F908F907F906F905F900895EF92FF9256
:102090000F931F93CF93DF931F92CDB7DEB7072F18
:1020A0007A0169830E94D809182F69818823D1F0A9
:1020B000F701808191819C012F5F3F4F3183208305
:1020C000462FBC018FE092E00E946B02F701608115
:1020D0007181CB01019691838083402F8FE092E044
:1020E0000E946B02812F0F90DF91CF911F910F9172
:1020F000FF90EF900895EF92FF920F931F93CF936D
:10210000DF9300D0CDB7DEB78C010E94440E78017A
:1021100083EEE80EF11CF7018081918195FD44C0AA
:1021200080FF42C0F80123A5C80186589F4F222393
:1021300029F044A555A561E070E007C0FC01458980
:10214000568961E070E0C80147960E942105F701B9
:102150004081518156954795F1E04F27417062E0EB
:1021600070E0C8010E94300CF7018081918192607B
:10217000918380830E943C19F801E151FF4F6083F5
:102180007183828393833596108286E090E09A83F0
:102190008983F7016081718162707727AE014F5F9B
:1021A0005F4FC8010E9446100F900F90DF91CF91B2
:1021B0001F910F91FF90EF9008950F931F93CF936E
:1021C000DF9300D000D01F92CDB7DEB78C019B010A
:1021D000BA013C832B8349837A83AE014D5F5F4F05
:1021E0000E94461042E0BE016F5F7F4FC8010E940F
:1021F000280A482FC8014D830E94D8094D818823A1
:1022000051F06B817C81CB0101969C838B838FE0A5
:1022100092E00E946B020F900F900F900F900F9022
:10222000DF91CF911F910F910895AF92BF92CF92FE
:10223000DF92EF92FF920F931F93CF93DF93C62FFE
:10224000440F440F142F120F02967C0140E0612FBF
:102250000E942D0383E0C89F50011124C12CD12C72
:10226000D0E0F601EA0DFB1DE955FE4F6081C70184
:102270000E9475048FEFC81AD80A83E0C816D104EB
:1022800081F741E0612FC7010E942D03CE01880F25
:10229000991FC80FD91F00E010E0F801EC0FFD1FD7
:1022A000ED57FE4F6081C7010E9475040F5F1F4FFD
:1022B0000330110591F7DF91CF911F910F91FF909E
:1022C000EF90DF90CF90BF90AF9008959F92AF9224
:1022D000BF92CF92DF92EF92FF920F931F93CF9313
:1022E000DF9300D000D01F92CDB7DEB77C016B0129
:1022F000942E022F77FD19C06436710554F48AE3D9
:1023000089836A3071054CF48A83BE016D5F7F4F0B
:1023100007C0BE016F5F7F4F03C0BE016E5F7F4F7E
:102320004AE0C6010E94C02305C08BE389838A83EB
:102330008B831C82FE0131965F0110E0F5016191F3
:102340005F01662351F0412F490D6053202FC701D3
:102350000E9415111F5F143089F7F2E0EF0EF11C97
:10236000190D110F110F612F600F40E0C7010E947E
:102370002D03D7FE02C060E201C06FEDC7010E94CD
:1023800075040F900F900F900F900F90DF91CF91E9
:102390001F910F91FF90EF90DF90CF90BF90AF9083
:1023A0009F900895EF92FF921F93CF93DF93EA01DE
:1023B00002967C01462F62E00E942D0312E02996CE
:1023C000812F90E0C817D90734F060E2C7010E945E
:1023D00075041F5FF5CFDF91CF911F91FF90EF90B4
:1023E00008959F92AF92BF92CF92DF92EF92FF92A9
:1023F0000F931F93CF93DF93CDB7DEB760970FB6E0
:10240000F894DEBF0FBECDBF7C015B016A01922E46
:1024100040E050E0622F0E94D21187010E5F1F4FF3
:102420008FEFC816D80679F4AB2811F065E001C02B
:1024300062E0492DC8010E942D036DE970E0C801DA
:102440000E94111C34C0A114B104C1F0DF92CF92DC
:1024500083E591E09F938F931F928FE08F93CE013E
:1024600001969F938F930E94E52398E0692F681B44
:102470000FB6F894DEBF0FBECDBF01C062E0492D9C
:10248000C8010E942D034AE050E0B601C8010E9435
:10249000DD1CF701ED51FF4F8081918195FF03C055
:1024A000AA94AB2821F46FEDC8010E9475046096D0
:1024B0000FB6F894DEBF0FBECDBFDF91CF911F9155
:1024C0000F91FF90EF90DF90CF90BF90AF909F90D3
:1024D00008956F927F928F929F92AF92BF92CF9208
:1024E000DF92FF920F931F93CF93DF938C010E9493
:1024F0003C1968012DEDC20ED11CF60120813181FD
:10250000E801CD51DF4F3A9621303105C9F02881DD
:10251000398120723171232B99F480809180A280BF
:10252000B3809B01AC01281939094A095B094901AB
:102530005A0139EC83169104A104B10408F4F5C1E1
:102540006083718382839383888199819C01247045
:10255000332780FF02C081FFA6C0232B31F08B7F81
:1025600099838883FF24F39401C0F12C8881998199
:1025700091FD02C0FF2049F09D7F99838883C801A7
:1025800002960E942603FF24F394F801E55BFF4FB7
:102590007080888199814C0141E08422992480FFD8
:1025A00003C0BF9664A801C0612CF601A080B18071
:1025B000F1E0AF16B10419F020E130E002C028E0EC
:1025C00030E028233923232BA1F48114910469F0EE
:1025D00021E0A216B10419F020E830E002C028E0A2
:1025E00030E082239323892B79F4F11002C0F12C7F
:1025F00057C1772019F1C801825B9F4F0E94FF0EDF
:10260000892891F04C0105C07110F5CF88248A9477
:10261000982C662009F484C1C8018F549F4F0E94F2
:10262000FF0E772079F005C0662061F04C018FEF36
:102630009FEF880D991D9595879504C0892831F7DE
:102640008FEF9FEFA114B10441F0B501C801479687
:102650000E94590FAA94AB2811F020E001C022E09B
:1026600040E0BC01C8010E946611F6014081518121
:102670004130510519F080E190E002C088E090E01F
:10268000809590952881398128233923413051053F
:1026900019F080E890E002C080E490E08095909589
:1026A00082239323FBC0232B31F08B7F9983888374
:1026B000FF24F39401C0F12C8881998191FD02C01F
:1026C000FF2049F09D7F99838883C80102960E946C
:1026D0002603FF24F3948881998195FF10C0FF2081
:1026E00071F040E06BE05801F2E0AF0EB11CC501A3
:1026F0000E942D0369E970E0C5010E94111C288128
:102700003981F601A080B180F1E0AF16B10419F073
:1027100080E190E002C088E090E082239323892B3F
:1027200011F4FF20C1F14901882440E2942235FFD1
:1027300007C0A114B10421F4F80141A952A914C0A1
:10274000B501C80147960E94590FA114B10441F484
:10275000892831F4F801E55BFF4F2081222311F035
:10276000AC0102C04FEF5FEF20E0B501C8010E944D
:10277000F111F60180819181019719F080E190E0DB
:1027800002C088E090E0809590952881398182236D
:1027900093239983888328813981F601A080B180B1
:1027A000F1E0AF16B10419F080E890E002C080E4D7
:1027B00090E082239323892B11F4FF20C9F1A80113
:1027C00046585F4F3A014901882450E2952235FF6F
:1027D00007C0A114B10421F4F301428D538D11C03F
:1027E000B501C3010E94590FA114B10431F4892825
:1027F00021F4F30124A9222311F0AC0102C04FEF10
:102800005FEF21E0B501C8010E94F111F60180815E
:102810009181019719F080E890E002C080E490E097
:102820008095909528813981822393239983888389
:102830008881998194FD03C0FF2009F4D8CEF80166
:1028400093A4492D60E05801F2E0AF0EB11CC50120
:102850000E942D0360E2C5010E947504492D6AE0C3
:10286000C5010E942D0360E2C5010E94750481E04C
:102870009826492D60E0C5010E942D036BE5C50136
:102880000E947504492D6AE0C5010E942D036DE583
:10289000C5010E947504888199819F7E99838883F0
:1028A0008881998193FD02C0FF2029F181FF05C035
:1028B000F60180819181892BF1F46801F2E0CF0E5D
:1028C000D11CF801EB51FF4F6081645041E0C6011B
:1028D0000E942D038881998192FD03C06FE870E00A
:1028E00002C064E970E0C6010E94111C88819981D0
:1028F000977F998388838881998185FD02C0FF2015
:1029000019F08F7D998388838881998180FF0DC01C
:1029100090FD02C0FF2049F09E7F9983888305C007
:10292000772009F48DCEC4018DCEDF91CF911F9118
:102930000F91FF90DF90CF90BF90AF909F908F90BE
:102940007F906F9008956F927F928F929F92AF9237
:10295000BF92CF92DF92EF92FF920F931F93CF938C
:10296000DF93EC017C0124EFE20EF11CF701808182
:102970008111AFC00E943C19FE01E151FF4F00815F
:10298000118122813381DC01CB01801B910BA20BD1
:10299000B30B81339547A105B10508F49AC077249C
:1029A00073940E943C194B015C01FE01E551FF4FFD
:1029B00080819181A281B381A5019401281B390BEB
:1029C0004A0B5B0BDA01C901AE01495E5F4F6A0138
:1029D0008E010D511F4F893C9105A105B10500F1F4
:1029E00080829182A282B382B501A401C6010E94B5
:1029F0004E07482F60E170E0CE010E94BE0BF80147
:102A0000808180FF0DC0B501A401CE0186589F4F83
:102A10000E944E07482F60E870E0CE010E94BE0B76
:102A20006EA8B501A401C6010E94E505681631F043
:102A3000F80180819181806291838083F801808197
:102A400080FF11C0CE0186589F4FFC01D78CB50185
:102A5000A4010E94E505D81631F0F801808191812A
:102A6000916091838083772019F1F80180819181B1
:102A700095FD1BC08BAD882341F04CA55DA569E099
:102A800070E0CE010E94DD101BAE8E0106581F4F74
:102A9000F80184A1882349F0458956896CE070E0EB
:102AA000CE010E94DD10F80114A281E0F7018083BD
:102AB000CE01DF91CF911F910F91FF90EF90DF90AA
:102AC000CF90BF90AF909F908F907F906F900C941D
:102AD0006912712C66CF2F923F924F925F926F9244
:102AE0007F928F929F92AF92BF92CF92DF92EF929E
:102AF000FF920F931F93CF93DF93CDB7DEB7C45EE2
:102B0000D1090FB6F894DEBF0FBECDBF8C012DB733
:102B10003EB7CD51DF4F39832883C35ED04084E375
:102B200092E00E948C1F882309F4ABC284E392E0F8
:102B30000E94EC1D181619060CF0A3C21801F8EB40
:102B40002F1AFEEF3F0A84E392E00E94EC1D181654
:102B500019060CF096C2F101E080F12C84E392E0BA
:102B60000E94181EE00EF11EF701E85FFE4F808301
:102B7000F10180819801280F311DF901E85FFE4FB6
:102B800090819A3031F08F3321F08F5FF101808393
:102B9000DACFF901E85FFE4F10828330B0F06AE3CC
:102BA00070E0C801885F9E4F0E94A5236C010097CA
:102BB00061F04C012FEF821A920A6AE370E0C401BF
:102BC0000E94A5237C01009779F480E0F101108236
:102BD000811103C06DE571E002C066E571E084E338
:102BE00092E00E94341C4DC22DB73EB7C152DF4F58
:102BF00039832883CF5DD0408C199D096C0131E069
:102C0000C31AD108EDB7FEB7E81BF90B0FB6F8945D
:102C1000FEBF0FBEEDBF2DB73EB72F5F3F4F59012F
:102C2000A601B401C9010E949C23F501EC0DFD1D14
:102C300010826AE384E392E00E94361C6DE771E043
:102C4000C5010E94B023892B09F0A7C13FEFE31A09
:102C5000F30A65E671E0C7010E94B023892B51F4A5
:102C60000E5F1F4F60E0C8010E942D0EC8010E9438
:102C7000A60C81C169E671E0C7010E94B023892BCF
:102C800089F40E5F1F4F60E0C8010E942D0E60E0C6
:102C900070E0C8010E941A0E61E070E0C8010E9455
:102CA0001A0E69C16EE671E0C7010E94B023892B3C
:102CB00009F063C1CE0101960E94DE04CE018C5959
:102CC0009F4F0E94DE04780182E0E80EF11CAE0105
:102CD0004F5F5F4F6FE070E0C7010E94910A88E08C
:102CE000FE01BC96DE01A153BF4F01900D928A9563
:102CF000E1F7C153DF4F488059806A807B80CF5C09
:102D0000D040CD52DF4F88809980AA80BB80C35DC0
:102D1000D04067E870E084E392E00E94111C64E810
:102D200070E084E392E00E94111C29E030E0B301DE
:102D3000A20184E392E00E94DD1D62E870E084E37A
:102D400092E00E94111C29E030E0B501A40184E367
:102D500092E00E94DD1DF801EA5FFE4F808180FF56
:102D60003FC0AE014C595F4F68E170E0C7010E945F
:102D7000910A88E0FE01E157FF4FDE01A953BF4FE2
:102D800001900D928A95E1F7C953DF4F4880598031
:102D90006A807B80C75CD040C553DF4F88809980B4
:102DA000AA80BB80CB5CD0406FE770E084E392E008
:102DB0000E94111C29E030E0B301A20184E392E0FB
:102DC0000E94DD1D6DE770E084E392E00E94111C1B
:102DD00029E030E0B501A40184E392E00E94DD1D0A
:102DE00063E770E084E392E00E94111C60E070E011
:102DF000C7010E94700CC952DF4F2883C75DD040C5
:102E0000C852DF4F3883C85DD040C752DF4F488378
:102E1000C95DD040C652DF4F5883CA5DD040C5520D
:102E2000DF4F6883CB5DD040C452DF4F7883CC5DE9
:102E3000D040C352DF4F8883CD5DD040C252DF4FB8
:102E40009883CE5DD040C952DF4F488059806A8058
:102E50007B80C75DD040C552DF4F88809980AA80B3
:102E6000BB80CB5DD04060E770E084E392E00E94DD
:102E7000111C29E030E0B301A20184E392E00E943A
:102E8000DD1D6EE670E084E392E00E94111C29E0F3
:102E900030E0B501A40184E392E00E94DD1D61E011
:102EA00070E0C7010E94700CC952DF4F2883C75DD4
:102EB000D040C852DF4F3883C85DD040C752DF4F83
:102EC0004883C95DD040C652DF4F5883CA5DD040A9
:102ED000C552DF4F6883CB5DD040C452DF4F78834B
:102EE000CC5DD040C352DF4F8883CD5DD040C2520D
:102EF000DF4F9883CE5DD040C952DF4F88809980E4
:102F0000AA80BB80C75DD040C552DF4FC880D98042
:102F1000EA80FB80CB5DD0406AE670E084E392E01B
:102F20000E94111C29E030E0B501A40184E392E085
:102F30000E94DD1D68E670E084E392E00E94111CAF
:102F400029E030E0B701A60184E392E00E94DD1D94
:102F5000A696EEADFFADA6970190F081E02DCE01D3
:102F60008C599F4F0995E981FA810190F081E02DFC
:102F7000CE010196099581E017C06AE370E0C701B0
:102F80000E94A5235C01009771F06CE270E00E9442
:102F9000A5236C01892BA1F406C065E771E084E3E9
:102FA00092E00E94341C80E0C152DF4FE881F98139
:102FB000CF5DD0400FB6F894FEBF0FBEEDBF06CE7A
:102FC0002DB73EB7CF51DF4F39832883C15ED04044
:102FD0003FEFA31AB30AC5018E199F093C01E1E036
:102FE0006E1A71082DB73EB7281B390B0FB6F8942F
:102FF0003EBF0FBE2DBF8DB79EB701964C01A301FA
:10300000B7010E949C23F401E60DF71D1082F60122
:1030100011926F01C5010E948F232B013C01C60153
:103020000E948F236B017C0161E871E0C4010E9462
:10303000B023892B21F4F801EC5BFF4F0AC063E752
:1030400071E0C4010E94B023892B71F4F801E955A5
:10305000FF4F40825182628273823496C082D18255
:10306000E282F38281E001C080E0CF51DF4F28810E
:103070003981C15ED0400FB6F8943EBF0FBE2DBF60
:1030800093CFCD51DF4F28813981C35ED0400FB639
:10309000F8943EBF0FBE2DBFCC51DF4F0FB6F89452
:1030A000DEBF0FBECDBFDF91CF911F910F91FF907B
:1030B000EF90DF90CF90BF90AF909F908F907F90D8
:1030C0006F905F904F903F902F9008958C01EC018E
:1030D0002296CE010E94A80B780127EFE20EF11C88
:1030E000580135EEA30EB11C680147EBC41A4EEF30
:1030F000D40AC7010E94FE014C01CE010E94010CBE
:103100008114910439F0B401CE010E94620FCE0106
:103110000E94A80BC7010E9436020097E1F085309B
:10312000910549F08630910551F00397A1F4CE0145
:103130000E947B1008C0CE010E944D0E0CC0CE0133
:103140000E94430C08C0CE010E94A314C7010E9434
:1031500036020397C1F3CE010E94A314F5018081CA
:10316000918195FFC6CF0E943C19F60140805180A5
:10317000628073809B01AC01241935094609570907
:1031800029013A013DE2431631E05306610471041E
:1031900008F4AFCF6083718382839383C8010E9458
:1031A0006B15A7CFCF93DF9340E051EE60E070E066
:1031B00084E392E00E94041F8DE491E00E943E1B94
:1031C000EC010E94740ED0931902C0931802CE0134
:1031D000DF91CF910C94B90E809118029091190251
:1031E0000C9466181F920F920FB60F9211242F9312
:1031F0003F938F939F93AF93BF9380911B029091C6
:103200001C02A0911D02B0911E0230911A0220E30F
:10321000230F2D3720F44096A11DB11D05C023EBCF
:10322000230F4196A11DB11D20931A0280931B020A
:1032300090931C02A0931D02B0931E0280911F0266
:1032400090912002A0912102B09122020196A11D2D
:10325000B11D80931F0290932002A0932102B0938E
:103260002202BF91AF919F918F913F912F910F902B
:103270000FBE0F901F9018952FB7F89460911B0206
:1032800070911C0280911D0290911E022FBF089523
:103290003FB7F89480911F0290912002A0912102E3
:1032A000B091220226B5A89B02C02F3F99F43FBFE0
:1032B000BA2FA92F982F8827820F911DA11DB11D0C
:1032C000BC01CD0146E0660F771F881F991F4A9504
:1032D000D1F708950196A11DB11DE9CFCF92DF92DC
:1032E000EF92FF92CF93DF936B017C010E9448190C
:1032F000EB01C114D104E104F10479F00E944819F2
:103300006C1B7D0B683E7340A0F381E0C81AD108A6
:10331000E108F108C851DC4FECCFDF91CF91FF906D
:10332000EF90DF90CF900895019739F0880F991FA3
:10333000880F991F02970197F1F70895789484B543
:10334000826084BD84B5816084BD85B5826085BDA1
:1033500085B5816085BDEEE6F0E080818160808387
:10336000E1E8F0E01082808182608083808181606A
:103370008083E0E8F0E0808181608083E1EBF0E031
:10338000808184608083E0EBF0E0808181608083D5
:10339000EAE7F0E0808184608083808182608083BE
:1033A0008081816080838081806880831092C100E9
:1033B00008951F920F920FB60F9211242F933F93EF
:1033C0004F935F936F937F938F939F93AF93BF932D
:1033D000EF93FF938091230290912402892B29F08F
:1033E000E0912302F09124020995FF91EF91BF91A2
:1033F000AF919F918F917F916F915F914F913F918D
:103400002F910F900FBE0F901F9018951F920F9243
:103410000FB60F9211242F933F934F935F936F93A7
:103420007F938F939F93AF93BF93EF93FF9380917D
:10343000250290912602892B29F0E0912502F09136
:1034400026020995FF91EF91BF91AF919F918F91C6
:103450007F916F915F914F913F912F910F900FBE90
:103460000F901F901895833081F028F4813099F0E7
:103470008230A1F008958630A9F08730B9F0843009
:10348000D1F4809180008F7D03C0809180008F7780
:1034900080938000089584B58F7702C084B58F7DB6
:1034A00084BD08958091B0008F7703C08091B000F3
:1034B0008F7D8093B0000895CF93DF9390E0FC015F
:1034C000EB50FF4F2491FC01E75FFE4F849188236E
:1034D00061F190E0880F991FFC01EF5CFE4FC591F0
:1034E000D491FC01E95DFE4FA591B491611109C031
:1034F0009FB7F8948881209582238883EC912E23AE
:103500000BC0623061F49FB7F8943881822F8095A8
:1035100083238883EC912E2B2C939FBF06C08FB7FB
:10352000F894E8812E2B28838FBFDF91CF910895E7
:103530001F93CF93DF93282F30E0F901EF51FF4F16
:103540008491F901EB50FF4FD491F901E75FFE4FF1
:10355000C491CC23C9F0162F81110E94331AEC2F8D
:10356000F0E0EE0FFF1FE95DFE4FA591B4918FB71C
:10357000F894111105C09C91ED2FE095E92302C04C
:10358000EC91ED2BEC938FBFDF91CF911F910895BC
:10359000CF93DF93282F30E0F901EF51FF4F849153
:1035A000F901EB50FF4FD491F901E75FFE4FC49151
:1035B000CC2391F081110E94331AEC2FF0E0EE0F32
:1035C000FF1FE35EFE4FA591B491EC91ED2381E0E6
:1035D00090E021F480E002C080E090E0DF91CF91A4
:1035E00008958F929F92AF92BF92CF92DF92EF9207
:1035F000FF920F931F93CF93DF937C018B016C019C
:1036000082E0C80ED11C4701E5E08E0E911CC0E09F
:10361000D0E0F60161916F014AE050E0C8010E94DC
:10362000F11C5C016EE2C8010E94361C8A0D9B1DD4
:10363000C80FD91FC814D90461F74AE050E0F70158
:103640006581C8010E94F11C8C0F9D1FDF91CF91F5
:103650001F910F91FF90EF90DF90CF90BF90AF90B0
:103660009F908F900895E7E2F2E087EE91E09183DA
:103670008083128213821482158208950C94622230
:103680000C94F722813039F018F0823051F008950F
:1036900010926E00089580916F008D7F80936F006F
:1036A0000895809170008D7F8093700081E08093F9
:1036B000B0008091B100887F84608093B100109247
:1036C000B3000895CF93C82F809106018C1307C0D3
:1036D000EBE3F1E0E4918FEF8093060101C0EFEF9F
:1036E0008E2F0E94421B60E08C2FCF910C94981A71
:1036F0001F920F920FB60F9211242F933F934F9367
:103700005F936F937F938F939F93AF93BF93EF9349
:10371000FF938091300290913102A0913202B091DA
:103720003302892B8A2B8B2B51F180912D02E09152
:103730002E02F0912F0290818927808380913002A0
:1037400090913102A0913202B091330218161906FD
:103750001A061B06C4F48091300290913102A091A8
:103760003202B09133020197A109B109809330026E
:1037700090933102A0933202B093330204C080913F
:1037800006010E94621BFF91EF91BF91AF919F9143
:103790008F917F916F915F914F913F912F910F90FA
:1037A0000FBE0F901F901895CF92DF92EF92FF926D
:1037B0000F931F93CF93DF936C01EB017B01E40E1A
:1037C000F51E00E010E0CE15DF0561F06991D6012D
:1037D000ED91FC910190F081E02DC6010995080F53
:1037E000191FF1CFC801DF91CF911F910F91FF9069
:1037F000EF90DF90CF9008956115710579F0FB018E
:1038000001900020E9F73197AF01461B570BDC010F
:10381000ED91FC910280F381E02D099480E090E02D
:103820000895EF92FF920F931F93CF93DF937C0144
:10383000FB0100E010E06491EF012196662361F046
:10384000D701ED91FC910190F081E02DC701099520
:10385000080F191FFE01EFCFC801DF91CF911F9113
:103860000F91FF90EF9008950C94FC1BDC01ED91FB
:10387000FC910190F081E02D09948F929F92AF927C
:10388000BF92CF92DF92EF92FF920F931F93CF934D
:10389000DF93CDB7DEB7A1970FB6F894DEBF0FBEAA
:1038A000CDBF6C01142FE52FCB01022F19A22230BE
:1038B00008F40AE07E0121E2E20EF11C802E912C38
:1038C000A12CB12C612F7E2FA50194010E94DD1F38
:1038D000029F1019112481E0E81AF1081A3014F43B
:1038E000105D01C0195CF7011083122FE32FCA018C
:1038F000232B242B252B31F7B701C6010E94FC1B7B
:10390000A1960FB6F894DEBF0FBECDBFDF91CF9169
:103910001F910F91FF90EF90DF90CF90BF90AF90ED
:103920009F908F900895CF92DF92EF92FF920F9326
:103930001F93CF93DF93EC016A017B0121153105C1
:1039400079F4E881F9810190F081E02D642FDF9115
:10395000CF911F910F91FF90EF90DF90CF9009943E
:103960002A303105E9F477FF1AC06DE20E94361C57
:103970008C0144275527BA014C195D096E097F094E
:103980002AE0CE010E943D1C800F911FDF91CF9154
:103990001F910F91FF90EF90DF90CF9008952AE054
:1039A000B701A601CE01DF91CF911F910F91FF903A
:1039B000EF90DF90CF900C943D1C9A01AB01770FF4
:1039C000660B770B0C94931C2115310541F4DC0137
:1039D000ED91FC910190F081E02D642F09940C94FD
:1039E0003D1C9A01462F50E060E070E00C94E41C0E
:1039F0004F925F926F927F928F929F92AF92BF92FF
:103A0000CF92DF92EF92FF92CF93DF93EC016A01A6
:103A10007B01B22E9A01AB01C701B6010E945D2263
:103A2000882319F069EE71E027C026013701E89478
:103A300077F82FEF3FEF4FE75FE7C301B2010E9436
:103A40005D2281110DC02FEF3FEF4FE75FE7C3010C
:103A5000B2010E948C2018161CF46DEE71E00CC0AF
:103A60002FEF3FEF4FE75FE4C701B6010E94EB2164
:103A700018169CF461EF71E0CE01DF91CF91FF90B9
:103A8000EF90DF90CF90BF90AF909F908F907F90FE
:103A90006F905F904F900C94FC1B2FEF3FEF4FE720
:103AA0005FECC701B6010E948C2087FDE3CF20E0C8
:103AB00030E0A901C701B6010E948C2087FF0AC02F
:103AC0006DE2CE010E94361C4C01F7FAF094F7F833
:103AD000F09402C0812C912CA12C60E070E080E079
:103AE0009FE3AB1441F020E030E040E251E40E945B
:103AF0009120A394F6CF9B01AC01C701B6010E94AF
:103B000020202B013C010E940A216B017C010E94B4
:103B100039219B01AC01C301B2010E941F202B017E
:103B20003C012AE0B701A601CE010E943D1C7C01A8
:103B3000E80CF91CBB2039F065EF71E0CE010E9462
:103B4000FC1BE80EF91EDB2CDD2039F120E030E013
:103B500040E251E4C301B2010E94F0212B013C017B
:103B60000E9403214B01770FAA08BB082AE030E02E
:103B7000B501A401CE010E94931CE80EF91EC501F7
:103B8000B4010E943B219B01AC01C301B2010E9420
:103B90001F202B013C01DA94D7CFC701DF91CF91D1
:103BA000FF90EF90DF90CF90BF90AF909F908F905D
:103BB0007F906F905F904F9008950C94F81C0E9436
:103BC0009E190E94D218C0ECDEE10E94EC182097EA
:103BD000E1F30E94C01EF9CFFC0124853585F9016F
:103BE000E05CFF4F80819181329620813181821B80
:103BF000930B8F7399270895DC011C96ED91FC912E
:103C00001D97DF01A05CBF4F2D913C91119712963B
:103C10008D919C9111972817390739F08D919C91BE
:103C2000E80FF91F808190E008958FEF9FEF0895CE
:103C3000FC01A485B585FD01E05CFF4F2081318149
:103C40003296808191812817390779F0808191819E
:103C5000A80FB91F8C91208131812F5F3F4F2F73A7
:103C600033273183208390E008958FEF9FEF0895ED
:103C7000FC0181A1882329F0A489B5898C9186FF54
:103C8000FBCF11A208950F931F93CF93DF93FC01F5
:103C9000A685B7858D01005C1F4FE8018881998159
:103CA00001968F739927AD014E5B5F4FEA01288122
:103CB000398182179307D1F3E80128813981A20F56
:103CC000B31F6C93A685B785A05CBF4F11969C93DC
:103CD0008E93A689B7892C9181E090E0078C02C071
:103CE000880F991F0A94E2F7822B8C9381E081A3BD
:103CF0000488F589E02D80818064808381E090E0F4
:103D0000DF91CF911F910F91089508951F920F9207
:103D10000FB60F9211242F934F935F938F939F931E
:103D2000EF93FF938091C00082FD1CC02091C600DC
:103D30008091DA029091DB0201968F73992740916E
:103D4000DC025091DD028417950771F0E091DA02F0
:103D5000F091DB02E656FD4F20839093DB028093C7
:103D6000DA0202C08091C600FF91EF919F918F917E
:103D70005F914F912F910F900FBE0F901F9018954C
:103D800084E392E00E94EC1D892B11F00C94851EB7
:103D900008951F920F920FB60F9211242F933F9305
:103DA0008F939F93EF93FF93209196023091970208
:103DB00080919802909199022817390731F48091E7
:103DC000C1008F7D8093C10014C0E0919802F091F2
:103DD0009902EA5AFD4F20818091980290919902B0
:103DE00001968F739927909399028093980220935C
:103DF000C600FF91EF919F918F913F912F910F906E
:103E00000FBE0F901F901895CF92DF92EF92FF9206
:103E10000F931F93CF93DF93EC016A017B01411550
:103E2000514E6105710509F1EC89FD8981E090E051
:103E300008A002C0880F991F0A94E2F7808360E00F
:103E400079E08DE390E0A70196010E94DD1F8901D2
:103E50009A010150110921093109369527951795C5
:103E60000795980101151041A8F0EC89FD89108291
:103E700060E874E88EE190E0A70196010E94DD1FE2
:103E8000DA01C9010197A109B109B695A7959795DE
:103E900087959C01E889F9893083EA89FB89208329
:103EA00019A2EE89FF89408181E090E09C010C8C91
:103EB00002C0220F331F0A94E2F7242B2083EE89DD
:103EC000FF8940819C010D8C02C0220F331F0A9490
:103ED000E2F7242B2083EE89FF8940819C010E8C20
:103EE00002C0220F331F0A94E2F7242B2083EE89AD
:103EF000FF8920810F8C02C0880F991F0A94E2F776
:103F0000809582238083DF91CF911F910F91FF9045
:103F1000EF90DF90CF90089581E00895E4E3F2E020
:103F20001382128288EE93E0A0E0B0E08483958350
:103F3000A683B7838BEF91E0918380838AE992E037
:103F40009587848786E592E09787868785EC90E061
:103F5000918B808B84EC90E0938B828B80EC90E053
:103F6000958B848B81EC90E0978B868B82EC90E034
:103F7000918F808F86EC90E0938F828F84E0848F86
:103F800083E0858F87E0868F85E0878F81E080A33F
:103F90000895AA1BBB1B51E107C0AA1FBB1FA61790
:103FA000B70710F0A61BB70B881F991F5A95A9F7E2
:103FB00080959095BC01CD010895A1E21A2EAA1B0F
:103FC000BB1BFD010DC0AA1FBB1FEE1FFF1FA217C9
:103FD000B307E407F50720F0A21BB30BE40BF50BC6
:103FE000661F771F881F991F1A9469F7609570954F
:103FF000809590959B01AC01BD01CF0108950E9471
:104000001020A59F900DB49F900DA49F800D911D31
:1040100011240895EE0FFF1F0590F491E02D0994EF
:10402000A29FB001B39FC001A39F700D811D1124F9
:10403000911DB29F700D811D1124911D089550583E
:10404000BB27AA270E9437200C94B1210E94A321EC
:1040500038F00E94AA2120F039F49F3F19F426F489
:104060000C94A0210EF4E095E7FB0C949A21E92F23
:104070000E94C22158F3BA17620773078407950795
:1040800020F079F4A6F50C94E4210EF4E0950B2EC3
:10409000BA2FA02D0B01B90190010C01CA01A0019A
:1040A0001124FF27591B99F0593F50F4503E68F1F5
:1040B0001A16F040A22F232F342F4427585FF3CF36
:1040C000469537952795A795F0405395C9F77EF407
:1040D0001F16BA0B620B730B840BBAF09150A1F050
:1040E000FF0FBB1F661F771F881FC2F70EC0BA0FD6
:1040F000621F731F841F48F4879577956795B7955E
:10410000F7959E3F08F0B0CF9395880F08F0992758
:10411000EE0F9795879508950E94762108F481E027
:1041200008950E94A5200C94B1210E94AA2158F064
:104130000E94A32140F029F45F3F29F00C949A21BA
:1041400051110C94E5210C94A0210E94C22168F326
:104150009923B1F3552391F3951B550BBB27AA2740
:1041600062177307840738F09F5F5F4F220F331F7A
:10417000441FAA1FA9F335D00E2E3AF0E0E832D042
:1041800091505040E695001CCAF72BD0FE2F29D045
:10419000660F771F881FBB1F261737074807AB0717
:1041A000B0E809F0BB0B802DBF01FF2793585F4F8C
:1041B0003AF09E3F510578F00C949A210C94E52139
:1041C0005F3FE4F3983ED4F3869577956795B7956E
:1041D000F7959F5FC9F7880F911D9695879597F979
:1041E0000895E1E0660F771F881FBB1F62177307F2
:1041F0008407BA0720F0621B730B840BBA0BEE1F07
:1042000088F7E09508950E940A216894B1110C94F2
:10421000E52108950E94CA2188F09F5798F0B92F90
:104220009927B751B0F0E1F0660F771F881F991FEB
:104230001AF0BA95C9F714C0B13091F00E94E42188
:10424000B1E008950C94E421672F782F8827B85F98
:1042500039F0B93FCCF3869577956795B395D9F743
:104260003EF490958095709561957F4F8F4F9F4F4D
:104270000895E89409C097FB3EF490958095709559
:1042800061957F4F8F4F9F4F9923A9F0F92F96E9A2
:10429000BB279395F695879577956795B795F11117
:1042A000F8CFFAF4BB0F11F460FF1BC06F5F7F4FB4
:1042B0008F4F9F4F16C0882311F096E911C07723C6
:1042C00021F09EE8872F762F05C0662371F096E8CF
:1042D000862F70E060E02AF09A95660F771F881F9E
:1042E000DAF7880F9695879597F90895990F000842
:1042F000550FAA0BE0E8FEEF16161706E807F907B8
:10430000C0F012161306E407F50798F0621B730B52
:10431000840B950B39F40A2661F0232B242B252BD3
:1043200021F408950A2609F4A140A6958FEF811D76
:10433000811D089597F99F6780E870E060E0089517
:104340009FEF80EC089500240A94161617061806AD
:104350000906089500240A94121613061406050689
:104360000895092E0394000C11F4882352F0BB0F1A
:1043700040F4BF2B11F460FF04C06F5F7F4F8F4F7D
:104380009F4F089557FD9058440F551F59F05F3FB8
:1043900071F04795880F97FB991F61F09F3F79F067
:1043A00087950895121613061406551FF2CF4695E9
:1043B000F1DF08C0161617061806991FF1CF86956B
:1043C0007105610508940895E894BB27662777274F
:1043D000CB0197F908950E94762108F48FEF089594
:1043E0000E9403220C94B1210E94A32138F00E9464
:1043F000AA2120F0952311F00C949A210C94A0216D
:1044000011240C94E5210E94C22170F3959FC1F301
:10441000950F50E0551F629FF001729FBB27F00D72
:10442000B11D639FAA27F00DB11DAA1F649F6627C7
:10443000B00DA11D661F829F2227B00DA11D621F16
:10444000739FB00DA11D621F839FA00D611D221FD0
:10445000749F3327A00D611D231F849F600D211DB4
:10446000822F762F6A2F11249F5750409AF0F1F037
:1044700088234AF0EE0FFF1FBB1F661F771F881FA0
:1044800091505040A9F79E3F510580F00C949A211D
:104490000C94E5215F3FE4F3983ED4F3869577953D
:1044A0006795B795F795E7959F5FC1F7FE2B880F46
:1044B000911D9695879597F908950E947621880B0E
:1044C000990B0895CF93DF938230910510F482E029
:1044D00090E0E091E002F091E10220E030E0C0E005
:1044E000D0E0309711F14081518148175907C0F051
:1044F0004817590761F482819381209719F09B83B3
:104500008A832BC09093E1028093E00226C021159C
:10451000310519F04217530718F49A01BE01DF0163
:10452000EF010280F381E02DDCCF2115310509F187
:10453000281B390B2430310590F412968D919C91F3
:1045400013976115710521F0FB019383828304C0E9
:104550009093E1028093E002FD01329644C0FD0198
:10456000E20FF31F81939193225031092D933C93D5
:104570003AC02091DE023091DF02232B41F42091DA
:104580000201309103013093DF022093DE0220917B
:104590000001309101012115310541F42DB73EB7DD
:1045A0004091040150910501241B350BE091DE027E
:1045B000F091DF02E217F307A0F42E1B3F0B281740
:1045C000390778F0AC014E5F5F4F2417350748F08C
:1045D0004E0F5F1F5093DF024093DE028193919351
:1045E00002C0E0E0F0E0CF01DF91CF9108950F939A
:1045F0001F93CF93DF93009709F48CC0FC0132978F
:10460000138212820091E0021091E102011511055E
:1046100081F420813181820F931F2091DE0230913D
:10462000DF022817390779F5F093DF02E093DE0205
:1046300071C0D80140E050E0AE17BF0750F41296A9
:104640002D913C911397AD012115310509F1D90147
:10465000F3CF9D01DA013383228360817181860F5C
:10466000971F8217930769F4EC0128813981260F7F
:10467000371F2E5F3F4F318320838A819B81938335
:104680008283452B29F4F093E102E093E00242C0DB
:104690001396FC93EE931297ED01499159919E0167
:1046A000240F351FE217F30771F480819181840F85
:1046B000951F029611969C938E93828193811396F7
:1046C0009C938E931297E0E0F0E0D80112968D91C2
:1046D0009C911397009719F0F8018C01F6CF8D91FA
:1046E0009C9198012E5F3F4F820F931F2091DE0215
:1046F0003091DF022817390769F4309729F41092B6
:10470000E1021092E00202C0138212821093DF02D3
:104710000093DE02DF91CF911F910F9108956627DC
:1047200077270C94E72591110C944427803219F0D7
:1047300089508550C8F70895FB01DC0102C0019043
:104740000D9241505040D8F70895FC018191861791
:1047500021F08823D9F7992708953197CF0108953B
:10476000FB01DC018D91019080190110D9F3990BA7
:104770000895FB01DC0101900D920020E1F70895FE
:10478000BB274A3031F4992322F4BDE290958195FC
:104790009F4F0C94CC23BB27FB015527AA27880FDA
:1047A000991FAA1FA41710F0A41B83955051B9F7A5
:1047B000A05DAA3308F0A95DA193009779F7B11124
:1047C000B1931192CB010C947527AEE0B0E0EBEE03
:1047D000F3E20C943F280D891E898F89988D26E07D
:1047E0002C831A83098397FF02C080E090E8019729
:1047F0009E838D83AE01455E5F4F698D7A8DCE01BC
:1048000001960E9415244D815E8157FD0AC02F81BB
:104810003885421753070CF49A01F801E20FF31F91
:1048200010822E96E4E00C945B28ACE0B0E0EBE163
:10483000F4E20C9431287C016B018A01FC0117829F
:104840001682838181FFBDC1CE0101964C01F70123
:104850009381F60193FD859193FF81916F018823E8
:1048600009F4ABC1853239F493FD859193FF8191B1
:104870006F01853229F4B70190E00E948527E7CFC8
:10488000512C312C20E02032A0F48B3269F030F42E
:10489000803259F0833269F420612CC08D3239F0B6
:1048A000803339F4216026C02260246023C0286050
:1048B00021C027FD27C030ED380F3A3078F426FFAD
:1048C00006C0FAE05F9E300D1124532E13C08AE01B
:1048D000389E300D1124332E20620CC08E3221F40C
:1048E00026FD6BC1206406C08C3611F4206802C01E
:1048F000883641F4F60193FD859193FF81916F0114
:104900008111C1CF982F9F7D9554933028F40C5F6F
:104910001F4FFFE3F9830DC0833631F0833771F009
:10492000833509F05BC022C0F801808189830E5F66
:104930001F4F44244394512C540115C03801F2E018
:104940006F0E711CF801A080B18026FF03C0652D99
:1049500070E002C06FEF7FEFC5012C870E946A27CD
:104960002C0183012C852F77222E17C03801F2E00D
:104970006F0E711CF801A080B18026FF03C0652D69
:1049800070E002C06FEF7FEFC5012C870E945F27A8
:104990002C012C852068222E830123FC1BC0832D33
:1049A00090E048165906B0F4B70180E290E00E940A
:1049B00085273A94F4CFF50127FC859127FE819154
:1049C0005F01B70190E00E94852731103A94F1E031
:1049D0004F1A51084114510471F7E5C0843611F0A3
:1049E000893639F5F80127FF07C06081718182811E
:1049F00093810C5F1F4F08C060817181072E000CEE
:104A0000880B990B0E5F1F4F2F76722E97FF09C0F0
:104A100090958095709561957F4F8F4F9F4F20683F
:104A2000722E2AE030E0A4010E94BD27A82EA8180B
:104A300044C0853729F42F7EB22E2AE030E025C00D
:104A4000F22FF97FBF2E8F36C1F018F4883579F038
:104A5000B4C0803719F0883721F0AFC02F2F206104
:104A6000B22EB4FE0DC08B2D8460B82E09C024FF79
:104A70000AC09F2F9660B92E06C028E030E005C01E
:104A800020E130E002C020E132E0F801B7FE07C0CB
:104A900060817181828193810C5F1F4F06C06081AC
:104AA000718180E090E00E5F1F4FA4010E94BD273E
:104AB000A82EA818FB2DFF777F2E76FE0BC0372D72
:104AC0003E7FA51450F474FE0AC072FC08C0372D56
:104AD0003E7E05C0BA2C372D03C0BA2C01C0B52CC0
:104AE00034FF0DC0FE01EA0DF11D8081803311F409
:104AF000397E09C032FF06C0B394B39404C0832F3B
:104B0000867809F0B39433FD13C030FF06C05A2CE9
:104B1000B31418F4530C5B18B32CB31468F4B70136
:104B200080E290E03C870E948527B3943C85F5CFD6
:104B3000B31410F43B1801C0312C34FF12C0B7017C
:104B400080E390E03C870E9485273C8532FF17C0B8
:104B500031FD03C088E790E002C088E590E0B7012E
:104B60000CC0832F867859F031FF02C08BE201C060
:104B700080E237FD8DE2B70190E00E948527A51401
:104B800038F4B70180E390E00E9485275A94F7CF6C
:104B9000AA94F401EA0DF11D8081B70190E00E9412
:104BA0008527A110F5CF332009F451CEB70180E25B
:104BB00090E00E9485273A94F6CFF701868197818D
:104BC00002C08FEF9FEF2C96E2E10C944D28A0E0FD
:104BD000B0E0EDEEF5E20C943528EC017B016115B7
:104BE000710519F0DB018D939C938E010F5F1F4FB0
:104BF0007880872D90E00E949323892B11F0E801A3
:104C0000F4CFBDE27B1205C00F5F1F4F7980C1E07A
:104C100008C0EBE27E1204C08E010E5F1F4F798048
:104C2000C0E06801F1E0CF1AD10843E050E064E44D
:104C300071E0C6010E944727892BF1F4680122E048
:104C4000C20ED11C45E050E06FE371E0C6010E9446
:104C50004727892B21F4680187E0C80ED11CE11495
:104C6000F10419F0D701CD92DC92C111FFC060E0D0
:104C700070E080E89FE703C143E050E06CE371E03F
:104C8000C6010E944727892B51F4E114F10409F46D
:104C9000F2C00E5F1F4FF70111830083ECC0680163
:104CA00060E070E0CB0100E010E0F601D0EDD70D40
:104CB000DA3058F52C2F2260622E2C2F2870C2FF7C
:104CC00005C0211128C00F5F1F4F25C0222311F0FE
:104CD00001501109A5E0B0E09B01AC010E94FF1F4B
:104CE0004B015C01880C991CAA1CBB1CC501B401BA
:104CF0006D0F711D811D911D6839A9E97A078A0719
:104D0000A9E19A0740F0C66005C0DE3F51F4C3FD3B
:104D100044C0C8606C2EBFEFCB1ADB0A7080C62D72
:104D2000C4CF2D2F2F7D2531C1F540814D3211F497
:104D3000C06106C04B3221F0319621E030E006C060
:104D40003296D60111964C9122E030E0A0EDA40FEE
:104D5000AA3018F0E21BF30B20C040E050E04038CE
:104D6000BCE05B075CF49A01220F331F220F331F54
:104D7000420F531F440F551F4A0F511D3196DF013B
:104D800011972C91A0EDA20FAA3048F3C4FF03C0E5
:104D9000519541955109040F151FC1FF07C0E1143A
:104DA000F10421F03197D701ED93FC930E94392152
:104DB000C370C33019F06B017C0106C06B017C012C
:104DC000F7FAF094F7F8F09420E030E0A901C70179
:104DD000B6010E948C20882309F445C017FF06C045
:104DE000119501951109CBE5D1E002C0C3E7D1E0EF
:104DF0005E01B8E1AB1AB1084601BE2DAF2D90E2BD
:104E0000E92EF12C0E151F0584F0FE012591359138
:104E100045915491B4018B2F9A2F0E94F0214B01A0
:104E2000B82FA92F0E191F09EDCF2497F594E794F9
:104E3000CA15DB0539F76401EB2EFA2E8E2D880F8B
:104E40008F2D881F8F3F49F020E030E0A901C70176
:104E5000B6010E948C20811106C082E290E09093FE
:104E6000E3028093E202C701B60109C060E070E08E
:104E700080E89FEF04C060E070E080EC9FE7CDB772
:104E8000DEB7EEE00C945128992788270895FB019E
:104E9000DC014150504088F08D9181341CF08B35FD
:104EA0000CF4805E659161341CF06B350CF4605E2F
:104EB000861B611171F3990B0895881BFCCFFC01CF
:104EC0000590615070400110D8F7809590958E0F35
:104ED0009F1F0895FC016150704001900110D8F7A8
:104EE000809590958E0F9F1F0895DC01FC01672F20
:104EF00071917723E1F7329704C07C916D937083B1
:104F00006291AE17BF07C8F308950F931F93CF9315
:104F1000DF93FB01238121FD03C08FEF9FEF28C0AA
:104F200022FF16C0468157812481358142175307DD
:104F300044F4A081B1819D012F5F3F4F31832083D5
:104F40008C93268137812F5F3F4F3783268310C094
:104F5000EB01092F182F0084F185E02D0995892B8D
:104F6000E1F68E819F8101969F838E83812F902F02
:104F7000DF91CF911F910F910895FA01AA27283050
:104F800051F1203181F1E8946F936E7F6E5F7F4F16
:104F90008F4F9F4FAF4FB1E03ED0B4E03CD0670F92
:104FA000781F891F9A1FA11D680F791F8A1F911DE5
:104FB000A11D6A0F711D811D911DA11D20D009F435
:104FC00068943F912AE0269F11243019305D319377
:104FD000DEF6CF010895462F4770405D4193B3E060
:104FE0000FD0C9F7F6CF462F4F70405D4A3318F007
:104FF000495D31FD4052419302D0A9F7EACFB4E0B8
:10500000A6959795879577956795BA95C9F700976F
:105010006105710508959B01AC010A2E0694579510
:10502000479537952795BA95C9F7620F731F841F67
:10503000951FA01D0895F999FECF92BD81BDF89AE4
:10504000992780B50895262FF999FECF1FBA92BDF2
:1050500081BD20BD0FB6F894FA9AF99A0FBE019659
:1050600008952F923F924F925F926F927F928F920C
:105070009F92AF92BF92CF92DF92EF92FF920F93E7
:105080001F93CF93DF93CDB7DEB7CA1BDB0B0FB6F1
:10509000F894DEBF0FBECDBF09942A8839884888AE
:1050A0005F846E847D848C849B84AA84B984C88444
:1050B000DF80EE80FD800C811B81AA81B981CE0F3B
:1050C000D11D0FB6F894DEBF0FBECDBFED01089520
:0450D000F894FFCF82
:1050D4000000E4022000FF0000400014005400001F
:1050E4000000007504D41B4475616C0053696E673D
:1050F4006C650061575849726F6E730025732025E3
:10510400730025632025642E256400464F535320E5
:10511400202D2020464F5348004631524D42002551
:105124007320202564003A4F4B3A0D0A003A455249
:10513400523A0D0A004F4646005341564500445525
:105144004D50003200494E56414C49440043414CB5
:1051540000310003010301030103010101010320E4
:1051640020030101030301032020030301030101C0
:105174000320202000000003000300032002020398
:1051840000020303010303020203020200000303FB
:105194000203030203202020010101000000007B20
:1051A40004BA04000000007C04A604000000009E71
:1051B40004B00400000000F11A6E616E00696E66AE
:1051C400006F7666002E0000000000431ED41BEC26
:0851D4001D181EFC1D381E0011
:00000001FF
